:020000040800F2
:100000000809002099010008BB15000857130008D3
:10001000B91500084B050008311E0008000000005B
:10002000000000000000000000000000E1190008CE
:100030004D05000800000000D7180008351B000817
:10004000B3010008B3010008B3010008B3010008C0
:10005000B3010008B3010008B3010008B3010008B0
:10006000B3010008B3010008B3010008B3010008A0
:10007000B3010008B3010008B3010008B301000890
:10008000B3010008B3010008B3010008B301000880
:10009000B3010008B3010008B3010008B301000870
:1000A000B3010008B3010008B3010008B301000860
:1000B000B3010008B3010008B3010008B301000850
:1000C000B3010008B3010008B3010008B301000840
:1000D000B3010008191E0008251E0008B30100081E
:1000E000B3010008B3010008B301000800F002F8F2
:1000F00000F043F80AA090E8000C82448344AAF17F
:100100000107DA4501D100F038F8AFF2090EBAE87C
:100110000F0013F0010F18BFFB1A43F0010318473B
:100120000421000024210000103A24BF78C878C1BF
:10013000FAD8520724BF30C830C144BF04680C60ED
:10014000704700000023002400250026103A28BF35
:1001500078C1FBD8520728BF30C148BF0B60704739
:100160001FB500F075F904000020002101F0B0FE79
:10017000401C60601FBD10B510BD00F071F9114644
:10018000FFF7EEFF01F066FE00F08FF903B4FFF712
:10019000F2FF03BC00F0D2F9094880470948004744
:1001A000FEE7FEE7FEE7FEE7FEE7FEE7FEE7FEE727
:1001B000FEE7FEE704480549054A064B7047000084
:1001C000971B0008ED000008080300200809002024
:1001D000080500200805002010B5044600F0FEF8D0
:1001E0000068005DC00602D504F1200010BD204665
:1001F00010BD401ECAB210F8011F8A4202D0002969
:10020000F9D10020704730B505460B462A4613F851
:10021000014B12F8010B08B1A042F8D01CB1002824
:1002200002D06D1CF1E7284630BD10B5431C02E03A
:1002300010F8011B71B18107FAD14FF0013202C8E9
:100240008C1A8C4314EAC211F9D0C01A0A0603D0E2
:10025000C01E10BDC01A10BD0A0401D0801E10BD02
:100260000902FCD0401E10BD40EA010370B59B0797
:100270002ED14FF00136042A2AD308C810C99D1B7D
:100280009D43121F15EAC61517D0D8B2E1B2401A25
:1002900050EA056110D198B2A1B2401A50EA054166
:1002A0000AD123F07F4024F07F41401A50EA052113
:1002B00002D1180EA0EB146070BDA342DBD018BAB7
:1002C00021BA884201D9012070BD4FF0FF3070BDC6
:1002D0000AB9002070BD10F8013B11F8014B63B161
:1002E000A3420AD1521E08D010F8013B11F8014B6D
:1002F0001BB1A34201D1521EEDD1181B70BD032AC0
:1003000040F2308010F0030C00F0158011F8013B32
:10031000BCF1020F624498BF11F801CB00F8013B19
:1003200038BF11F8013BA2F1040298BF00F801CBDD
:1003300038BF00F8013B11F0030300F05780083A82
:10034000C0F0088051F8043B083A51F804CBA0E80B
:100350000810F5E7121D5CBF51F8043B40F8043B60
:10036000AFF30080D20724BF11F8013B11F801CB95
:1003700048BF11F8012B24BF00F8013B00F801CB66
:1003800048BF00F8012B70474FF0000200B513463C
:1003900094469646203922BFA0E80C50A0E80C50A5
:1003A000B1F12001BFF4F7AF090728BFA0E80C5056
:1003B00048BF0CC05DF804EB890028BF40F8042B4F
:1003C00008BF704748BF20F8022B11F0804F18BFBC
:1003D00000F8012B704770477047704710B500F068
:1003E00037F8001D10BD00BFE91A000010B5203A13
:1003F000C0F00B80B1E81850203AA0E81850B1E8DE
:100400001850A0E81850BFF4F5AF5FEA027C24BF93
:10041000B1E81850A0E8185044BF18C918C0BDE88A
:1004200010405FEA827C24BF51F8043B40F8043B53
:1004300008BF7047D20728BF31F8023B48BF11F808
:10044000012B28BF20F8023B48BF00F8012B704762
:1004500000487047C802002000487047A8020020EA
:100460007546FFF7F9FFAE4605006946534620F092
:100470000700854618B020B5FFF79CFEBDE8204078
:100480004FF000064FF000074FF000084FF0000B50
:1004900021F00701AC46ACE8C009ACE8C009ACE803
:1004A000C009ACE8C0098D46704710B50446AFF3EB
:1004B00000802046BDE81040FFF768BE4FF0013CC9
:1004C00050F8042B51F8043B9A4221D1A2EB0C03C3
:1004D000934313EACC1317D150F8042B51F8043B83
:1004E0009A4215D1A2EB0C03934313EACC130BD120
:1004F00050F8042B51F8043B9A4209D1A2EB0C03AB
:10050000934313EACC13DBD04FF00000704700BFD9
:10051000D01A01BAB1FA81F101F0180122FA01F002
:10052000CB40C1F12001DBB2C0B2C01A2CFA01F3FA
:10053000D11A914311EAC311E6D17047014918203D
:10054000ABBEFEE7260002007047FEE7704772B6BA
:10055000FEE710B590F821100022022905D00421F1
:10056000816380F82020012010BD01680B6823F012
:100570000E030B6001680B6823F001030B6090F819
:100580004030C46B012101FA03F3636080F821104D
:1005900080F82020104610BD10B590F821100024DE
:1005A000022903D00421816301243DE001680A6827
:1005B00022F00E020A6001680A6822F001020A6055
:1005C0001A4A0168914201D1012121E0174A1432EF
:1005D000914201D110211BE0144A2832914201D1ED
:1005E000891515E0114A3C32914201D189140FE07E
:1005F0000E4A5032914202D14FF4803108E00B4A4A
:100600006432914202D14FF4801101E04FF08071C9
:10061000064A083A5160012180F82110002180F833
:100620002010416B01B18847204610BD08000240F0
:1006300070B5044600F004F90546601C02D0044879
:100640000078044400F0FCF8401BA042FAD370BDCF
:10065000080000202DE9F84FDFF8B8910024A9F137
:10066000040B23460F2709F1040AABF1040EC9E07D
:100670000125A5402A40AA427DD1674ED1F804C089
:10068000ACEB0608B44532D014DCBCF1030F3AD011
:1006900009DCBCF1000F2AD0BCF1010F1CD0BCF169
:1006A000020F31D11DE0BCF1110F17D0BCF1120FB8
:1006B0002AD119E0B8F5881F19D006DCB8F5803FBB
:1006C00015D0B8F5801F1FD111E0B8F5001F0ED06E
:1006D000B8F5041F18D10AE0CB6815E0CB681B1DE4
:1006E00012E0CB6808330FE0CB680C330CE08B686A
:1006F0002BB1012B4FF0080303D0456104E0042324
:1007000002E0056100E00023FF2A01D8064601E06F
:1007100000F104064FEA840501D9A5F12005D6F8B9
:10072000008007FA05FC28EA0C0803FA05F548EAF8
:100730000508C6F800804D68ED0062D5374DAE69FA
:1007400046F00106AE61AD6924F0030605F001052F
:100750000095334D06EB050CDCF80850A607360F64
:1007600007FA06F825EA0805DFF8B880404503D106
:100770004FF0000817E044E0DFF8AC80404502D1BC
:100780004FF001080FE0DFF8A480404502D14FF0A0
:10079000020808E0DFF89880404502D14FF00308D6
:1007A00001E04FF0040808FA06F848EA0508CCF81A
:1007B00008804D68D9F80060ED024D4601D516431A
:1007C00000E096432E604D68DAF80060AD025546B1
:1007D00001D5164300E096432E604D68DBF80060BB
:1007E000AD035D4601D5164300E096432E604D688B
:1007F000DEF80060ED03754601D5164300E0964330
:100800002E60641C0D682A46E5407FF431AFBDE8D8
:10081000F88F000008040140000011100010024091
:100820000000014000080140000C014000100140A0
:10083000001401400AB1016170470904FBE70000A0
:100840000148806870470000080000200248816865
:10085000027811448160704708000020074810B5F5
:10086000016841F010010160032000F075F80F20CD
:1008700000F006F800F024F8002010BD002002402F
:1008800070B50D4D04464FF47A712878B1FBF0F045
:100890000A490968B1FBF0F000F0DCFA48B9102C05
:1008A00007D200222146501E00F036F800206C606E
:1008B00070BD012070BD0000080000201400002061
:1008C0000C4808B5816941F001018161816901F03D
:1008D00001010091C16941F08051C161C06900F01E
:1008E000805000900448416821F0E06141F080614F
:1008F000416008BD0010024000000140002809DBF3
:1009000000F01F02012191404009800000F1E02029
:10091000C0F8001170470000F0B40E4B1B680C4685
:10092000C3F30223C3F10705042D00D90425191DC3
:10093000072901D2002300E0DB1E012606FA05F19B
:10094000491E214099409E40761E16403143F0BC1E
:1009500001F06FBA0CED00E0064900F007020868EC
:100960004FF6FF03184040EA0220034A1043086094
:10097000704700000CED00E00000FA052DE9F0479B
:100980000F46050061D0434E306800F00700B842C2
:1009900009D2306820F0070038433060306800F03A
:1009A0000700B84251D128683B4C810712D5400757
:1009B00003D5606840F4E06060602878000703D5E4
:1009C000606840F4605060606068A96820F0F000E2
:1009D000084360602878C00728D06868012810D0D4
:1009E0002168022810D0890700292EDA616821F0D9
:1009F000030101436160FFF723FF804641F288391C
:100A00000DE021688903EFE78901EDE7FFF718FFA3
:100A1000A0EB0801494502D90320BDE8F0876068D2
:100A2000696800F00C00B0EB810FEFD1306800F086
:100A30000700B8420BD9306820F007003843306017
:100A4000306800F00700B84201D00120E5E72878BF
:100A5000400705D56068E96820F4E06008436060FD
:100A60002878000706D56068296920F4605040EABC
:100A7000C100606000F038F86168084AC1F30311F2
:100A8000515CC8400649086006480068FFF7F8FE58
:100A90000020C2E700200240001002401B1F000897
:100AA000140000200C000020044805490068496833
:100AB000044AC1F30221515CC84070471400002071
:100AC000001002402B1F00080448054900684968CF
:100AD000044AC1F3C221515CC84070471400002091
:100AE000001002402B1F00080E4A51680E4801F00A
:100AF0000C03042B11D0082B0FD10C48C1F38343F6
:100B0000C903C05C0AD55168084AC1F34041921E2E
:100B1000515C054A5043B0FBF1F07047044948432B
:100B2000704700000010024000127A000B1F0008FE
:100B300000093D002DE9F84F040070D02078C04D29
:100B4000C00749D06868C0F38100012807D06868F1
:100B5000C0F38100022809D16868C00306D528685F
:100B6000800339D560680028E7D035E06068B0F5CB
:100B7000803F0BD010B1B0F5A02F11D0286820F421
:100B800080302860286820F4802002E0286840F443
:100B900080302860606890B1FFF752FE06460AE098
:100BA000286840F480202860F0E700BFFFF748FE87
:100BB000801B642873D828688003F7D50CE0FFF702
:100BC0003FFE064605E000BFFFF73AFE801B6428A3
:100BD000F0D828688003F7D420789A4E80074FF029
:100BE00001094FF0000839D5686810F00C0F07D0E4
:100BF0006868C0F38100022809D16868C00306D480
:100C00002868800714D52069012808D110E02069E0
:100C1000B0B1C6F80090FFF713FE074605E00AE101
:100C2000FFF70EFEC01B0228C4D828688007F7D53E
:100C30002868616920F0F80040EAC10028600DE0F2
:100C4000C6F80080FFF7FCFD074604E0FFF7F8FD5B
:100C5000C01B022823D828688007F7D42078000713
:100C60002CD57948A169D9B1C0F80090FFF7E8FD0B
:100C7000074604E0FFF7E4FDC01B02280FD8686AAE
:100C80008007F7D571484FF4FA510068B0FBF1F0D6
:100C9000009000BF0098411E0091FAD20EE080E063
:100CA000C0F80080FFF7CCFD074604E0FFF7C8FD61
:100CB000C01B022875D8686A8007F7D420784007DF
:100CC00060D5E8690027C00008D4E86940F080508A
:100CD000E861E869012700F0805000905C480168F5
:100CE000C90513D40168834641F480710160FFF7A0
:100CF000A7FD824606E000BFFFF7A2FDA0EB0A00B9
:100D000064284ED8DBF80000C005F5D5E06801285E
:100D10000AD008B1052813D0286A20F00100286203
:100D2000286A20F0040002E0286A40F001002862EE
:100D3000E06841F2883B98B1FFF782FD82460BE004
:100D4000286A40F004002862EEE700BFFFF778FD54
:100D5000A0EB0A0159455AD8286A8007F6D50CE05D
:100D6000FFF76EFD824605E0FFF76AFDA0EB0A0182
:100D700059454CD8286A8007F6D41FB1E86920F09D
:100D80008050E861E06988B36968C1F38101022994
:100D900044D00228C6F8608004D0FFF751FD044615
:100DA00038E034E0FFF74CFD074604E0FFF748FD6C
:100DB000C01B02282BD828688001F7D4206AB0F520
:100DC000803F05D16868A16820F40030084368605E
:100DD000D4E908010843696821F474110843686084
:100DE000C6F86090FFF72CFD044606E025E000BF42
:100DF000FFF726FD001B022809D828688001F7D5D7
:100E00001BE000BFFFF71CFD001B022802D90320D6
:100E1000BDE8F88F28688001F4D40EE00128F7D0EF
:100E20006868226A00F48031914204D1616A00F45A
:100E30007010884201D00120EAE70020E8E70000B6
:100E40000010024000004242800442421400002090
:100E50000070004010B5401EB0F1807F01D301202A
:100E600010BD4FF0E02460610F21601700F0E1FF3A
:100E70000020A06107202061002010BD704770474E
:100E8000F8B5016804460868CA684B6910F00F0F8E
:100E90004FF0000559D003F0010602F49077374374
:100EA00065D0C10705D0D10503D5616C41F00101C2
:100EB0006164410705D5D90703D0616C41F0020197
:100EC0006164810705D5D90703D0616C41F0040145
:100ED0006164010707D502F02001314303D0616C42
:100EE00041F008016164616C00293AD0800604D5A4
:100EF000900602D5204600F07EFE20684069616CB5
:100F0000C0F38010090700D460B3204600F04CFE07
:100F100020684069400621D52068143050E8001F41
:100F200021F0400140E80012002AF5D1E06BA8B1A1
:100F30006D494163E06BFFF72FFB002811D0E06B98
:100F4000416B01B0BDE8F040084783060FD593061A
:100F50000DD52046BDE8F84000F04DBE2046FFF715
:100F60008EFFF8BD2046FFF78AFF6564F8BD266B4B
:100F70002023012E7CD1C6067AD5D60678D50868FE
:100F80004868009048694FF00206400640D5E16B82
:100F9000086840680004000CE8D0A28D8242E5D9C0
:100FA000E085886920282DD020680C3050E8001F8B
:100FB00021F4807140E80012002AF5D12068143035
:100FC00050E8001F21F0010140E80012002AF5D18D
:100FD0002068143050E8001F21F0400140E8001262
:100FE000002AF5D184F84230256320680C3050E89F
:100FF000001F21F0100140E80012002AF5D1E06B3B
:10100000FFF7A7FA6663A08DE18D401A81B22AE04E
:10101000A08DE18D401A81B2E08D0028A6D0002974
:10102000A4D022680C3252E8000F20F4907042E8FD
:101030000007002FF5D12068143050E8002F22F06F
:10104000010240E80027002FF5D184F842302563E3
:1010500020680C3050E8002F22F0100240E80023F6
:10106000002BF5D166632046FFF708FFF8BDFFE7C8
:1010700005062BD5150629D594F841002128F5D170
:10108000A068B0F5805F01D12069B0B1206A411C31
:101090002162216800784860E08C401E0004000C4A
:1010A000E084E3D12068C16821F08001C16020683C
:1010B000C16841F04001C160D8E7206A0088C0F3F0
:1010C00008004860206A801C2062E5E74006CDD514
:1010D0005006CBD5CA68204622F04002CA6084F888
:1010E000413000F037F9C1E7991B000870B50400E2
:1010F00004D094F84100002510B106E0012070BD35
:1011000084F84050204600F023F8242084F8410061
:101110002068C16821F40051C160204600F0CCFD78
:101120002068016921F4904101612068416921F042
:101130002A0141612068C16841F40051C1606564C1
:10114000202084F8410084F842006563002070BDCF
:1011500070B586B0002400940194029403942E4E3E
:1011600003682E49022003222D4DB34226D18B69FC
:1011700043F480438B618B6903F4804304938B6950
:1011800043F004038B618969039201F00401049127
:101190000102CDE9001069462846FFF75BFA2815E1
:1011A000CDE90004694628460294FFF753FA00226D
:1011B00011462520FFF7B0FB252028E0194EB34249
:1011C00027D1CB6943F40033CB61CB6903F40033FF
:1011D00004938B6943F004038B618969039201F0E6
:1011E000040104910421CDE9001069462846FFF767
:1011F00031FA0820CDE90004694628460294FFF739
:1012000029FA002211462620FFF786FB2620FFF749
:1012100075FB06B070BD00000038014000100240B0
:10122000000801400044004090F84230202B01D0DB
:101230000220704721B11AB10023036300F098BD6A
:101240000120704770B500681649884229D1164CB4
:1012500016492246A0780126002592880A2809D03E
:101260000D2814D0FF2A10D28854521CA2807D2849
:1012700015D00CE04AB1207838B18D540B49521C7E
:1012800001F58070FFF73BF86670A5802570BDE81A
:10129000704005490122891C0548FFF7C5BF26702B
:1012A000F5E770BD00380140000000201800002064
:1012B000180200202DE9F843044690F841009846B2
:1012C00016460D46202802D00220BDE8F88385B1DD
:1012D0007EB100206064212084F84100FFF7B0FA5D
:1012E000A6848146E684A0682027B0F5805F02D0FE
:1012F00003E00120E9E7206910B12E4600250EE049
:1013000000260CE08021204600F04DFDA8B9C6B1B2
:1013100016F8010B21684860E08C401EE084E08CE8
:101320004B464FF00002CDF800800028EAD14FF084
:101330004001204600F037FD40B184F841700320A1
:10134000C3E735F8020BC0F30800E3E784F8417007
:101350000020BAE77047FEE72DE9F0411C46160071
:101360002BD0002C29D04FF0000886F800800028F0
:1013700023D0002921D0FEF746FF00281DD03A21B6
:10138000FEF737FF002818D02221FEF732FF002891
:1013900013D0401C05462221FEF72BFF00280CD05D
:1013A000401B87B2641EA74200DDA7B23A46294619
:1013B0003046FEF7A4FF06F80780BDE8F081000084
:1013C0002DE9F34FB7B000253798012700287BD0CF
:1013D0003898002878D03798FEF727FF84B23F2C42
:1013E00000D93F24224624A83799FEF788FF24A974
:1013F0004FF0000A01F804A08DF800A00C460DF192
:10140000500B50E0641C20782028FBD010F0FF0F18
:101410004CD02C212046FEF7ECFE5FEA000801D0FC
:1014200088F800A02046FEF700FF1FFA80F9B9F106
:101430003F0F03D94FF03F09002601E0002606E0E8
:10144000A05DFEF7C9FE0BF80600761CB6B24E454D
:10145000F6D30BF809A004221DA114A8FEF704FF7F
:1014600000B9241DA1462FB93F2D03D22C210DF820
:1014700005106D1C2046FEF7D8FE0446C5F13F015D
:10148000A14200D20C466E460DEB050022464946AD
:10149000FEF735FF2544002706F805A0B8F1000F38
:1014A00004D008F1010420780028ACD13898ACB2FF
:1014B000401E844200DD84B2224669463798FEF71A
:1014C0001EFF379901F804A039B0BDE8F08F000085
:1014D000676F6F640000000010B586B000200090B8
:1014E0000190029003901648816941F010018161DA
:1014F000816901F010010491816941F0200181614D
:10150000816901F020010491816941F00401816148
:1015100080690C4C00F0040004900122C021204698
:10152000FFF788F9C020009011200190012002905F
:101530000320039069462046FFF78CF806B010BDE3
:1015400000100240000801400C4810B50A49016033
:101550004FF416514160002181600C22C160C0E946
:1015600004128161C161FFF7C1FD002803D0BDE80D
:101570001040FEF7ECBF10BD0038014018020020FB
:101580000C4810B50A4901604FF416514160002122
:1015900081600C22C160C0E904128161C161FFF762
:1015A000A5FD002803D0BDE81040FEF7D0BF10BD58
:1015B0000044004060020020FEE7FEE710B5002472
:1015C0002146002000F06CF800F034FA782000F09A
:1015D00077FA402000F074FA8021054800F062FAA2
:1015E00000F046FA641CE4B2082CE9D310BD0000F8
:1015F000A321000810B56420FFF71AF8AE2000F010
:1016000059F9D52000F056F9802000F053F9A820B0
:1016100000F050F93F2000F04DF9D32000F04AF9D6
:10162000002000F047F9402000F044F98D2000F040
:1016300041F9142000F03EF9202000F03BF902208F
:1016400000F038F9A12000F035F9C82000F032F997
:10165000DA2000F02FF9122000F02CF9812000F0A0
:1016600029F9CF2000F026F9D92000F023F9F12044
:1016700000F020F9DB2000F01DF9402000F01AF9FD
:10168000A42000F017F9A62000F014F9FFF796FF48
:10169000AF2000F00FF9BDE810403220FEF7C8BFC0
:1016A00010B50446B031C8B200F004F9102040EA89
:1016B000141000F0FFF804F00F00BDE8104000F037
:1016C000F9B8000070B514460D460646FFF7E8FF6E
:1016D00000F0B0F9782000F0F3F9402000F0F0F9C4
:1016E0000F48082100EB0410044600F0DBF900F07D
:1016F000BFF96D1CE9B23046FFF7D2FF00F09AF94E
:10170000782000F0DDF9402000F0DAF904F108005B
:10171000082100F0C7F9BDE8704000F0A9B9000049
:10172000331F000870B514460D460646FFF7B8FF94
:1017300000F080F9782000F0C3F9402000F0C0F9F3
:101740000F48102100EB4410044600F0ABF900F004
:101750008FF96D1CE9B23046FFF7A2FF00F06AF97D
:10176000782000F0ADF9402000F0AAF904F1100053
:10177000102100F097F9BDE8704000F079B9000041
:101780002321000870B515460E4604468BE0432819
:101790005ED021DC352875D012DC312868D008DC19
:1017A00020287DD02C283DD02E283DD0302879D13E
:1017B0005CE032285ED0332860D0342872D15FE0FC
:1017C00036380D286ED2DFE800F05F616466276D61
:1017D0006D6D6D6D6D3F4100522831D00BDCA0F175
:1017E00044000C285ED2DFE800F03B295D395D350E
:1017F0005D275D5D3F25582810D006DC532831D089
:10180000542829D057284DD11CE0592808D07B28CE
:101810000CD07D2846D10BE000223DE001223BE0C8
:10182000022239E0032237E0042235E0052233E0CA
:10183000062231E007222FE008222DE009222BE0CA
:101840000A2229E00B2227E00C2225E01D2223E0BA
:101850001E2221E00D221FE00E221DE00F221BE0C0
:10186000102219E0112217E0122215E0132213E0D2
:10187000142211E015220FE004E011E016220BE023
:10188000172209E0182207E0192205E01A2203E0D6
:1018900008E01B2200E01C2231462046FFF712FF21
:1018A0000834E4B26D1C287800287FF470AF70BD56
:1018B000FFF768BF10B5044600F0BCF8782000F0D0
:1018C000FFF8002000F0FCF8204600F0F9F8BDE831
:1018D000104000F0CDB8704710B5E0B0202140A80E
:1018E000FEF752FD202148A8FEF74EFD202150A80A
:1018F000FEF74AFD202158A8FEF746FDEFF31084BD
:1019000072B64FF480722E496846FEF7F8FC00204C
:101910008DF8FF0084F310881E2340AA29A1684691
:10192000FFF71AFD1E2348AA28A16846FFF714FDF9
:101930001E2350AA26A16846FFF70EFD1E2358AAB3
:1019400025A16846FFF708FD1E2140A8FFF738FDD6
:101950001E2148A8FFF734FD1E2150A8FFF730FDD7
:101960001E2158A8FFF72CFDFFF728FE0022114684
:101970001046FFF7D7FE48AA00211420FFF798FF72
:10198000012202210020FFF7CDFE40AA02211420EF
:10199000FFF78EFF022204210020FFF7C3FE50AAAA
:1019A00004211420FFF784FF032206210020FFF703
:1019B000B9FE58AA06211420FFF77AFF60B010BDC7
:1019C00018010020446F776E000000005570000081
:1019D0004C6566740000000052696768740000007E
:1019E00070470020401C0528FCD370470F4810B5F5
:1019F000816986B041F00401816180690C4C00F07E
:101A000004000490C0200090112001900320039056
:101A10000120029069462046FEF71CFE0122C021EB
:101A20002046FEF707FF06B010BD00000010024080
:101A30000008014010B50D4C012280212046FEF720
:101A4000F9FE012240212046FEF7F4FEFFF7C9FF10
:101A5000002280212046FEF7EDFEFFF7C2FF204660
:101A60000022BDE810404021FEF7E4BE000801401E
:101A700010B50B4C002280212046FEF7DBFE012230
:101A800040212046FEF7D6FEFFF7ABFF0122802162
:101A90002046FEF7CFFEBDE81040FFF7A2BF0000D2
:101AA0000008014070B50D460646002404E0305D94
:101AB00000F006F8641CA4B2AC42F8D370BD00007C
:101AC00070B51B4E05460024280601D5012200E012
:101AD000002280213046FEF7ADFE6806050EFFF7B6
:101AE00080FF012240213046FEF7A4FEFFF779FF78
:101AF000002240213046FEF79DFE641CE4B2082C13
:101B0000E2D3FFF76EFF012280213046FEF792FEFE
:101B1000FFF767FF012240213046FEF78BFEFFF7FB
:101B200060FF3046BDE8704000224021FEF782BED3
:101B300000080140FEF78ABE30B58FB02821684604
:101B4000FEF722FC14210AA8FEF71EFC012108045E
:101B5000CDE900100024029402250491CDE907503C
:101B60004FF4E01009906846FEF7E4FF08B172B642
:101B7000FEE70F20CDE90A054FF48060CDE90C4067
:101B800002210AA80E94FEF7F9FE002801D072B6D1
:101B9000FEE70FB030BD704710B5406A0021C18527
:101BA000C184FFF76CF910BD01680C3151E8002FBA
:101BB00022F4907241E80023002BF5D10168143122
:101BC00051E8002F22F0010241E80023002BF5D15B
:101BD000016B012909D101680C3151E8002F22F075
:101BE000100241E80023002BF5D1202180F842109B
:101BF00000210163704708B590F84210222901D0F6
:101C0000022008BD82684FF480539A4201D10169D5
:101C100021B1816A9A421BD04AB10AE00268816A06
:101C20005268C2F308020A80816A891C08E00269CE
:101C300072B10268526802F07F020A70816A491C20
:101C40008162C18D491E0904090CC18503D01BE0C6
:101C500002685268F1E70168CA6822F02002CA608F
:101C60000168CA6822F48072CA6001684A6922F079
:101C700001024A61202180F8421000214163026B79
:101C8000012A03D0FFF7DEFA002008BD01630168D6
:101C90000C3151E8002F22F0100241E80023002B04
:101CA000F5D101680A68D20602D50A684968009130
:101CB000818DFFF7E3F8E7E770B504460068016936
:101CC000E26821F44051114301612169A068084391
:101CD000616908432168CA6841F20C639A43024370
:101CE000CA6020684169A26921F4407111434161D1
:101CF0001E492068884202D1FEF7E6FE01E0FEF7A9
:101D0000D3FE00EBC00101EB00126068642180008B
:101D1000B2FBF0F3B3FBF1F36FF018067343B2FBC1
:101D2000F0F5B2FBF0F605EB8305322303EB051566
:101D3000B5FBF1F5B6FBF1F605F0F00505EB061580
:101D4000B2FBF0F6B2FBF0F0B0FBF1F06FF018026E
:101D5000504306EB800003EB0010B0FBF1F021686C
:101D600000F00F002844886070BD0000003801407A
:101D700081628285C28500214164222180F842105F
:101D8000016921B10168CA6842F48072CA600168C1
:101D90004A6942F001024A610068C16841F02001CD
:101DA000C160002070472DE9F843984617460D465C
:101DB0000446089E24E0701C22D0FEF741FDA0EBF3
:101DC0000800B0421AD8CEB12068C168490717D5BB
:101DD000802D15D0402D13D00168C94309070FD4B9
:101DE00001680025406800902046FFF7DDFE0820CE
:101DF000606484F840500120BDE8F8830320FBE7CD
:101E00002068006835EA000004D00020B842D2D033
:101E10000020F1E70120F9E70148FFF731B80000A1
:101E2000180200200148FFF72BB8000060020020D4
:101E3000FEE70907090E002804DB00F1E02080F826
:101E40000014704700F00F0000F1E02080F8141D2E
:101E500070470000FEF702FDFFF76EFEFFF73CFB48
:101E6000FFF772FBFFF78CFBFFF7C0FDFFF7C2FB2C
:101E7000FFF7A4FB0FA202210020FFF783FC10480C
:101E8000FEF7D3F982B232230D490E48FFF712FA5A
:101E900001220D490D48FFF7C7F90B4C0025A41E80
:101EA000607810B16570FFF717FD3220FEF7C0FBB8
:101EB000F6E70000574149542044415441000000D6
:101EC000FC1E000860020020020000201802002012
:101ED00010B500290AD00878002807D005487844B2
:101EE000FEF7ECFA002801D0002010BD024878442B
:101EF00010BD0000660300005E030000554152540F
:101F00002052454144590D0A00010202030405060E
:101F10000708090A0B0C0D0E0F101000000000003E
:101F20000000000102030406070809000000000188
:101F3000020304000000C0C00000000000003030B8
:101F4000000000081868808068180820302C0303FF
:101F50002C30200838C800C83808000000203F2076
:101F60000000000000000000000000009070000071
:101F70000000000000000000000000003030000001
:101F80000000000000000000FC0202000000000150
:101F90003E40400202FC000000000040403E0100C4
:101FA000000000E01008080810E0000F10202020BA
:101FB000100F0008F888C028180800203F200126CC
:101FC00038200008F88888E8081000203F202023E7
:101FD00020180008F8888888887000203F200003B7
:101FE0000C302008F800F800F8080000033E013E1D
:101FF0000300000000C038E0000000203C23020283
:10200000273820000808F8080800000020203F209A
:10201000200000180808F8080818000000203F20D9
:10202000000000C0300808083800000718202022EF
:102030001E020008F808080810E000203F202020B9
:10204000100F00007088080808380000382021218F
:10205000221C0008F830C00008F808203F200007C4
:10206000183F0000E010080810E000000F102020CA
:10207000100F0000001010F8000000000020203FAA
:10208000202000007008080808F0000030282422F2
:102090002130000030080808887000001820212135
:1020A000221C000000804030F800000006052424B7
:1020B0003F242400F8888888080800001920202080
:1020C000110E0000E0108888900000000F11202001
:1020D000201F0000180808886818000000003E0152
:1020E0000000000070880808887000001C22212170
:1020F000221C0000F008080810E000000112222253
:10210000110F0008F8888888700000203F202020E8
:10211000110E00C0300808080838000718202020D9
:10212000100800000000000000FF40404040404018
:102130000000004040404040407F40404040404020
:10214000404000020202020202FE02024282020239
:10215000020200000000000000FF00000000010675
:102160000000000808080888780F08080808080810
:1021700008080020104846414141417F414141410A
:1021800040400008080808C8380F08080808080870
:1021900008080008040201FF41414141414141FF5B
:1021A000000000000000000000000000000000002F
:1021B000000000000000000000000000000000001F
:1021C000000000000000000000000000000000000F
:1021D00000000000000000000000000000000000FF
:1021E00000000000000000000000000000000000EF
:1021F00000000000000000000000000000000000DF
:1022000000000000000000000000000000000000CE
:1022100000000000000000000000000000000000BE
:1022200000000000542300080000002018000000F7
:10223000280100086C23000818000020F0080000A6
:10224000440100081001000043000000F8FFFFFFF8
:1022500000404040404040404040414141414140B9
:10226000404040404040404040404040404040406E
:1022700040050202020202020202020202020202FD
:102280000220202020202020202020020202020202
:10229000020290909090909010101010101010105A
:1022A0001010101010101010101010100202020266
:1022B00002028888888888880808080808080808AA
:1022C00008080808080808080808080802020202A6
:1022D00040000000000000000000000000000000BE
:1022E00000000000000000000000000000000000EE
:1022F00000000000000000000000000000000000DE
:1023000000000000000000000000000000000000CD
:1023100000000000000000000000000000000000BD
:1023200000000000000000000000000000000000AD
:10233000000000000000000000000000000000009D
:10234000000000000000000000000000000000008D
:10235000000000000000000000000000010000007C
:0C236000100000000000000000127A00D5
:04000005080000ED02
:00000001FF
