:020000040800F2
:100000004809002099010008AF140008CB1300082C
:10001000AD140008570500081D1C00080000000072
:10002000000000000000000000000000CD170008E4
:100030005905000800000000CB170008211900082E
:10004000B3010008B3010008B3010008B3010008C0
:10005000B3010008B3010008B3010008B3010008B0
:10006000B3010008B3010008B3010008B3010008A0
:10007000B3010008B3010008B3010008B301000890
:10008000B3010008B3010008B3010008B301000880
:10009000B3010008B3010008B3010008B301000870
:1000A000B3010008B3010008B3010008B301000860
:1000B000B3010008B3010008B3010008B301000850
:1000C000B3010008B3010008B3010008B301000840
:1000D000B3010008051C0008111C0008B30100084A
:1000E000B3010008B3010008B301000800F002F8F2
:1000F00000F043F80AA090E8000C82448344AAF17F
:100100000107DA4501D100F038F8AFF2090EBAE87C
:100110000F0013F0010F18BFFB1A43F0010318473B
:10012000F820000018210000103A24BF78C878C1D8
:10013000FAD8520724BF30C830C144BF04680C60ED
:10014000704700000023002400250026103A28BF35
:1001500078C1FBD8520728BF30C148BF0B60704739
:100160001FB500F07FF904000020002101F0B0FE6F
:10017000401C60601FBD10B510BD00F077F911463E
:10018000FFF7EEFF01F07CFD00F095F903B4FFF7F7
:10019000F2FF03BC00F0D8F909488047094800473E
:1001A000FEE7FEE7FEE7FEE7FEE7FEE7FEE7FEE727
:1001B000FEE7FEE704480549054A064B7047000084
:1001C00083190008ED0000084803002048090020BA
:1001D000480500204805002010B5044600F036F917
:1001E0000068005DC00602D504F1200010BD204665
:1001F00010BD401ECAB210F8011F8A4202D0002969
:10020000F9D10020704730B505460B462A4613F851
:10021000014B12F8010B08B1A042F8D01CB1002824
:1002200002D06D1CF1E7284630BD40EA01030246CA
:1002300030B59B0710D14FF0013400E008C208C967
:100240001D1B9D4315EAC41FF8D013F0FF0102F8EF
:10025000011B0DD01B0AF8E711F8013B002B02F837
:10026000013B05D011F8013B002B02F8013BF3D113
:1002700030BD10B5431C02E010F8011B71B18107BD
:10028000FAD14FF0013202C88C1A8C4314EAC21121
:10029000F9D0C01A0A0603D0C01E10BDC01A10BD86
:1002A0000A0401D0801E10BD0902FCD0401E10BD02
:1002B00040EA010370B59B072ED14FF00136042AA6
:1002C0002AD308C810C99D1B9D43121F15EAC615E5
:1002D00017D0D8B2E1B2401A50EA056110D198B2F5
:1002E000A1B2401A50EA05410AD123F07F4024F020
:1002F0007F41401A50EA052102D1180EA0EB14608C
:1003000070BDA342DBD018BA21BA884201D90120BE
:1003100070BD4FF0FF3070BD0AB9002070BD10F8FD
:10032000013B11F8014B63B1A3420AD1521E08D020
:1003300010F8013B11F8014B1BB1A34201D1521E31
:10034000EDD1181B70BD421E12F8013F002BFBD1EE
:1003500011F8013B002B02F8013BF9D170474FF037
:1003600000020429C0F0128010F0030C00F01B8082
:10037000CCF1040CBCF1020F18BF00F8012BA8BF90
:1003800020F8022BA1EB0C0100F00DB85FEAC17C54
:1003900024BF00F8012B00F8012B48BF00F8012B07
:1003A00070474FF0000200B5134694469646203938
:1003B00022BFA0E80C50A0E80C50B1F12001BFF41E
:1003C000F7AF090728BFA0E80C5048BF0CC05DF884
:1003D00004EB890028BF40F8042B08BF704748BFD2
:1003E00020F8022B11F0804F18BF00F8012B704746
:1003F00010B5044610F0030F08BF11F0030F40F0D2
:1004000015804FF0013E121FC0F20E8051F8043BE0
:10041000A3EB0E0C2CEA030C1CEACE1C08BF40F820
:10042000043BF0D0A1F1040102F10402521E08DBEA
:1004300011F8013B002B00F8013BF7D11146FFF703
:100440008EFF204610BD70477047704710B500F012
:1004500009F8001D10BD00BF791A00000048704760
:10046000E802002000487047080300207546FFF7A7
:10047000F5FFAE4605006946534620F00700854665
:1004800018B020B5FFF796FEBDE820404FF00006FB
:100490004FF000074FF000084FF0000B21F007016C
:1004A000AC46ACE8C009ACE8C009ACE8C009ACE8AF
:1004B000C0098D46704710B50446AFF30080204652
:1004C000BDE81040FFF762BE4FF0013C50F8042B2E
:1004D00051F8043B9A4221D1A2EB0C03934313EA57
:1004E000CC1317D150F8042B51F8043B9A4215D184
:1004F000A2EB0C03934313EACC130BD150F8042B5B
:1005000051F8043B9A4209D1A2EB0C03934313EA3E
:10051000CC13DBD04FF00000704700BFD01A01BAF7
:10052000B1FA81F101F0180122FA01F0CB40C1F1DA
:100530002001DBB2C0B2C01A2CFA01F3D11A9143E8
:1005400011EAC311E6D1704701491820ABBEFEE79E
:10055000260002007047FEE7704772B6FEE710B54E
:1005600090F821100022022905D00421816380F82F
:100570002020012010BD01680B6823F00E030B60E2
:1005800001680B6823F001030B6090F84030C46BE6
:10059000012101FA03F3636080F8211080F8202024
:1005A000104610BD10B590F821100024022903D088
:1005B0000421816301243DE001680A6822F00E02F3
:1005C0000A6001680A6822F001020A601A4A01689A
:1005D000914201D1012121E0174A1432914201D107
:1005E00010211BE0144A2832914201D1891515E0EF
:1005F000114A3C32914201D189140FE00E4A503227
:10060000914202D14FF4803108E00B4A64329142AA
:1006100002D14FF4801101E04FF08071064A083A90
:100620005160012180F82110002180F82010416BD9
:1006300001B18847204610BD0800024070B504464D
:1006400000F004F90546601C02D004480078044418
:1006500000F0FCF8401BA042FAD370BD0800002057
:100660002DE9F84FDFF8B8910024A9F1040B2346D7
:100670000F2709F1040AABF1040EC9E00125A540DA
:100680002A40AA427DD1674ED1F804C0ACEB0608DF
:10069000B44532D014DCBCF1030F3AD009DCBCF114
:1006A000000F2AD0BCF1010F1CD0BCF1020F31D1D8
:1006B0001DE0BCF1110F17D0BCF1120F2AD119E0C7
:1006C000B8F5881F19D006DCB8F5803F15D0B8F50D
:1006D000801F1FD111E0B8F5001F0ED0B8F5041F20
:1006E00018D10AE0CB6815E0CB681B1D12E0CB687F
:1006F00008330FE0CB680C330CE08B682BB1012B77
:100700004FF0080303D0456104E0042302E00561D3
:1007100000E00023FF2A01D8064601E000F10406AC
:100720004FEA840501D9A5F12005D6F8008007FA23
:1007300005FC28EA0C0803FA05F548EA0508C6F89E
:1007400000804D68ED0062D5374DAE6946F0010678
:10075000AE61AD6924F0030605F001050095334D47
:1007600006EB050CDCF80850A607360F07FA06F86A
:1007700025EA0805DFF8B880404503D14FF00008AE
:1007800017E044E0DFF8AC80404502D14FF00108AB
:100790000FE0DFF8A480404502D14FF0020808E0E6
:1007A000DFF89880404502D14FF0030801E04FF098
:1007B000040808FA06F848EA0508CCF808804D68ED
:1007C000D9F80060ED024D4601D5164300E096438E
:1007D0002E604D68DAF80060AD02554601D516432B
:1007E00000E096432E604D68DBF80060AD035D4687
:1007F00001D5164300E096432E604D68DEF8006098
:10080000ED03754601D5164300E096432E60641C47
:100810000D682A46E5407FF431AFBDE8F88F00004F
:1008200008040140000011100010024000000140C7
:1008300000080140000C014000100140001401407C
:100840000AB1016170470904FBE7000001488068B4
:1008500070470000080000200248816802781144B7
:100860008160704708000020074810B5016841F01A
:1008700010010160032000F075F80F2000F006F869
:1008800000F024F8002010BD0020024070B50D4D8E
:1008900004464FF47A712878B1FBF0F00A490968F0
:1008A000B1FBF0F000F0DCFA48B9102C07D20022BE
:1008B0002146501E00F036F800206C6070BD01200B
:1008C00070BD000008000020140000200C4808B58E
:1008D000816941F001018161816901F001010091AB
:1008E000C16941F08051C161C06900F08050009041
:1008F0000448416821F0E06141F08061416008BD39
:100900000010024000000140002809DB00F01F0237
:10091000012191404009800000F1E020C0F8001161
:1009200070470000F0B40E4B1B680C46C3F3022363
:10093000C3F10705042D00D90425191D072901D28B
:10094000002300E0DB1E012606FA05F1491E2140C6
:1009500099409E40761E16403143F0BC01F05FB9CD
:100960000CED00E0064900F0070208684FF6FF03AF
:10097000184040EA0220034A104308607047000014
:100980000CED00E00000FA052DE9F0470F460500E8
:1009900061D0434E306800F00700B84209D2306899
:1009A00020F0070038433060306800F00700B8429C
:1009B00051D128683B4C810712D5400703D56068A8
:1009C00040F4E06060602878000703D5606840F478
:1009D000605060606068A96820F0F00008436060C3
:1009E0002878C00728D06868012810D0216802281C
:1009F00010D0890700292EDA616821F00301014334
:100A00006160FFF723FF804641F288390DE02168DD
:100A10008903EFE78901EDE7FFF718FFA0EB080175
:100A2000494502D90320BDE8F0876068696800F095
:100A30000C00B0EB810FEFD1306800F00700B84236
:100A40000BD9306820F0070038433060306800F080
:100A50000700B84201D00120E5E72878400705D516
:100A60006068E96820F4E060084360602878000767
:100A700006D56068296920F4605040EAC1006060D2
:100A800000F038F86168084AC1F30311515CC840AE
:100A90000649086006480068FFF7F8FE0020C2E734
:100AA00000200240001002400E1F00081400002029
:100AB0000C0000200448054900684968044AC1F355
:100AC0000221515CC8407047140000200010024011
:100AD0001E1F00080448054900684968044AC1F31C
:100AE000C221515CC8407047140000200010024031
:100AF0001E1F00080E4A51680E4801F00C03042B1B
:100B000011D0082B0FD10C48C1F38343C903C05C3B
:100B10000AD55168084AC1F34041921E515C054A0A
:100B20005043B0FBF1F07047044948437047000060
:100B30000010024000127A00FE1E000800093D006D
:100B40002DE9F84F040070D02078C04DC00749D07F
:100B50006868C0F38100012807D06868C0F381008D
:100B6000022809D16868C00306D52868800339D5F2
:100B700060680028E7D035E06068B0F5803F0BD0B2
:100B800010B1B0F5A02F11D0286820F48030286073
:100B9000286820F4802002E0286840F48030286033
:100BA000606890B1FFF752FE06460AE0286840F4FC
:100BB00080202860F0E700BFFFF748FE801B642814
:100BC00073D828688003F7D50CE0FFF73FFE064690
:100BD00005E000BFFFF73AFE801B6428F0D82868C4
:100BE0008003F7D420789A4E80074FF001094FF028
:100BF000000839D5686810F00C0F07D06868C0F39A
:100C00008100022809D16868C00306D428688007DB
:100C100014D52069012808D110E02069B0B1C6F8C8
:100C20000090FFF713FE074605E00AE1FFF70EFE0E
:100C3000C01B0228C4D828688007F7D528686169D6
:100C400020F0F80040EAC10028600DE0C6F80080FE
:100C5000FFF7FCFD074604E0FFF7F8FDC01B022884
:100C600023D828688007F7D4207800072CD5794846
:100C7000A169D9B1C0F80090FFF7E8FD074604E08C
:100C8000FFF7E4FDC01B02280FD8686A8007F7D57C
:100C900071484FF4FA510068B0FBF1F0009000BFCA
:100CA0000098411E0091FAD20EE080E0C0F800806A
:100CB000FFF7CCFD074604E0FFF7C8FDC01B022884
:100CC00075D8686A8007F7D42078400760D5E8694E
:100CD0000027C00008D4E86940F08050E861E86966
:100CE000012700F0805000905C480168C90513D4CA
:100CF0000168834641F480710160FFF7A7FD8246D9
:100D000006E000BFFFF7A2FDA0EB0A0064284ED862
:100D1000DBF80000C005F5D5E06801280AD008B16D
:100D2000052813D0286A20F001002862286A20F0E4
:100D3000040002E0286A40F001002862E06841F205
:100D4000883B98B1FFF782FD82460BE0286A40F0AD
:100D500004002862EEE700BFFFF778FDA0EB0A0170
:100D600059455AD8286A8007F6D50CE0FFF76EFD82
:100D7000824605E0FFF76AFDA0EB0A0159454CD811
:100D8000286A8007F6D41FB1E86920F08050E86136
:100D9000E06988B36968C1F38101022944D002285F
:100DA000C6F8608004D0FFF751FD044638E034E017
:100DB000FFF74CFD074604E0FFF748FDC01B022883
:100DC0002BD828688001F7D4206AB0F5803F05D180
:100DD0006868A16820F4003008436860D4E908011D
:100DE0000843696821F4741108436860C6F860908C
:100DF000FFF72CFD044606E025E000BFFFF726FDC7
:100E0000001B022809D828688001F7D51BE000BF25
:100E1000FFF71CFD001B022802D90320BDE8F88F54
:100E200028688001F4D40EE00128F7D06868226AAF
:100E300000F48031914204D1616A00F4701088425C
:100E400001D00120EAE70020E8E70000001002409E
:100E50000000424280044242140000200070004022
:100E600010B5401EB0F1807F01D3012010BD4FF0BE
:100E7000E02460610F21601700F0D1FE0020A06126
:100E800007202061002010BD70477047F8B5016849
:100E900004460868CA684B6910F00F0F4FF0000550
:100EA00059D003F0010602F49077374365D0C107AB
:100EB00005D0D10503D5616C41F0010161644107A2
:100EC00005D5D90703D0616C41F002016164810747
:100ED00005D5D90703D0616C41F0040161640107B5
:100EE00007D502F02001314303D0616C41F00801C5
:100EF0006164616C00293AD0800604D5900602D561
:100F0000204600F06EFD20684069616CC0F38010DF
:100F1000090700D460B3204600F03CFD206840691A
:100F2000400621D52068143050E8001F21F0400110
:100F300040E80012002AF5D1E06BA8B16D49416389
:100F4000E06BFFF72FFB002811D0E06B416B01B085
:100F5000BDE8F040084783060FD593060DD520461F
:100F6000BDE8F84000F03DBD2046FFF78EFFF8BD1C
:100F70002046FFF78AFF6564F8BD266B2023012E0B
:100F80007CD1C6067AD5D60678D508684868009020
:100F900048694FF00206400640D5E16B086840689A
:100FA0000004000CE8D0A28D8242E5D9E085886972
:100FB00020282DD020680C3050E8001F21F48071CB
:100FC00040E80012002AF5D12068143050E8001FD4
:100FD00021F0010140E80012002AF5D12068143008
:100FE00050E8001F21F0400140E80012002AF5D12E
:100FF00084F84230256320680C3050E8001F21F04F
:10100000100140E80012002AF5D1E06BFFF7A7FAC3
:101010006663A08DE18D401A81B22AE0A08DE18D3A
:10102000401A81B2E08D0028A6D00029A4D0226801
:101030000C3252E8000F20F4907042E80007002FB5
:10104000F5D12068143050E8002F22F0010240E86A
:101050000027002FF5D184F84230256320680C303A
:1010600050E8002F22F0100240E80023002BF5D1B9
:1010700066632046FFF708FFF8BDFFE705062BD59E
:10108000150629D594F841002128F5D1A068B0F5BE
:10109000805F01D12069B0B1206A411C21622168C2
:1010A00000784860E08C401E0004000CE084E3D12E
:1010B0002068C16821F08001C1602068C16841F0EA
:1010C0004001C160D8E7206A0088C0F3080048608A
:1010D000206A801C2062E5E74006CDD55006CBD5BE
:1010E000CA68204622F04002CA6084F8413000F00D
:1010F0006BF9C1E78519000870B5040004D094F8B5
:101100004100002510B106E0012070BD84F8405078
:10111000204600F023F8242084F841002068C168AC
:1011200021F40051C160204600F0BCFC2068016938
:1011300021F4904101612068416921F02A01416157
:101140002068C16841F40051C1606564202084F8C2
:10115000410084F842006563002070BD70B586B020
:10116000002400940194029403942E4E03682E49A7
:10117000022003222D4DB34226D18B6943F48043D4
:101180008B618B6903F4804304938B6943F0040300
:101190008B618969039201F0040104910102CDE998
:1011A000001069462846FFF75BFA2815CDE90004D0
:1011B000694628460294FFF753FA0022114625207B
:1011C000FFF7B0FB252028E0194EB34227D1CB69A9
:1011D00043F40033CB61CB6903F4003304938B6990
:1011E00043F004038B618969039201F004010491C7
:1011F0000421CDE9001069462846FFF731FA08209E
:10120000CDE90004694628460294FFF729FA002236
:1012100011462620FFF786FB2620FFF775FB06B058
:1012200070BD00000038014000100240000801407D
:101230000044004090F84230202B01D0022070473B
:1012400021B11AB10023036300F088BC012070476C
:101250002DE9F041074600682B4900252B4C4FF043
:101260000108884229D12A4EA0888915421C335C86
:1012700092B27D2B01D00A2B0BD0A280FF2A04D37F
:101280002348FFF76CF8A5802570A088311801224B
:1012900010E030441E4900F8025CFF2201F5807026
:1012A000FFF7A6F81B481A49012280F8FF5084F87E
:1012B0000080A5801848FFF7BDFF184938688842AC
:1012C0001FD1A178164A0D2908D00A2906D0E08836
:1012D0003F2811D21154401CE08005E0E08810B195
:1012E000155484F80180E580BDE8F04107490122EA
:1012F000891C0C48FFF79EBF40210948FFF72FF8D3
:10130000F1E7BDE8F0810000003801400000002056
:10131000180000201801002058020020004400405E
:1013200018020020A00200202DE9F843044690F89E
:101330004100984616460D46202802D00220BDE8FE
:10134000F88385B17EB100206064212084F84100DB
:10135000FFF77CFAA6848146E684A0682027B0F5D2
:10136000805F02D003E00120E9E7206910B12E463A
:1013700000250EE000260CE08021204600F009FC4C
:10138000A8B9C6B116F8010B21684860E08C401E70
:10139000E084E08C4B464FF00002CDF8008000283E
:1013A000EAD14FF04001204600F0F3FB40B184F851
:1013B00041700320C3E735F8020BC0F30800E3E7F0
:1013C00084F841700020BAE77047FEE710B586B098
:1013D000002000900190029003901648816941F02E
:1013E00010018161816901F010010491816941F06E
:1013F00020018161816901F020010491816941F03E
:101400000401816180690C4C00F004000490012209
:10141000C0212046FFF714FAC0200090112001904F
:10142000012002900320039069462046FFF718F937
:1014300006B010BD00100240000801400C4810B575
:101440000A4901604FF416514160002181600C226D
:10145000C160C0E904128161C161FFF74DFE00283F
:1014600003D0BDE81040FFF778B810BD0038014048
:10147000580200200C4810B50A4901604FF416517B
:101480004160002181600C22C160C0E904128161C9
:10149000C161FFF731FE002803D0BDE81040FFF71F
:1014A0005CB810BD00440040A0020020FEE7FEE74B
:1014B00010B500242146002000F06CF800F0B0F9CF
:1014C000782000F0F3F9402000F0F0F98021054881
:1014D00000F0DEF900F0C2F9641CE4B2082CE9D394
:1014E00010BD00009621000810B56420FFF7A6F893
:1014F000AE2000F059F9D52000F056F9802000F018
:1015000053F9A82000F050F93F2000F04DF9D32006
:1015100000F04AF9002000F047F9402000F044F9BB
:101520008D2000F041F9142000F03EF9202000F059
:101530003BF9022000F038F9A12000F035F9C8206D
:1015400000F032F9DA2000F02FF9122000F02CF927
:10155000812000F029F9CF2000F026F9D92000F0F1
:1015600023F9F12000F020F9DB2000F01DF94020E4
:1015700000F01AF9A42000F017F9A62000F014F9E1
:10158000FFF796FFAF2000F00FF9BDE810403220C2
:10159000FFF754B810B50446B031C8B200F004F9F2
:1015A000102040EA141000F0FFF804F00F00BDE82E
:1015B000104000F0F9B8000070B514460D4606461C
:1015C000FFF7E8FF00F02CF9782000F06FF94020D9
:1015D00000F06CF90F48082100EB0410044600F0FD
:1015E00057F900F03BF96D1CE9B23046FFF7D2FF26
:1015F00000F016F9782000F059F9402000F056F973
:1016000004F10800082100F043F9BDE8704000F043
:1016100025B90000261F000870B514460D46064681
:10162000FFF7B8FF00F0FCF8782000F03FF9402009
:1016300000F03CF90F48102100EB4410044600F084
:1016400027F900F00BF96D1CE9B23046FFF7A2FF55
:1016500000F0E6F8782000F029F9402000F026F9A3
:1016600004F11000102100F013F9BDE8704000F003
:10167000F5B800001621000870B515460E46044660
:101680008BE043285ED021DC352875D012DC312870
:1016900068D008DC20287DD02C283DD02E283DD0D5
:1016A000302879D15CE032285ED0332860D03428ED
:1016B00072D15FE036380D286ED2DFE800F05F614E
:1016C0006466276D6D6D6D6D6D3F4100522831D0A0
:1016D0000BDCA0F144000C285ED2DFE800F03B29CF
:1016E0005D395D355D275D5D3F25582810D006DCEE
:1016F000532831D0542829D057284DD11CE05928DF
:1017000008D07B280CD07D2846D10BE000223DE09C
:1017100001223BE0022239E0032237E0042235E0D7
:10172000052233E0062231E007222FE008222DE0D7
:1017300009222BE00A2229E00B2227E00C2225E0D7
:101740001D2223E01E2221E00D221FE00E221DE0BB
:101750000F221BE0102219E0112217E0122215E0DF
:10176000132213E0142211E015220FE004E011E02F
:1017700016220BE0172209E0182207E0192205E0E3
:101780001A2203E008E01B2200E01C22314620461A
:10179000FFF712FF0834E4B26D1C287800287FF4AC
:1017A00070AF70BDFFF768BF10B5044600F038F8A1
:1017B000782000F07BF8002000F078F8204600F058
:1017C00075F8BDE8104000F049B870477047002038
:1017D000401C0528FCD370470F4810B5816986B0BE
:1017E00041F00401816180690C4C00F00400049018
:1017F000C02000901120019003200390012002904E
:1018000069462046FEF72CFF0122C0212046FFF743
:1018100017F806B010BD000000100240000801409B
:1018200010B50D4C012280212046FFF709F8012256
:1018300040212046FFF704F8FFF7C9FF002280216E
:101840002046FEF7FDFFFFF7C2FF20460022BDE85D
:1018500010404021FEF7F4BF0008014010B50B4CCA
:10186000002280212046FEF7EBFF01224021204686
:10187000FEF7E6FFFFF7ABFF012280212046FEF7CF
:10188000DFFFBDE81040FFF7A2BF000000080140E5
:1018900070B50D460646002404E0305D00F006F801
:1018A000641CA4B2AC42F8D370BD000070B51B4EEE
:1018B00005460024280601D5012200E000228021EF
:1018C0003046FEF7BDFF6806050EFFF780FF0122D8
:1018D00040213046FEF7B4FFFFF779FF0022402198
:1018E0003046FEF7ADFF641CE4B2082CE2D3FFF7EC
:1018F0006EFF012280213046FEF7A2FFFFF767FF4F
:10190000012240213046FEF79BFFFFF760FF304683
:10191000BDE8704000224021FEF792BF0008014060
:10192000FEF79ABF30B58FB028216846FEF739FD23
:1019300014210AA8FEF735FD01210804CDE90010A5
:101940000024029402250491CDE907504FF4E010E1
:1019500009906846FFF7F4F808B172B6FEE70F2069
:10196000CDE90A054FF48060CDE90C4002210AA8B8
:101970000E94FFF709F8002801D072B6FEE70FB009
:1019800030BD704710B5406A0021C185C184FFF7A2
:101990007CFA10BD01680C3151E8002F22F49072DE
:1019A00041E80023002BF5D10168143151E8002FE4
:1019B00022F0010241E80023002BF5D1016B01293F
:1019C00009D101680C3151E8002F22F0100241E8E2
:1019D0000023002BF5D1202180F842100021016363
:1019E000704708B590F84210222901D0022008BDA6
:1019F00082684FF480539A4201D1016921B1816A12
:101A00009A421BD04AB10AE00268816A5268C2F366
:101A100008020A80816A891C08E0026972B10268C2
:101A2000526802F07F020A70816A491C8162C18D8E
:101A3000491E0904090CC18503D01BE002685268E5
:101A4000F1E70168CA6822F02002CA600168CA682A
:101A500022F48072CA6001684A6922F001024A6178
:101A6000202180F8421000214163026B012A03D03B
:101A7000FFF7EEFB002008BD016301680C3151E85F
:101A8000002F22F0100241E80023002BF5D101685D
:101A90000A68D20602D50A6849680091818DFFF76D
:101AA000F3F9E7E770B5044600680169E26821F4DC
:101AB0004051114301612169A068084361690843ED
:101AC0002168CA6841F20C639A430243CA602068E5
:101AD0004169A26921F44071114341611E492068A6
:101AE000884202D1FEF7F6FF01E0FEF7E3FF00EBCC
:101AF000C00101EB0012606864218000B2FBF0F3CA
:101B0000B3FBF1F36FF018067343B2FBF0F5B2FBD1
:101B1000F0F605EB8305322303EB0515B5FBF1F574
:101B2000B6FBF1F605F0F00505EB0615B2FBF0F695
:101B3000B2FBF0F0B0FBF1F06FF01802504306EB8F
:101B4000800003EB0010B0FBF1F0216800F00F0003
:101B50002844886070BD00000038014081628285A1
:101B6000C28500214164222180F84210016921B11F
:101B70000168CA6842F48072CA6001684A6942F02A
:101B800001024A610068C16841F02001C160002083
:101B900070472DE9F843984617460D460446089EBF
:101BA00024E0701C22D0FEF751FEA0EB0800B042EA
:101BB0001AD8CEB12068C168490717D5802D15D035
:101BC000402D13D00168C94309070FD401680025CF
:101BD000406800902046FFF7DDFE0820606484F82E
:101BE00040500120BDE8F8830320FBE7206800682F
:101BF00035EA000004D00020B842D2D00020F1E73E
:101C00000120F9E70148FFF741B900005802002020
:101C10000148FFF73BB90000A0020020FEE70907DA
:101C2000090E002804DB00F1E02080F80014704762
:101C300000F00F0000F1E02080F8141D70472DE93E
:101C4000F0411446FEF7DFFA0025B8B13A21FEF75D
:101C5000D0FA98B12221FEF7CCFA78B1401C0646A2
:101C60002221FEF7C6FA48B1871B3A463146204684
:101C7000FEF7BEFBE5556577BDE8F0812570FBE713
:101C80001FB5FEF7F1FDFFF74DFEFFF79FFBFFF7D6
:101C9000D5FBFFF7EFFBFFF79FFDFFF725FCFFF7F5
:101CA00007FC15A202210020FFF7E6FC15A20FCACF
:101CB0008DE80F006846FEF7DCFA82B232236946EF
:101CC0001448FFF731FB154C13480122A188014449
:101CD0001348FFF7AFFA0122A11C0E48FFF7AAFA3A
:101CE00000252078012802D1257000F01BF8322051
:101CF000FEF7A4FCF5E70000574149542044415445
:101D000041000000554152542052454144590D0AAA
:101D100000000000A00200201800002000000020A9
:101D20005802002000B5E1B0202140A8FEF739FBA1
:101D3000202148A8FEF735FB202150A8FEF731FBF3
:101D4000202158A8FEF72DFB72B6FF2229496846CC
:101D5000FEF74EFB00208DF8FF0062B640AA26A1D8
:101D60006846FFF76CFF48AA25A16846FFF767FFA2
:101D700050AA24A16846FFF762FF58AA23A168462B
:101D8000FFF75DFF40A800F045F848A800F042F8D2
:101D900050A800F03FF858A800F03CF8FFF788FB87
:101DA000002211461046FFF737FC48AA00211420F4
:101DB000FFF7F8FC012202210020FFF72DFC40AACA
:101DC00002211420FFF7EEFC022204210020FFF77D
:101DD00023FC50AA04211420FFF7E4FC032206216F
:101DE0000020FFF719FC58AA06211420FFF7DAFC9F
:101DF00061B000BD18010020446F776E0000000044
:101E0000557000004C6566740000000052696768F8
:101E1000740000002DE9F04399B0814620210EA8FE
:101E2000FEF7BFFA202106A8FEF7BBFA49460EA826
:101E3000FEF7FBF90EAC012501AE37E0641C2078FB
:101E40002028FBD010F0FF0F33D02C212046FEF7C6
:101E5000D0F907004FF0000803D097F80080002069
:101E600038701DB917A106A8FEF76DFA142101A854
:101E7000FEF797FA214601A8FEF7D7F9002503E0FF
:101E8000FEF7AAF970556D1C705D0028F8D1042288
:101E90000DA101A8FEF70CFA90B1214606A8FEF7A5
:101EA00052FA37B17C1C87F8008000252078002882
:101EB000C5D106A94846FEF7B8F919B0BDE8F083C8
:101EC000211DEBE72C000000676F6F64000000002D
:101ED00010B500290AD00878002807D005487844B2
:101EE000FEF7F2FA002801D0002010BD0248784425
:101EF00010BD00005A03000052030000010202035B
:101F00000405060708090A0B0C0D0E0F101000003F
:101F10000000000000000102030406070809000099
:101F2000000001020304000000C0C0000000000027
:101F300000303000000008186880806818082030E1
:101F40002C03032C30200838C800C83808000000D3
:101F5000203F200000000000000000000000009072
:101F600070000000000000000000000000000030D1
:101F70003000000000000000000000FC0202000031
:101F80000000013E40400202FC0000000000404012
:101F90003E0100000000E01008080810E0000F10EB
:101FA000202020100F0008F888C028180800203FC3
:101FB00020012638200008F88888E8081000203F13
:101FC00020202320180008F8888888887000203F87
:101FD0002000030C302008F800F800F80800000387
:101FE0003E013E0300000000C038E0000000203C3D
:101FF000230202273820000808F808080000002003
:10200000203F20200000180808F8080818000000E9
:10201000203F20000000C0300808083800000718E2
:102020002020221E020008F808080810E000203FC7
:10203000202020100F0000708808080838000038A1
:10204000202121221C0008F830C00008F808203F99
:10205000200007183F0000E010080810E000000F03
:10206000102020100F0000001010F80000000000E9
:1020700020203F202000007008080808F0000030F1
:102080002824222130000030080808887000001839
:10209000202121221C000000804030F800000006B2
:1020A0000524243F242400F88888880808000019A3
:1020B000202020110E0000E0108888900000000F02
:1020C000112020201F000018080888681800000050
:1020D000003E010000000070880808887000001CA5
:1020E000222121221C0000F008080810E000000155
:1020F000122222110F0008F8888888700000203F03
:10210000202020110E00C0300808080838000718E9
:10211000202020100800000000000000FF40404088
:102120004040400000004040404040407F40404030
:10213000404040404000020202020202FE0202420F
:10214000820202020200000000000000FF00000006
:102150000001060000000808080888780F08080831
:1021600008080808080020104846414141417F41C5
:1021700041414140400008080808C8380F080808D5
:1021800008080808080008040201FF4141414141D4
:102190004141FF00000000000000000000000000BE
:1021A000000000000000000000000000000000002F
:1021B000000000000000000000000000000000001F
:1021C000000000000000000000000000000000000F
:1021D00000000000000000000000000000000000FF
:1021E00000000000000000000000000000000000EF
:1021F00000000000000000000000000000000000DF
:1022000000000000000000000000000000000000CE
:10221000000000000000000048230008000000202B
:1022200018000000280100086023000818000020A2
:1022300030090000440100081001000043000000C4
:10224000F8FFFFFF004040404040404040404141D7
:10225000414141404040404040404040404040407B
:102260004040404040050202020202020202020215
:102270000202020202202020202020202020200212
:1022800002020202020290909090909010101010A2
:10229000101010101010101010101010101010103E
:1022A00002020202020288888888888808080808D2
:1022B000080808080808080808080808080808089E
:1022C00002020202400000000000000000000000C6
:1022D00000000000000000000000000000000000FE
:1022E00000000000000000000000000000000000EE
:1022F00000000000000000000000000000000000DE
:1023000000000000000000000000000000000000CD
:1023100000000000000000000000000000000000BD
:1023200000000000000000000000000000000000AD
:10233000000000000000000000000000000000009D
:10234000000000000000000000000000000000008D
:1023500001000000100000000000000000127A00E0
:04000005080000ED02
:00000001FF
