:020000040800F2
:1000000078070020A9010008012A0008D526000869
:1000100071280008CD0E000885330008000000009C
:100020000000000000000000000000009F2D0008FC
:10003000CF0E0008000000009D2D00089D2E000836
:10004000C3010008C3010008C3010008C301000880
:10005000C3010008C3010008C3010008C301000870
:10006000C3010008C3010008C3010008C301000860
:10007000C3010008C3010008C3010008C301000850
:10008000C3010008C3010008C3010008C301000840
:10009000C3010008C3010008C3010008C301000830
:1000A000C3010008C3010008C3010008C301000820
:1000B000C3010008C3010008C3010008C301000810
:1000C000C3010008C3010008C3010008C301000800
:1000D000C30100085D330008C3010008C301000824
:1000E000C3010008C3010008C301000800F002F8C2
:1000F00000F04BF80AA090E8000C82448344AAF177
:100100000107DA4501D100F040F8AFF2090EBAE874
:100110000F0013F0010F18BFFB1A43F0010318473B
:100120003037000050370000103A24BF78C878C13B
:10013000FAD8520724BF30C830C144BF04680C60ED
:10014000704700000023002400250026103A28BF35
:1001500078C1FBD8520728BF30C148BF0B60704739
:10016000642900F05580752900F052800020704706
:100170001FB500F01DFE04000020002103F0F6F979
:10018000401C60601FBD10B510BD00F0ECFD1146B5
:10019000FFF7EEFF03F008F900F01CFE03B4FFF7D1
:1001A000F2FF03BC00F020FE0948804709480047E1
:1001B000FEE7FEE7FEE7FEE7FEE7FEE7FEE7FEE717
:1001C000FEE7FEE704480549054A064B7047000074
:1001D000032F0008ED0000087801002078070020B8
:1001E00078030020780300200FB41CB5074B06AA43
:1001F0007B4469460090059800F0DDFA00206946CE
:1002000000F0ECFA1CBC5DF814FB0000E9050000EE
:100210002DE9F0410646002410687529314616A5DF
:1002200010D0AFF30080002802DA404213A507E0A7
:1002300031688A0701D512A502E0490704D511A546
:10024000012401E0AFF3008000210A2206F1240717
:1002500009E0B0FBF2FCB0FBF2F302FB1C00303013
:1002600078541846491C0028F3D123462A463046C4
:10027000BDE8F04100F040BA000000002D00000091
:100280002B000000200000002DE9F0410F4605463C
:10029000002028622846E968884770B3252805D0E1
:1002A000D5E901219047286A401CF2E7E968284611
:1002B000002688476C2804460AD0682C08D04C2CAD
:1002C00035D06A2C31D0742C31D07A2C2FD016E056
:1002D000E968064628468847B042044608D16C2E95
:1002E00023D04FF480662846E9688847044606E034
:1002F0006C2E03D04FF4807601E01EE04026E4B17E
:10030000A4F14100192802D8203446F400663A4688
:10031000214628462E60FFF723FF60B1012808D050
:10032000FF1D27F007070837B4E78026DBE7002624
:10033000D9E73F1DAEE72046B2E7286ABDE8F08165
:100340000FB400B58DB010A9099000910B904FF03B
:10035000FF300A9000200C9006487844069006482A
:1003600078446A4607900F9909A800F043FA0DB047
:100370005DF814FBB7040000CF0400002DE9FF5F17
:100380004FF000089946144646469169D2E901A704
:10039000DDF838B001988847054659EA0B0005D0CA
:1003A00009E0A1690198761C88470546216A28461C
:1003B00088470028F5D1681C03D05FEACA7005D0D1
:1003C00015E04FF0FF3004B0BDE8F09F2068011D3C
:1003D0002160D0F800800AE05FEACA7001D108F815
:1003E000015BA169761C01987F1E88470546002F96
:1003F0001ADD681C18D0B9F1000F0DD0E81705EB15
:10040000D060421120F01F0059F822102A1A012052
:1004100090400142E0D107E0BBF1000FDCD128465B
:10042000216A88470028D7D0E16901988847BBF145
:10043000000F07D1002E05DD5FEACA7002D100214E
:1004400088F80010A068B84203DDBBF1000F03D0AC
:1004500017B16FF00100B6E73046B4E770B5064655
:1004600000F046F90468054630460A22002100F0F3
:10047000F1F92C6070BD10B5431C02E010F8011BAF
:1004800071B18107FAD14FF0013202C88C1A8C4346
:1004900014EAC211F9D0C01A0A0603D0C01E10BD5A
:1004A000C01A10BD0A0401D0801E10BD0902FCD084
:1004B000401E10BD40EA010370B59B072ED14FF0DE
:1004C0000136042A2AD308C810C99D1B9D43121F58
:1004D00015EAC61517D0D8B2E1B2401A50EA056144
:1004E00010D198B2A1B2401A50EA05410AD123F0C6
:1004F0007F4024F07F41401A50EA052102D1180EB6
:10050000A0EB146070BDA342DBD018BA21BA8842B8
:1005100001D9012070BD4FF0FF3070BD0AB9002035
:1005200070BD10F8013B11F8014B63B1A3420AD131
:10053000521E08D010F8013B11F8014B1BB1A34229
:1005400001D1521EEDD1181B70BD032A40F230803C
:1005500010F0030C00F0158011F8013BBCF1020F04
:10056000624498BF11F801CB00F8013B38BF11F885
:10057000013BA2F1040298BF00F801CB38BF00F89C
:10058000013B11F0030300F09D81083AC0F00880A0
:1005900051F8043B083A51F804CBA0E80810F5E7FD
:1005A000121D5CBF51F8043B40F8043BAFF30080E0
:1005B000D20724BF11F8013B11F801CB48BF11F855
:1005C000012B24BF00F8013B00F801CB48BF00F825
:1005D000012B70474FF000020429C0F0128010F088
:1005E000030C00F01B80CCF1040CBCF1020F18BF0F
:1005F00000F8012BA8BF20F8022BA1EB0C0100F0A2
:100600000DB85FEAC17C24BF00F8012B00F8012B74
:1006100048BF00F8012B70474FF0000200B51346A9
:1006200094469646203922BFA0E80C50A0E80C5012
:10063000B1F12001BFF4F7AF090728BFA0E80C50C3
:1006400048BF0CC05DF804EB890028BF40F8042BBC
:1006500008BF704748BF20F8022B11F0804F18BF29
:1006600000F8012B704700004FF0013C50F8042BBC
:1006700051F8043B9A4221D1A2EB0C03934313EAB5
:10068000CC1317D150F8042B51F8043B9A4215D1E2
:10069000A2EB0C03934313EACC130BD150F8042BB9
:1006A00051F8043B9A4209D1A2EB0C03934313EA9D
:1006B000CC13DBD04FF00000704700BFD01A01BA56
:1006C000B1FA81F101F0180122FA01F0CB40C1F139
:1006D0002001DBB2C0B2C01A2CFA01F3D11A914347
:1006E00011EAC311E6D170477047704770470000A8
:1006F00000487047140100202DE9F0470D46994647
:100700009246044600F124080168880604D5E06991
:1007100021F01001216000E00120A84201DD471B0B
:1007200000E00027A1697A1902EB0900081AA0610C
:100730002078C00602D42046AFF30080002608E0EF
:10074000D4E901211AF806009047206A401C761C63
:1007500020624E45F4DB2078C0060AD52046AFF370
:10076000008006E0D4E9012130209047206A401C37
:100770002062381EA7F10107F4DC07E0D4E901216B
:1007800018F805009047206A401C2062281EA5F139
:100790000105F3DC2046AFF300802078000602D587
:1007A0000220BDE8F0870120FBE7000001694A1C38
:1007B00002610878704700B58FB0CDE901310021A2
:1007C000059105497944CDE9031011466846FFF7C4
:1007D0005BFD0FB000BD0000E5FFFFFF0A6802F8F7
:1007E000010B0A6070470000026811441378016031
:1007F00018467047D16005497944516104497944EC
:10080000116200211161114600F0A4B8EDFFFFFF55
:100810003F010000426842B1016811F8013B23B179
:10082000521EC0E90012184670470121C160881E9F
:10083000704742685AB1C368016843B983688B4204
:1008400005D0491E521CC0E90012002070474FF02D
:10085000FF3070472DE9F04791460F468046044629
:10086000002614F8015B2DB100F062F80068405DCD
:10087000C007F6D12B2D02D02D2D18D0641E4A466C
:100880003946204600F020FA27B13968A14201D14B
:10089000C7F800804FF0020471050BD540420028D4
:1008A00003DDFFF725FF0460A007BDE8F08746F4ED
:1008B0008066E4E70028F8DAFFF71AFF04606FF0BB
:1008C0000040F2E710B5203AC0F00B80B1E81850B4
:1008D000203AA0E81850B1E81850A0E81850BFF42A
:1008E000F5AF5FEA027C24BFB1E81850A0E81850C9
:1008F00044BF18C918C0BDE810405FEA827C24BF1D
:1009000051F8043B40F8043B08BF7047D20728BFAA
:1009100031F8023B48BF11F8012B28BF20F8023BF9
:1009200048BF00F8012B70470048704714010020B1
:1009300010B500F03DFA001D10BD00BF312C0000C5
:1009400010B50446FFF7F4FF0068005D00F00100F9
:1009500010BD00002DE9F34F4FF0000A0C4656463B
:100960008DB001200C9001F10C000B9062690B9886
:1009700001219047051E2DD0252D2CD0216A8847B6
:10098000C0B162690B9801219047216A884700280D
:10099000F7D16269411E0B98904700E0761CA1696F
:1009A0000D988847216A88470028F7D1E1690D989A
:1009B0008847DBE7A1690D988847A842074601D11F
:1009C000761CD3E7E1690D9888477F1C02D1BAF104
:1009D000000F6FD06CE162690B9800273D463946E5
:1009E00090472A2804D162690B980121904701257C
:1009F000DFF8D08262690B9801219047A0F13001A5
:100A00000A290AD24745E5DC07EB870100EB4107DD
:100A1000303FDFD445F01005ECE7E90601D46FF074
:100A200000476C280AD04C2814D0682815D06A28B2
:100A30000DD074281CD07A281AD01DE062690B985A
:100A4000012190476C2802D045F0040514E045F0E0
:100A500002050DE045F020050AE062690B980121CE
:100A60009047682802D045F0080505E045F4006588
:100A700062690B9801219047C4E9015765283DD070
:100A800019DC58287AD00CDC452837D004DC25281E
:100A900026D041289ED131E046282FD0472899D131
:100AA0002CE05B2877D0612828D063287CD064288C
:100AB00023D15AE0F7E06F2848D008DC66281DD023
:100AC00067281BD0692821D06E2816D127E070280E
:100AD00045D0732868D0752847D078280DD14DE0CF
:100AE000A1690D988847252805463FF469AFE1695B
:100AF0000D9888476D1C3FF46AAFD9E00D992346E5
:100B00006A466FF00100AFF30080C6E045F0400098
:100B100023464FF000026060A80736D43EE0E807A5
:100B20007FF447AF2068011D21600068290501D5C9
:100B300006701BE7290701D5068017E7A90703D52B
:100B4000F117C0E9006111E706600FE745F04000CA
:100B500023464FF008026060A80716D41EE040F656
:100B60000E0125EA0100606016E045F040002346D2
:100B70004FF00A026060A80707D40FE045F040007C
:100B80006060A80708D5234610220D996FF0010078
:100B9000AFF3008081E007E0102223460D996FF04B
:100BA0000100AFF3008078E04FF0000963284F4662
:100BB000C8464B46CB4602D05B2807D039E02079A7
:100BC000C00601D40120A060012732E06269D4F898
:100BD0000CB00B98012190475E2807D14FF0010916
:100BE00049466269D4F80CB00B989047216939B92D
:100BF00000210A4603AB43F82120491C0829FADBEF
:100C0000D8B3216949B308F1010862690B98012141
:100C100090475D28F4D1B9F1000F09D0002003A955
:100C200051F82020D24341F82020401C0828F7DB4F
:100C300003AB2069002820794FEA40701ED05B4644
:100C40002246CDF80080CDE901970D9900286FF07C
:100C5000010020DAAFF300801FE0C11703AA00EB08
:100C6000D1614B1121F01F0102EB8302411A13687D
:100C70000120884003431360C7E719E00D9922461D
:100C800000286FF00100009702DAAFF3008004E063
:100C9000FFF774FB01E0AFF3008000280ADA401C84
:100CA00006D10C9820B14FF0FF300FB0BDE8F08FA7
:100CB0005046FAE7E90701D10AF1010A064400208B
:100CC0000C9053E6CCCCCC0C2DE9F05F8246154657
:100CD0008B4600270AF10104B9460078302801D07C
:100CE0009DB113E014F8010B0127782803D0582890
:100CF00001D045B10AE00DB1102D07D1002714F83D
:100D0000010B102502E0082500E00A250026B04668
:100D10000EE005FB080005FB06F101271FFA80F82D
:100D200001EB1046B6F5803F00D3B94614F8010B2D
:100D3000294600F041F80028EBDABBF1000F05D09E
:100D40000FB1641E00E05446CBF80040B9F1000F2B
:100D500006D0FFF7CDFC02210160C81EBDE8F09F60
:100D600048EA0640FAE77546FFF7DEFDAE460500A5
:100D70006946534620F00700854618B020B5FFF7B6
:100D800021FABDE820404FF000064FF000074FF079
:100D900000084FF0000B21F00701AC46ACE8C00999
:100DA000ACE8C009ACE8C009ACE8C0098D467047A2
:100DB00000487047340100203A2800D2303820F033
:100DC0002002412A01D3A2F13700884201D34FF01B
:100DD000FF30704710B50446AFF300802046BDE8F1
:100DE0001040FFF7DBB9000001491820ABBEFEE759
:100DF000260002007047000070B504460068816854
:100E0000C943C90717D1816821F00101816000F051
:100E100017FC05460AE000BF00F012FC401B022848
:100E200004D920688068C043C00706D02068806865
:100E3000C043C007F0D0002070BDA06A40F0100091
:100E4000A062E06A40F00100E062012070BD000095
:100E5000F8B500260446009600688168C943C907B2
:100E60002DD0816841F00101816016481649006863
:100E7000B0FBF1F000E0401E00900028FBD100F034
:100E8000DFFB054616E000BF00F0DAFB401B02283E
:100E900010D920688068C043C0070BD0A06A40F01A
:100EA0001000A062E06A40F00100E06284F8246073
:100EB0000120F8BD20688068C043C007E4D100204D
:100EC000F8BD00001400002040420F00FEE770470C
:100ED00072B6FEE7F8B50024009490F82420254669
:100EE000012A12D0012280F824204A681F23072AF1
:100EF0000DD20668776B521E02EB820293409F432D
:100F00000B6893401F43776319E00220F8BD066821
:100F10000D2A0AD2376BD21F02EB820293409F4305
:100F20000B6893401F43376309E0F76A0D3A02EB01
:100F3000820293409F430B6893401F43F7620A6805
:100F4000072306680A2A0AD3F7680A3A02EB420224
:100F500093409F438B6893401F43F76008E03769D5
:100F600002EB420293409F438B6893401F433761DB
:100F70000A68102A01D0112A20D1124B02689A4225
:100F800017D193681B0219D4936843F4000393604C
:100F90000968102912D10C490C4A0968B1FBF2F119
:100FA00001EB8101490000E0491E00910029FBD1BD
:100FB00004E0816A41F020018162012480F824501C
:100FC0002046F8BD002401401400002040420F00DC
:100FD0000068C06C704700002DE9F0414FF0000739
:100FE00004003D467ED0A06A002628B9E66284F857
:100FF0002460204600F07EF82046FFF7FDFEA16A3F
:10100000C90600D420B1A06A40F01000A06269E0D7
:10101000A16A21F4885141F00201A1626268E1698C
:10102000237B0A4347EA43010A43A1684FF48077D0
:10103000B94209D0012907D05FF0000194F814C02B
:10104000BCF1010F02D00AE03946F7E7F3B1A36A19
:1010500043F02003A362E36A43F00103E3622368E1
:10106000D3F804C02CF4694C4CEA010CC3F804C05A
:1010700021688B68DFF870C003EA0C0313438B60B0
:10108000A168B9420BD0012909D00CE0DFF85CC09F
:10109000A3690CEB43330B4343F40061DFE7218A80
:1010A0000D05A5F580152168CB6A23F470032B4349
:1010B000CB62216889680E4B1940914208D1E662E3
:1010C000A16A21F0020141F00101A162BDE8F081B5
:1010D000A06A20F0020040F01000A062E06A40F038
:1010E0000100E0620120F1E7FDF7E1FF00E0FFFF12
:1010F000FE0E1FFF00B585B0002100910191029105
:10110000039100680E49884218D10E48816941F464
:1011100000718161816901F400710491816941F07C
:10112000040181618069694600F004000490462052
:10113000009003200190044800F088F905B000BD3C
:101140000024014000100240000801402DE9F8434E
:1011500000270D460446009700F072FA804620688A
:101160008168C90508D5A06A40F02000A06284F813
:1011700024700120BDE8F8834168C90503D4C06A22
:1011800010F4700F2AD0022000F0F8FA3B490968E9
:10119000B1FBF0F62068036939490B424FEA61015F
:1011A0004FEAA1121FD1C3684FEA611C13EA0C0F6A
:1011B00019D103690B4225D1C068104222D11420F5
:1011C00023E0681C0AD02DB100F03AFAA0EB080029
:1011D000A84203D920680068800725D520680068E8
:1011E0008007EED52DE003690B4202D1C1681142A0
:1011F00006D0026923490A4206D1C068084203D1D9
:10120000542002E0292000E0FC204643009816E02C
:10121000681C11D02DB100F013FAA0EB0800A84211
:101220000AD90098B04207D2A06A40F00400A06238
:1012300084F8247003209DE70098401C0090B04281
:10124000E6D321686FF012000860A06A40F40070D5
:10125000A06220688068C0F3424007280CD1207B40
:1012600050B9A06A20F48070A062A06AC00403D4C0
:10127000A06A40F00100A06200207BE7140000207B
:10128000244992244992240070B5044690F8240021
:1012900001280DD0012084F824002046FFF7D8FD56
:1012A00002004FF0000005D084F82400104670BD05
:1012B000022070BDA16A40F20123994341F480717C
:1012C000A1621F4D23681F49AB4218D10E6816F466
:1012D000702F14D0A66A46F48016A6620E687605B2
:1012E00005D5A66A26F4005646F48056A662A66A7C
:1012F000F6040AD5E66A26F00606E66206E0A66A65
:1013000026F48016A6625E68E9E7E06284F82400AD
:101310006FF00200186020688368C3F34243072B14
:1013200005D1A84208D1096811F4702F04D0816852
:1013300041F480118160B9E7816841F4A001F9E7C7
:10134000002801400424014010B590F8211000222B
:10135000022905D00421816380F82020012010BDDE
:1013600001680B6823F00E030B6001680B6823F023
:1013700001030B6090F84030C46B012101FA03F3C4
:10138000636080F8211080F82020104610BD000016
:1013900010B590F821100024022903D004218163A4
:1013A00001243DE001680A6822F00E020A6001682B
:1013B0000A6822F001020A601A4A0168914201D1CA
:1013C000012121E0174A1432914201D110211BE082
:1013D000144A2832914201D1891515E0114A3C3254
:1013E000914201D189140FE00E4A5032914202D14C
:1013F0004FF4803108E00B4A6432914202D14FF43D
:10140000801101E04FF08071064A083A51600121D5
:1014100080F82110002180F82010416B01B188472D
:10142000204610BD0800024070B5044600F008F9DF
:101430000546601C02D004480078044400F000F91E
:10144000401BA042FAD370BD080000202DE9F84FE0
:10145000DFF8B8910024A9F1040B23460F2709F106
:10146000040AABF1040EC9E00125A5402A40AA42B6
:101470007DD1674ED1F804C0ACEB0608B44532D03C
:1014800014DCBCF1030F3AD009DCBCF1000F2AD008
:10149000BCF1010F1CD0BCF1020F31D11DE0BCF139
:1014A000110F17D0BCF1120F2AD119E0B8F5881F1F
:1014B00019D006DCB8F5803F15D0B8F5801F1FD1D4
:1014C00011E0B8F5001F0ED0B8F5041F18D10AE0DE
:1014D000CB6815E0CB681B1D12E0CB6808330FE02A
:1014E000CB680C330CE08B682BB1012B4FF0080359
:1014F00003D0456104E0042302E0056100E000231D
:10150000FF2A01D8064601E000F104064FEA8405EF
:1015100001D9A5F12005D6F8008007FA05FC28EAD4
:101520000C0803FA05F548EA0508C6F800804D687E
:10153000ED0062D5374DAE6946F00106AE61AD698A
:1015400024F0030605F001050095334D06EB050C6C
:10155000DCF80850A607360F07FA06F825EA080552
:10156000DFF8B880404503D14FF0000817E044E0B1
:10157000DFF8AC80404502D14FF001080FE0DFF802
:10158000A480404502D14FF0020808E0DFF89880BF
:10159000404502D14FF0030801E04FF0040808FA7B
:1015A00006F848EA0508CCF808804D68D9F80060CC
:1015B000ED024D4601D5164300E096432E604D687E
:1015C000DAF80060AD02554601D5164300E09643B7
:1015D0002E604D68DBF80060AD035D4601D5164313
:1015E00000E096432E604D68DEF80060ED0375461E
:1015F00001D5164300E096432E60641C0D682A4610
:10160000E5407FF431AFBDE8F88F000008040140E9
:1016100000001110001002400000014000080140CD
:10162000000C014000100140001401408068084097
:1016300000D0012070470AB1016170470904FBE73F
:101640000148806870470000080000200248816857
:10165000027811448160704708000020074810B5E7
:10166000016841F010010160032000F075F80F20BF
:1016700000F006F800F024F8002010BD0020024021
:1016800070B50D4D04464FF47A712878B1FBF0F037
:101690000A490968B1FBF0F000F0A4FB48B9102C2E
:1016A00007D200222146501E00F036F800206C6060
:1016B00070BD012070BD0000080000201400002053
:1016C0000C4808B5816941F001018161816901F02F
:1016D00001010091C16941F08051C161C06900F010
:1016E000805000900448416821F0E06141F0806141
:1016F000416008BD0010024000000140002809DBE5
:1017000000F01F02012191404009800000F1E0201B
:10171000C0F8001170470000F0B40E4B1B680C4677
:10172000C3F30223C3F10705042D00D90425191DB5
:10173000072901D2002300E0DB1E012606FA05F18D
:10174000491E214099409E40761E16403143F0BC10
:1017500001F019BE0CED00E0064900F00702086830
:101760004FF6FF03184040EA0220034A1043086086
:10177000704700000CED00E00000FA0510B50146CE
:101780000020234C012922D0022939D010291DD153
:1017900061682268D20119D51E48C1F38342C9038A
:1017A000805C0AD561681B4AC1F34041921E515CBE
:1017B000194AB2FBF1F1484301E018494843616816
:1017C000490203D440000321B0FBF1F010BD226AAE
:1017D000C2F30121012903D1920701D5C80310BD2D
:1017E000022905D1626A920702D549F6404010BD30
:1017F0000329FCD121688903F9D54FF2244010BD9B
:1018000000F02AF96168C1F38131491C4900DBE726
:1018100000100240EB35000800127A0000093D007C
:101820002DE9F84305460078354CC00754D0E069EF
:101830000026C00008D4E06940F08050E061E06913
:10184000012600F0805000902E480168C90512D48E
:101850000168804641F480710160FFF7F1FE0746A0
:1018600005E000BFFFF7ECFEC01B642823D8D8F8C2
:101870000000C005F6D5206A10F4407021D0A98878
:1018800001F4407181421CD0206A1F49012220F4DA
:1018900040700A6000220A602062C00711D0FFF782
:1018A000CFFE074641F2883808E000BFFFF7C8FEC8
:1018B000C11B414502D90320BDE8F883206A800797
:1018C000F4D5206A696820F44070084320621EB194
:1018D000E06920F08050E0612878800705D56068D5
:1018E000A96820F44040084360602878C00605D508
:1018F0006068E96820F48000084360600020DBE74E
:101900000010024000700040400442422DE9F047C0
:101910000F46050061D0434E306800F00700B84222
:1019200009D2306820F0070038433060306800F09A
:101930000700B84251D128683B4C810712D54007B7
:1019400003D5606840F4E06060602878000703D544
:10195000606840F4605060606068A96820F0F00042
:10196000084360602878C00728D06868012810D034
:101970002168022810D0890700292EDA616821F039
:10198000030101436160FFF75BFE804641F2883945
:101990000DE021688903EFE78901EDE7FFF750FECD
:1019A000A0EB0801494502D90320BDE8F087606833
:1019B000696800F00C00B0EB810FEFD1306800F0E7
:1019C0000700B8420BD9306820F007003843306078
:1019D000306800F00700B84201D00120E5E7287820
:1019E000400705D56068E96820F4E060084360605E
:1019F0002878000706D56068296920F4605040EA1D
:101A0000C100606000F038F86168084AC1F3031152
:101A1000515CC8400649086006480068FFF730FE80
:101A20000020C2E70020024000100240FB35000801
:101A3000140000200C000020044805490068496893
:101A4000044AC1F30221515CC840704714000020D1
:101A5000001002400B360008044805490068496838
:101A6000044AC1F3C221515CC840704714000020F1
:101A7000001002400B3600080E4A51680E4801F073
:101A80000C03042B11D0082B0FD10C48C1F3834356
:101A9000C903C05C0AD55168084AC1F34041921E8F
:101AA000515C054A5043B0FBF1F07047044948438C
:101AB000704700000010024000127A00D93500087B
:101AC00000093D002DE9F84F040070D02078C04D8A
:101AD000C00749D06868C0F38100012807D0686852
:101AE000C0F38100022809D16868C00306D52868C0
:101AF000800339D560680028E7D035E06068B0F52C
:101B0000803F0BD010B1B0F5A02F11D0286820F481
:101B100080302860286820F4802002E0286840F4A3
:101B200080302860606890B1FFF78AFD06460AE0C1
:101B3000286840F480202860F0E700BFFFF780FDB0
:101B4000801B642873D828688003F7D50CE0FFF762
:101B500077FD064605E000BFFFF772FD801B642895
:101B6000F0D828688003F7D420789A4E80074FF089
:101B700001094FF0000839D5686810F00C0F07D044
:101B80006868C0F38100022809D16868C00306D4E0
:101B90002868800714D52069012808D110E0206941
:101BA000B0B1C6F80090FFF74BFD074605E00AE12B
:101BB000FFF746FDC01B0228C4D828688007F7D568
:101BC0002868616920F0F80040EAC10028600DE053
:101BD000C6F80080FFF734FD074604E0FFF730FD4C
:101BE000C01B022823D828688007F7D42078000774
:101BF0002CD57948A169D9B1C0F80090FFF720FD34
:101C0000074604E0FFF71CFDC01B02280FD8686AD6
:101C10008007F7D571484FF4FA510068B0FBF1F036
:101C2000009000BF0098411E0091FAD20EE080E0C3
:101C3000C0F80080FFF704FD074604E0FFF700FD51
:101C4000C01B022875D8686A8007F7D4207840073F
:101C500060D5E8690027C00008D4E86940F08050EA
:101C6000E861E869012700F0805000905C48016855
:101C7000C90513D40168834641F480710160FFF700
:101C8000DFFC824606E000BFFFF7DAFCA0EB0A00AB
:101C900064284ED8DBF80000C005F5D5E0680128BF
:101CA0000AD008B1052813D0286A20F00100286264
:101CB000286A20F0040002E0286A40F0010028624F
:101CC000E06841F2883B98B1FFF7BAFC82460BE02E
:101CD000286A40F004002862EEE700BFFFF7B0FC7E
:101CE000A0EB0A0159455AD8286A8007F6D50CE0BE
:101CF000FFF7A6FC824605E0FFF7A2FCA0EB0A0175
:101D000059454CD8286A8007F6D41FB1E86920F0FD
:101D10008050E861E06988B36968C1F381010229F4
:101D200044D00228C6F8608004D0FFF789FC04463E
:101D300038E034E0FFF784FC074604E0FFF780FC5E
:101D4000C01B02282BD828688001F7D4206AB0F580
:101D5000803F05D16868A16820F4003008436860BE
:101D6000D4E908010843696821F4741108436860E4
:101D7000C6F86090FFF764FC044606E025E000BF6B
:101D8000FFF75EFC001B022809D828688001F7D500
:101D90001BE000BFFFF754FC001B022802D9032000
:101DA000BDE8F88F28688001F4D40EE00128F7D050
:101DB0006868226A00F48031914204D1616A00F4BB
:101DC0007010884201D00120EAE70020E8E7000017
:101DD00000100240000042428004424214000020F1
:101DE0000070004010B5401EB0F1807F01D301208B
:101DF00010BD4FF0E02460610F21601701F0C3FABD
:101E00000020A06107202061002010BD70B590F86F
:101E10003C20012A26D0012480F83C40022280F890
:101E20003D2003685A689D6822F070060A683243B4
:101E30005A600D4B02689A4208D0B2F1804F05D02B
:101E40000A4B9A4202D00A4B9A4204D1496825F0C3
:101E500080031943916080F83D40002180F83C10D8
:101E6000084670BD022070BD002C014000040040F7
:101E70000008004000B585B0002100910191029159
:101E800003910068B0F1804F11D10A48816941F097
:101E9000040181618069694600F00400049001201A
:101EA00000900220019003900348FFF7CFFA05B09D
:101EB00000BD0000001002400008014070B504465B
:101EC00090F83C0000260D4601280FD0012084F830
:101ED0003C006AB1042A1DD0082A2FD00C2A3FD01A
:101EE0000126002084F83C00304670BD022070BD01
:101EF000206801F051F82068816941F00801816192
:101F00002068816921F004018161206881692A6962
:101F1000114311E0206801F067F82068816941F4FD
:101F2000006181612068816921F48061816120689C
:101F300081692A6941EA02218161D2E7206801F0C2
:101F40007FF82068C16941F00801C1612068C1695A
:101F500021F00401C1612068C1692A69114311E0BF
:101F6000206801F099F82068C16941F40061C161FD
:101F70002068C16921F48061C1612068C1692A6952
:101F800041EA0221C161ACE710B5040003D094F826
:101F90003D0010B107E0012010BD002084F83C0096
:101FA000204600F01FF8022084F83D00211D206823
:101FB00000F0A8FF012084F8460084F83E0084F871
:101FC0003F0084F8400084F8410084F8420084F81F
:101FD000430084F8440084F8450084F83D00002064
:101FE00010BD000008B50068B0F1804F08D1054869
:101FF000C16941F00101C161C06900F001000090B8
:1020000008BD00000010024010B50446022249B18C
:1020100004290ED0082913D094F84100012816D0C5
:10202000012010BD94F83E000128F9D184F83E202B
:102030000FE094F83F000128F2D184F83F2008E037
:1020400094F840000128EBD184F8402001E084F8A6
:1020500041200122206800F091FF0F49206888424A
:1020600003D1426C42F4004242642068884208D0A6
:10207000B0F1804F05D00949884202D00849884212
:1020800004D1816801F00701062903D0016841F0FD
:1020900001010160002010BD002C0140000400403F
:1020A0000008004030B504460D460068002200F0EC
:1020B00065FF174B41F2111120688A10984209D12F
:1020C000036A0B4206D1036A134203D1436C23F423
:1020D000004343642068036A0B4206D1016A11423F
:1020E00003D1016821F00101016001203DB1042DFF
:1020F00008D0082D09D084F84100002030BD84F8B4
:102100003E00FAE784F83F00F7E784F84000F4E780
:10211000002C014070477047F8B501680446086814
:10212000CA684B6910F00F0F4FF0000559D003F04B
:10213000010602F49077374365D0C10705D0D10579
:1021400003D5616C41F001016164410705D5D907F0
:1021500003D0616C41F002016164810705D5D907A4
:1021600003D0616C41F004016164010707D502F0FE
:102170002001314303D0616C41F008016164616C5E
:1021800000293AD0800604D5900602D5204600F0FA
:10219000D4FF20684069616CC0F38010090700D447
:1021A00060B3204600F0A2FF20684069400621D5B8
:1021B0002068143050E8001F21F0400140E8001270
:1021C000002AF5D1E06BA8B16D494163E06BFFF7E0
:1021D000DFF8002811D0E06B416B01B0BDE8F040A2
:1021E000084783060FD593060DD52046BDE8F84075
:1021F00000F0A3BF2046FFF78EFFF8BD2046FFF793
:102200008AFF6564F8BD266B2023012E7CD1C606AB
:102210007AD5D60678D508684868009048694FF0A6
:102220000206400640D5E16B086840680004000CD7
:10223000E8D0A28D8242E5D9E085886920282DD09A
:1022400020680C3050E8001F21F4807140E8001233
:10225000002AF5D12068143050E8001F21F0010158
:1022600040E80012002AF5D12068143050E8001F21
:1022700021F0400140E80012002AF5D184F84230F4
:10228000256320680C3050E8001F21F0100140E861
:102290000012002AF5D1E06BFFF756F86663A08DB7
:1022A000E18D401A81B22AE0A08DE18D401A81B201
:1022B000E08D0028A6D00029A4D022680C3252E874
:1022C000000F20F4907042E80007002FF5D120683D
:1022D000143050E8002F22F0010240E80027002FC0
:1022E000F5D184F84230256320680C3050E8002F87
:1022F00022F0100240E80023002BF5D1666320464F
:10230000FFF708FFF8BDFFE705062BD5150629D511
:1023100094F841002128F5D1A068B0F5805F01D183
:102320002069B0B1206A411C2162216800784860B0
:10233000E08C401E0004000CE084E3D12068C168FA
:1023400021F08001C1602068C16841F04001C16096
:10235000D8E7206A0088C0F308004860206A801C23
:102360002062E5E74006CDD55006CBD5CA682046A9
:1023700022F04002CA6084F8413000F0FDF8C1E765
:10238000DD30000870B5040004D094F84100002549
:1023900010B106E0012070BD84F84050204600F0E6
:1023A00023F8242084F841002068C16821F40051FA
:1023B000C160204600F022FF2068016921F49041AD
:1023C00001612068416921F02A0141612068C168EA
:1023D00041F40051C1606564202084F8410084F814
:1023E00042006563002070BD30B585B000240094C4
:1023F0000194029403940068184988422CD118482B
:10240000816941F480418161816901F480410491D5
:10241000816941F0040181618069124D00F004007E
:1024200004904FF40070009002200190032003906C
:1024300069462846FFF70AF82815CDE900046946E1
:1024400028460294FFF702F8002211462520FFF7E4
:1024500063F92520FFF752F905B030BD003801407F
:10246000001002400008014090F84230202B01D0BB
:102470000220704721B11AB10023036300F01ABF94
:10248000012070470068104988421BD10F48104B4B
:10249000C2780D2A0DD00A2A0BD04178312902D2F8
:1024A0005A54491C417009490122C91C0948FFF7C7
:1024B000DBBF41780029F6D000225A5401218170F7
:1024C0004270F0E770470000003801400000002033
:1024D00020000020CC0000202DE9F843044690F8AD
:1024E0004100984616460D46202802D00220BDE83D
:1024F000F88385B17EB100206064212084F841001A
:10250000FFF79EF8A6848146E684A0682027B0F5F0
:10251000805F02D003E00120E9E7206910B12E4678
:1025200000250EE000260CE08021204600F0DDFEB4
:10253000A8B9C6B116F8010B21684860E08C401EAE
:10254000E084E08C4B464FF00002CDF8008000287C
:10255000EAD14FF04001204600F0C7FE40B184F8B8
:1025600041700320C3E735F8020BC0F30800E3E72E
:1025700084F841700020BAE77047000070B588B059
:10258000044606223AA1FDF795FF002849D0032210
:1025900039A12046FDF78EFF002842D0062237A140
:1025A0002046FDF787FF00283BD0072235A12046B3
:1025B000FDF780FF002834D021787B2931D0012617
:1025C000324D46291CD066291AD052292BD07229A7
:1025D00029D02FA12046FEF747F800283BD02EA196
:1025E0002046FEF741F888B32DA12046FEF73CF8BF
:1025F00068B32CA12046FEF737F840B32A480EE016
:10260000601CFDF72BFF0446401E092820D82E70C1
:10261000E1B2012000F08EF9224624A111E000F081
:10262000A3FE08B070BD601CFDF718FF0446401EF5
:1026300009280DD82E70E1B2022000F07BF9224665
:102640001FA16846FDF7D0FD6846E8E703E00AE011
:1026500015482D38E3E700212E70084600F06AF98E
:1026600011481A38DBE7002028700F480F38D6E7EA
:1026700053706565643A00004F4B3A004572726FC3
:10268000723A0000556E6B6E6F776E00000000208E
:1026900053544F500000000073746F70000000002E
:1026A0004144430061646300C53500084F4B3A2044
:1026B00046574420256420476561720D0A000000DA
:1026C0004F4B3A2052455620256420476561720DD4
:1026D0000A000000FEE708B56420009001E000BF9A
:1026E0000846411E0091FAD208BD00003EB5002404
:1026F00011480094019402940E49846001600473AF
:102700000475012505614FF460214460C161FEF745
:1027100063FC08B1FEF7DCFB0620CDE90005694645
:1027200002940548FEF7D6FB002801D0FEF7D0FB47
:102730003EBD00000024014054000020F0B585B0EB
:1027400000241F480094019402940394816941F08D
:1027500010018161816901F010010491816941F0EA
:1027600020018161816901F020010491816941F0BA
:10277000040181618069134F00F00400049001227C
:1027800018213846FEF757FF002206213846FEF78B
:1027900052FF1820009001AA11200125032682E88B
:1027A000610069463846FEF751FE0620CDE9000576
:1027B000CDE9024669463846FEF748FE05B0F0BD51
:1027C000001002400008014010B58AB000240794B0
:1027D0001C2168460894FDF71FFF16484FF0804102
:1027E000016041F61F41C0E901146321C0E90314EF
:1027F0008461FFF7C9FB08B1FEF76AFB079407A9DC
:102800000C480894FFF702FB08B1FEF761FB60205B
:10281000CDE9000402940022694606480494FFF7BB
:102820004DFB08B1FEF754FB0248FFF723FB0AB04B
:1028300010BD0000840000200C4810B50A4901605A
:102840004FF416514160002181600C22C160C0E943
:1028500004128161C161FFF795FD002803D0BDE836
:102860001040FEF735BB10BD00380140CC00002001
:10287000FEE7000010B50D4C012804D002284FF0EF
:1028800000020CD000E0012202212046FEF7D3FE18
:1028900000222046BDE810400421FEF7CCBE0221F4
:1028A0002046FEF7C8FE0122F3E7000000080140C1
:1028B0000148007870470000180000200148807827
:1028C0007047000018000020014840787047000061
:1028D0001800002030B585B00024134800940194FE
:1028E00002940394816941F00401816180690F4D74
:1028F00000F004000490224606212846FEF79BFEC5
:10290000062000900120CDE90104032003906946D0
:102910002846FEF79BFD0648047044708470C4701E
:102920000471447105B030BD001002400008014040
:10293000180000200A2900D90A21024AD07011711A
:10294000704700001800002070B52B4CE07820B1D3
:10295000207910B16079C0B11DE06078002580B1A8
:10296000052801D9401F00E0002010F0FF00607032
:102970003DD10020FFF77EFF00F0FCF92570A57027
:1029800070BD20780028F4D170BD00211B48FFF7EE
:102990003BFB01206071E078217888420FD079B14B
:1029A000617839B1052901D9491F00E00021C8B279
:1029B00060701CE0FFF75EFFE078207070BD19B911
:1029C000FFF758FFE078207061782079814206D2C5
:1029D00001F10501C9B26170814206D806E005D94E
:1029E000491FC9B26170814200D260706078BDE851
:1029F000704000F0A9B900001800002084000020F9
:102A0000FEE770B5002404F1B000C0B2002100F070
:102A10007FF90021084600F07BF90021102000F02A
:102A200077F900250121002000F072F96D1CEDB24C
:102A3000802DF7D3641CE4B2082CE4D370BD10B52C
:102A40006420FEF7F1FC0021AE2000F061F90021C6
:102A5000202000F05DF90021102000F059F900213C
:102A6000B02000F055F90021C82000F051F90021F4
:102A7000084600F04DF90021102000F049F900212E
:102A8000402000F045F90021812000F041F90021AB
:102A9000FF2000F03DF90021A12000F039F90021CC
:102AA000A62000F035F90021A82000F031F900211E
:102AB0003F2000F02DF90021A42000F029F9002189
:102AC000D32000F025F90021084600F021F900216B
:102AD000D52000F01DF90021F02000F019F90021A7
:102AE000D92000F015F90021222000F011F9002171
:102AF000DA2000F00DF90021122000F009F9002180
:102B0000DB2000F005F90021202000F001F9002170
:102B10008D2000F0FDF80021142000F0F9F80021CC
:102B2000AF2000F0F5F8BDE81040FFF76ABF0000E5
:102B300010B5002131A2084600F0DAF8304C2078B8
:102B4000002854D02FA200210C2000F0D1F82FA291
:102B50000021242000F0CCF8FFF7AAFE012848D07D
:102B6000FFF7A6FE022846D029A20021302000F05F
:102B7000BFF828A20221002000F0BAF8FFF7A4FE57
:102B80000246022319460C2000F08EF822A20221F0
:102B9000182000F0ADF8FFF791FE02460323022152
:102BA0003C2000F081F81EA202214E2000F0A0F887
:102BB0001CA20421002000F09BF8FFF785FE0246CE
:102BC000022304211E2000F06FF818A204212A20FD
:102BD00000F08EF816A20621002000F089F8626845
:102BE00004230621BDE81040182000F05DB812A2B1
:102BF000A9E713A2B9E713A2B7E700004D3A000016
:102C0000000000205541525400000000443A0000EA
:102C100053545000473A00002F313020533A0000FF
:102C200025000000476561723A0000002F31300036
:102C30004144433A000000004144432000000000AA
:102C4000465744005245560070B5A2F12003602B50
:102C500000D32022203AD5B27F2802D90020491C77
:102C6000C9B20446B031C8B2002100F051F804F0F6
:102C70000F00002100F04CF8102101EB141000218E
:102C800000F046F8074905EB4500002401EB40053C
:102C90000121285D00F03CF8641CE4B2062CF7D357
:102CA00070BD0000133600082DE9FF410F460546B0
:102CB0001E460EA16846FDF797FA6846FDF7DBFB56
:102CC000C0B20024361A08E0202239462846FFF711
:102CD000BBFFAD1D641CEDB2E4B2A642F4DC6A4653
:102CE0003946284600F004F8BDE8FF81256C7500E0
:102CF00070B514460E46054606E031462846FFF7F5
:102D0000A3FFAD1DEDB2641C2278002AF5D170BD81
:102D100070B50C46054600F069F8782000F040F8E0
:102D200000F09CF80CB1402000E0002000F038F8E2
:102D300000F094F8284600F033F800F08FF8BDE872
:102D4000704000F071B8000000EB800007494006B9
:102D5000000E887000EB401000EB40006421B0FBD7
:102D6000F1F003490968486370470000180000202B
:102D70008400002070B5074C6079002808D0064810
:102D800000250068456329460348FFF78BF9657104
:102D900070BD0000180000208400002070477047BC
:102DA00070B5114E05460024280601D5012200E029
:102DB000002210213046FEF73EFC6806050EFFF7A4
:102DC0008AFC012208213046FEF735FCFFF783FC20
:102DD000002208213046FEF72EFCFFF77CFC641C25
:102DE000E4B2082CE0D370BD0008014010B50D4CD2
:102DF000012210212046FEF71EFC01220821204658
:102E0000FEF719FCFFF767FC002210212046FEF7B1
:102E100012FCFFF760FC20460022BDE810400821AC
:102E2000FEF709BC0008014010B50B4C0022102130
:102E30002046FEF700FC012208212046FEF7FBFB9E
:102E4000FFF749FC012210212046FEF7F4FBBDE804
:102E50001040FFF740BC00000008014070B50E4D67
:102E6000012210212846FEF7E6FBFFF734FC012281
:102E700008212846FEF7DFFBFFF72DFC102128462E
:102E8000FEF7D4FB0446002208212846FEF7D3FBB8
:102E9000FFF721FC204670BD00080140FEF7D6BBBD
:102EA00030B593B028216846FDF7B6FB14210AA877
:102EB000FDF7B2FB002401200F941094119401043B
:102EC00012948DE8130004904FF4E010CDE908103F
:102ED000022507956846FEF7F5FD0F20CDE90A05A6
:102EE0006802CDE90C4002210AA80E94FEF70EFDFF
:102EF0004FF4404011900F950FA8FEF791FC13B0CE
:102F000030BD7047F0B50268194B1A4C1A4D4FF09E
:102F10008047984205D0B84203D0A04201D0A842D1
:102F200003D122F070064A683243984205D0B84275
:102F300003D0A04201D0A84203D122F44074CA6851
:102F400022434C6922F08002224302608A68C262F6
:102F50000A688262984201D10969016301214161D5
:102F60000169C90703D0016921F001010161F0BDC8
:102F7000002C0140000400400008004010B501F0A2
:102F80001F030121046A99408C430462016A9A403C
:102F90001143016210BD000030B5036A026A22F0DD
:102FA000010202624268846924F073050C682C43B4
:102FB00023F002058B682B430A4DA8420BD123F066
:102FC0000805CB6822F440722B434D6923F00403BB
:102FD00015438A692A4342608461496841630362F8
:102FE00030BD0000002C014030B5026A036A23F0B6
:102FF00010030362436884690D6824F4E64444EADC
:1030000005248D6822F0200242EA05120B4DA842E9
:103010000ED1CD6822F0800242EA05124D6923F4F8
:10302000406343EA85038D6922F0400243EA850349
:103030004360846149688163026230BD002C0140B5
:1030400030B5036A026A22F4807202624268C4697F
:1030500023F4007324F073050C682C438D6843EA55
:1030600005230C4DA8420ED1CD6823F4006343EA3A
:1030700005234D6922F4405242EA05128D6923F47A
:10308000806342EA05124260C4614968C163036219
:1030900030BD0000002C014030B5046A026A22F401
:1030A000805202624268C3690D6823F4E64343EA32
:1030B00005238D6824F4005444EA0534064DA842E3
:1030C00004D14D6922F4804242EA85124260C36114
:1030D00049680164046230BD002C014010B5406AAB
:1030E0000021C185C184FFF716F810BD01680C31BD
:1030F00051E8002F22F4907241E80023002BF5D113
:103100000168143151E8002F22F0010241E8002348
:10311000002BF5D1016B012909D101680C3151E86F
:10312000002F22F0100241E80023002BF5D12021CE
:1031300080F8421000210163704708B590F84210F2
:10314000222901D0022008BD82684FF480539A42A0
:1031500001D1016921B1816A9A421BD04AB10AE0CA
:103160000268816A5268C2F308020A80816A891C77
:1031700008E0026972B10268526802F07F020A70C8
:10318000816A491C8162C18D491E0904090CC185EF
:1031900003D01BE002685268F1E70168CA6822F0B8
:1031A0002002CA600168CA6822F48072CA6001689D
:1031B0004A6922F001024A61202180F84210002170
:1031C0004163026B012A03D0FFF75CF9002008BDC0
:1031D000016301680C3151E8002F22F0100241E830
:1031E0000023002BF5D101680A68D20602D50A68CF
:1031F00049680091818DFEF78DFFE7E770B50446C1
:1032000000680169E26821F44051114301612169BC
:10321000A0680843616908432168CA6841F20C63E9
:103220009A430243CA6020684169A26921F440714F
:10323000114341611E492068884202D1FEF70CFC0F
:1032400001E0FEF7F9FB00EBC00101EB0012606842
:1032500064218000B2FBF0F3B3FBF1F36FF01806CA
:103260007343B2FBF0F5B2FBF0F605EB83053223B6
:1032700003EB0515B5FBF1F5B6FBF1F605F0F0052E
:1032800005EB0615B2FBF0F6B2FBF0F0B0FBF1F087
:103290006FF01802504306EB800003EB0010B0FB08
:1032A000F1F0216800F00F002844886070BD000034
:1032B0000038014081628285C2850021416422215B
:1032C00080F84210016921B10168CA6842F4807235
:1032D000CA6001684A6942F001024A610068C16837
:1032E00041F02001C160002070472DE9F843984665
:1032F00017460D460446089E24E0701C22D0FEF7B7
:103300009FF9A0EB0800B0421AD8CEB12068C1687E
:10331000490717D5802D15D0402D13D00168C9431A
:1033200009070FD401680025406800902046FFF788
:10333000DDFE0820606484F840500120BDE8F88379
:103340000320FBE72068006835EA000004D0002075
:10335000B842D2D00020F1E70120F9E70148FEF79A
:10336000DBBE0000CC00002010B50446FDF783F85A
:10337000214682B2BDE8104064230148FFF7ACB893
:10338000CC000020FEE70907090E002804DB00F14D
:10339000E02080F80014704700F00F0000F1E020FA
:1033A00080F8141D7047000086B000273E463D4659
:1033B000FEF754F9FFF774FDFFF7C0F9FFF796F930
:1033C000FFF702FAFFF738FAFFF784FAFFF737FB47
:1033D000012231493148FFF747F8002130A2084661
:1033E000FFF786FC31A202210020FFF781FC33A207
:1033F00004210020FFF77CFC33A206210020FFF708
:1034000077FCDFF89480A8F1030800BFFEF718F9F5
:10341000044600F067F8E01B19281FD327462D4803
:10342000FDF732FF0A212B48FDF790FE20B929480D
:10343000FDF7CEFDC8F8040098F8001071B9D8F86F
:10344000040064214843C0F307300A21B0FBF1F1C6
:1034500009B1012000E00020FFF76CFAA01B0F2843
:1034600002D32646FFF770FA601B6428CED32546A8
:10347000FFF75EFBFFF728FA024617A16846FCF744
:10348000B3FE6846FCF7F7FF82B26423694603483F
:10349000FFF722F8BAE7000003000020CC0000206C
:1034A0004D3A41444320443A53545000473A203067
:1034B0002F313020533A20203025000052504D3A11
:1034C00020202030000000004144433A20202030DA
:1034D000000000005400002053706565643A2564C4
:1034E0000D0A000030B51A4D91B0A87800281CD004
:1034F000EFF3108472B6322216496846FDF725F8BC
:1035000000208DF83100A870687032211148FDF755
:1035100061F884F310880DAA0FA16846FCF710FF2C
:10352000012804D06846FFF729F811B030BD0DA876
:10353000FCF794FF0A28F8D80121297028B1C1B2FC
:103540005FF00100FFF7F6F9EFE700210846F9E721
:1035500000000020200000207B225370656564225B
:103560003A22255B5E225D227D00000010B5002915
:103570000AD00878002807D005487844FDF774F889
:10358000002801D0002010BD0248784410BD000082
:10359000F6020000EE0200004572726F723A204798
:1035A00065617220312D31300D0A004F4B3A2053A6
:1035B000544F500D0A004F4B3A20414443204D6F69
:1035C00064650D0A00556E6B6E6F776E20436F6DEC
:1035D0006D616E640D0A000102020304050607080E
:1035E000090A0B0C0D0E0F10100102020304050650
:1035F0000708090A0B0C0D0E0F1010000000000048
:103600000000000102030406070809000000000191
:103610000203040000000000000000002F00000072
:10362000000700070000147F147F1400242A7F2A5B
:103630001200231308646200364955225000000529
:1036400003000000001C224100000041221C000079
:10365000082A1C2A080008083E080800005030000C
:103660000000080808080800006060000000201042
:10367000080402003E5149453E0000427F400000E0
:103680004261514946002141454B31001814127FD7
:1036900010002745454539003C4A49493000017131
:1036A00009050300364949493600064949291E00E3
:1036B00000363600000000563600000000081422D4
:1036C00041001414141414004122140800000201D3
:1036D00051090600324979413E007E1111117E00E8
:1036E0007F49494936003E41414122007F41412204
:1036F0001C007F49494941007F09090101003E4101
:10370000415132007F0808087F0000417F410000DE
:103710002040413F01007F08142241007F4040408B
:1037200040007F0204027F007F0408107F003E41BA
:1037300041413E007F09090906003E4151215E00DA
:103740007F091929460046494949310001017F0195
:1037500001003F4040403F001F2040201F007F20CD
:1037600018207F0063140814630003047804030026
:1037700061514945430000007F41410002040810A7
:10378000200041417F00000004020102040040408B
:1037900040404000000102040000205454547800CE
:1037A0007F48444438003844444420003844444866
:1037B0007F00385454541800087E09010200081490
:1037C00054543C007F080404780000447D4000000D
:1037D0002040443D0000007F1028440000417F400D
:1037E00000007C04180478007C0804047800384445
:1037F000444438007C1414140800081414187C0085
:103800007C0804040800485454542000043F4440F9
:1038100020003C4030403C001C2040201C003C402C
:1038200030403C004428102844000C5050503C00CC
:103830004464544C440000083641000000007F00FE
:1038400000000041360800000804081008000000CD
:103850008039000800000020200000002801000836
:10386000A03900082000002058070000440100088B
:103870001001000043000000F8FFFFFF004040403F
:103880004040404040404141414141404040404033
:1038900040404040404040404040404040050202DF
:1038A000020202020202020202020202022020209E
:1038B00020202020202020020202020202029090FA
:1038C00090909090101010101010101010101010F8
:1038D000101010101010101002020202020288884C
:1038E0008888888808080808080808080808080858
:1038F0000808080808080808020202024000000040
:1039000000000000000000000000000000000000B7
:1039100000000000000000000000000000000000A7
:103920000000000000000000000000000000000097
:103930000000000000000000000000000000000087
:103940000000000000000000000000000000000077
:103950000000000000000000000000000000000067
:103960000000000000000000000000000000000057
:103970000000000000000000000000000000000047
:103980000000000000000000010000001000000026
:103990000000000000127A0000000000000000009B
:04000005080000ED02
:00000001FF
