:020000040800F2
:1000000090070020A9010008012900088F25000899
:10001000B5270008CD0E0008D93000080000000008
:10002000000000000000000000000000CF2B0008CE
:10003000CF0E000800000000CD2B00080D2C00089A
:10004000C3010008C3010008C3010008C301000880
:10005000C3010008C3010008C3010008C301000870
:10006000C3010008C3010008C3010008C301000860
:10007000C3010008C3010008C3010008C301000850
:10008000C3010008C3010008C3010008C301000840
:10009000C3010008C3010008C3010008C301000830
:1000A000C3010008C3010008C3010008C301000820
:1000B000C3010008C3010008C3010008C301000810
:1000C000C3010008C3010008C3010008C301000800
:1000D000C3010008CD300008C3010008C3010008B7
:1000E000C3010008C3010008C301000800F002F8C2
:1000F00000F04BF80AA090E8000C82448344AAF177
:100100000107DA4501D100F040F8AFF2090EBAE874
:100110000F0013F0010F18BFFB1A43F0010318473B
:100120005037000070370000103A24BF78C878C1FB
:10013000FAD8520724BF30C830C144BF04680C60ED
:10014000704700000023002400250026103A28BF35
:1001500078C1FBD8520728BF30C148BF0B60704739
:10016000642900F05580752900F052800020704706
:100170001FB500F01DFE04000020002103F026FA48
:10018000401C60601FBD10B510BD00F0ECFD1146B5
:10019000FFF7EEFF02F0B2FF00F01CFE03B4FFF722
:1001A000F2FF03BC00F020FE0948804709480047E1
:1001B000FEE7FEE7FEE7FEE7FEE7FEE7FEE7FEE717
:1001C000FEE7FEE704480549054A064B7047000074
:1001D000732C0008ED00000890010020900700201B
:1001E00090030020900300200FB41CB5074B06AA13
:1001F0007B4469460090059800F0DDFA00206946CE
:1002000000F0ECFA1CBC5DF814FB0000E9050000EE
:100210002DE9F0410646002410687529314616A5DF
:1002200010D0AFF30080002802DA404213A507E0A7
:1002300031688A0701D512A502E0490704D511A546
:10024000012401E0AFF3008000210A2206F1240717
:1002500009E0B0FBF2FCB0FBF2F302FB1C00303013
:1002600078541846491C0028F3D123462A463046C4
:10027000BDE8F04100F040BA000000002D00000091
:100280002B000000200000002DE9F0410F4605463C
:10029000002028622846E968884770B3252805D0E1
:1002A000D5E901219047286A401CF2E7E968284611
:1002B000002688476C2804460AD0682C08D04C2CAD
:1002C00035D06A2C31D0742C31D07A2C2FD016E056
:1002D000E968064628468847B042044608D16C2E95
:1002E00023D04FF480662846E9688847044606E034
:1002F0006C2E03D04FF4807601E01EE04026E4B17E
:10030000A4F14100192802D8203446F400663A4688
:10031000214628462E60FFF723FF60B1012808D050
:10032000FF1D27F007070837B4E78026DBE7002624
:10033000D9E73F1DAEE72046B2E7286ABDE8F08165
:100340000FB400B58DB010A9099000910B904FF03B
:10035000FF300A9000200C9006487844069006482A
:1003600078446A4607900F9909A800F043FA0DB047
:100370005DF814FBB7040000CF0400002DE9FF5F17
:100380004FF000089946144646469169D2E901A704
:10039000DDF838B001988847054659EA0B0005D0CA
:1003A00009E0A1690198761C88470546216A28461C
:1003B00088470028F5D1681C03D05FEACA7005D0D1
:1003C00015E04FF0FF3004B0BDE8F09F2068011D3C
:1003D0002160D0F800800AE05FEACA7001D108F815
:1003E000015BA169761C01987F1E88470546002F96
:1003F0001ADD681C18D0B9F1000F0DD0E81705EB15
:10040000D060421120F01F0059F822102A1A012052
:1004100090400142E0D107E0BBF1000FDCD128465B
:10042000216A88470028D7D0E16901988847BBF145
:10043000000F07D1002E05DD5FEACA7002D100214E
:1004400088F80010A068B84203DDBBF1000F03D0AC
:1004500017B16FF00100B6E73046B4E770B5064655
:1004600000F046F90468054630460A22002100F0F3
:10047000F1F92C6070BD10B5431C02E010F8011BAF
:1004800071B18107FAD14FF0013202C88C1A8C4346
:1004900014EAC211F9D0C01A0A0603D0C01E10BD5A
:1004A000C01A10BD0A0401D0801E10BD0902FCD084
:1004B000401E10BD40EA010370B59B072ED14FF0DE
:1004C0000136042A2AD308C810C99D1B9D43121F58
:1004D00015EAC61517D0D8B2E1B2401A50EA056144
:1004E00010D198B2A1B2401A50EA05410AD123F0C6
:1004F0007F4024F07F41401A50EA052102D1180EB6
:10050000A0EB146070BDA342DBD018BA21BA8842B8
:1005100001D9012070BD4FF0FF3070BD0AB9002035
:1005200070BD10F8013B11F8014B63B1A3420AD131
:10053000521E08D010F8013B11F8014B1BB1A34229
:1005400001D1521EEDD1181B70BD032A40F230803C
:1005500010F0030C00F0158011F8013BBCF1020F04
:10056000624498BF11F801CB00F8013B38BF11F885
:10057000013BA2F1040298BF00F801CB38BF00F89C
:10058000013B11F0030300F09D81083AC0F00880A0
:1005900051F8043B083A51F804CBA0E80810F5E7FD
:1005A000121D5CBF51F8043B40F8043BAFF30080E0
:1005B000D20724BF11F8013B11F801CB48BF11F855
:1005C000012B24BF00F8013B00F801CB48BF00F825
:1005D000012B70474FF000020429C0F0128010F088
:1005E000030C00F01B80CCF1040CBCF1020F18BF0F
:1005F00000F8012BA8BF20F8022BA1EB0C0100F0A2
:100600000DB85FEAC17C24BF00F8012B00F8012B74
:1006100048BF00F8012B70474FF0000200B51346A9
:1006200094469646203922BFA0E80C50A0E80C5012
:10063000B1F12001BFF4F7AF090728BFA0E80C50C3
:1006400048BF0CC05DF804EB890028BF40F8042BBC
:1006500008BF704748BF20F8022B11F0804F18BF29
:1006600000F8012B704700004FF0013C50F8042BBC
:1006700051F8043B9A4221D1A2EB0C03934313EAB5
:10068000CC1317D150F8042B51F8043B9A4215D1E2
:10069000A2EB0C03934313EACC130BD150F8042BB9
:1006A00051F8043B9A4209D1A2EB0C03934313EA9D
:1006B000CC13DBD04FF00000704700BFD01A01BA56
:1006C000B1FA81F101F0180122FA01F0CB40C1F139
:1006D0002001DBB2C0B2C01A2CFA01F3D11A914347
:1006E00011EAC311E6D170477047704770470000A8
:1006F000004870472C0100202DE9F0470D4699462F
:100700009246044600F124080168880604D5E06991
:1007100021F01001216000E00120A84201DD471B0B
:1007200000E00027A1697A1902EB0900081AA0610C
:100730002078C00602D42046AFF30080002608E0EF
:10074000D4E901211AF806009047206A401C761C63
:1007500020624E45F4DB2078C0060AD52046AFF370
:10076000008006E0D4E9012130209047206A401C37
:100770002062381EA7F10107F4DC07E0D4E901216B
:1007800018F805009047206A401C2062281EA5F139
:100790000105F3DC2046AFF300802078000602D587
:1007A0000220BDE8F0870120FBE7000001694A1C38
:1007B00002610878704700B58FB0CDE901310021A2
:1007C000059105497944CDE9031011466846FFF7C4
:1007D0005BFD0FB000BD0000E5FFFFFF0A6802F8F7
:1007E000010B0A6070470000026811441378016031
:1007F00018467047D16005497944516104497944EC
:10080000116200211161114600F0A4B8EDFFFFFF55
:100810003F010000426842B1016811F8013B23B179
:10082000521EC0E90012184670470121C160881E9F
:10083000704742685AB1C368016843B983688B4204
:1008400005D0491E521CC0E90012002070474FF02D
:10085000FF3070472DE9F04791460F468046044629
:10086000002614F8015B2DB100F062F80068405DCD
:10087000C007F6D12B2D02D02D2D18D0641E4A466C
:100880003946204600F020FA27B13968A14201D14B
:10089000C7F800804FF0020471050BD540420028D4
:1008A00003DDFFF725FF0460A007BDE8F08746F4ED
:1008B0008066E4E70028F8DAFFF71AFF04606FF0BB
:1008C0000040F2E710B5203AC0F00B80B1E81850B4
:1008D000203AA0E81850B1E81850A0E81850BFF42A
:1008E000F5AF5FEA027C24BFB1E81850A0E81850C9
:1008F00044BF18C918C0BDE810405FEA827C24BF1D
:1009000051F8043B40F8043B08BF7047D20728BFAA
:1009100031F8023B48BF11F8012B28BF20F8023BF9
:1009200048BF00F8012B7047004870472C01002099
:1009300010B500F03DFA001D10BD00BF912C000065
:1009400010B50446FFF7F4FF0068005D00F00100F9
:1009500010BD00002DE9F34F4FF0000A0C4656463B
:100960008DB001200C9001F10C000B9062690B9886
:1009700001219047051E2DD0252D2CD0216A8847B6
:10098000C0B162690B9801219047216A884700280D
:10099000F7D16269411E0B98904700E0761CA1696F
:1009A0000D988847216A88470028F7D1E1690D989A
:1009B0008847DBE7A1690D988847A842074601D11F
:1009C000761CD3E7E1690D9888477F1C02D1BAF104
:1009D000000F6FD06CE162690B9800273D463946E5
:1009E00090472A2804D162690B980121904701257C
:1009F000DFF8D08262690B9801219047A0F13001A5
:100A00000A290AD24745E5DC07EB870100EB4107DD
:100A1000303FDFD445F01005ECE7E90601D46FF074
:100A200000476C280AD04C2814D0682815D06A28B2
:100A30000DD074281CD07A281AD01DE062690B985A
:100A4000012190476C2802D045F0040514E045F0E0
:100A500002050DE045F020050AE062690B980121CE
:100A60009047682802D045F0080505E045F4006588
:100A700062690B9801219047C4E9015765283DD070
:100A800019DC58287AD00CDC452837D004DC25281E
:100A900026D041289ED131E046282FD0472899D131
:100AA0002CE05B2877D0612828D063287CD064288C
:100AB00023D15AE0F7E06F2848D008DC66281DD023
:100AC00067281BD0692821D06E2816D127E070280E
:100AD00045D0732868D0752847D078280DD14DE0CF
:100AE000A1690D988847252805463FF469AFE1695B
:100AF0000D9888476D1C3FF46AAFD9E00D992346E5
:100B00006A466FF00100AFF30080C6E045F0400098
:100B100023464FF000026060A80736D43EE0E807A5
:100B20007FF447AF2068011D21600068290501D5C9
:100B300006701BE7290701D5068017E7A90703D52B
:100B4000F117C0E9006111E706600FE745F04000CA
:100B500023464FF008026060A80716D41EE040F656
:100B60000E0125EA0100606016E045F040002346D2
:100B70004FF00A026060A80707D40FE045F040007C
:100B80006060A80708D5234610220D996FF0010078
:100B9000AFF3008081E007E0102223460D996FF04B
:100BA0000100AFF3008078E04FF0000963284F4662
:100BB000C8464B46CB4602D05B2807D039E02079A7
:100BC000C00601D40120A060012732E06269D4F898
:100BD0000CB00B98012190475E2807D14FF0010916
:100BE00049466269D4F80CB00B989047216939B92D
:100BF00000210A4603AB43F82120491C0829FADBEF
:100C0000D8B3216949B308F1010862690B98012141
:100C100090475D28F4D1B9F1000F09D0002003A955
:100C200051F82020D24341F82020401C0828F7DB4F
:100C300003AB2069002820794FEA40701ED05B4644
:100C40002246CDF80080CDE901970D9900286FF07C
:100C5000010020DAAFF300801FE0C11703AA00EB08
:100C6000D1614B1121F01F0102EB8302411A13687D
:100C70000120884003431360C7E719E00D9922461D
:100C800000286FF00100009702DAAFF3008004E063
:100C9000FFF774FB01E0AFF3008000280ADA401C84
:100CA00006D10C9820B14FF0FF300FB0BDE8F08FA7
:100CB0005046FAE7E90701D10AF1010A064400208B
:100CC0000C9053E6CCCCCC0C2DE9F05F8246154657
:100CD0008B4600270AF10104B9460078302801D07C
:100CE0009DB113E014F8010B0127782803D0582890
:100CF00001D045B10AE00DB1102D07D1002714F83D
:100D0000010B102502E0082500E00A250026B04668
:100D10000EE005FB080005FB06F101271FFA80F82D
:100D200001EB1046B6F5803F00D3B94614F8010B2D
:100D3000294600F041F80028EBDABBF1000F05D09E
:100D40000FB1641E00E05446CBF80040B9F1000F2B
:100D500006D0FFF7CDFC02210160C81EBDE8F09F60
:100D600048EA0640FAE77546FFF7DEFDAE460500A5
:100D70006946534620F00700854618B020B5FFF7B6
:100D800021FABDE820404FF000064FF000074FF079
:100D900000084FF0000B21F00701AC46ACE8C00999
:100DA000ACE8C009ACE8C009ACE8C0098D467047A2
:100DB000004870474C0100203A2800D2303820F01B
:100DC0002002412A01D3A2F13700884201D34FF01B
:100DD000FF30704710B50446AFF300802046BDE8F1
:100DE0001040FFF7DBB9000001491820ABBEFEE759
:100DF000260002007047000070B504460068816854
:100E0000C943C90717D1816821F00101816000F051
:100E100017FC05460AE000BF00F012FC401B022848
:100E200004D920688068C043C00706D02068806865
:100E3000C043C007F0D0002070BDA06A40F0100091
:100E4000A062E06A40F00100E062012070BD000095
:100E5000F8B500260446009600688168C943C907B2
:100E60002DD0816841F00101816016481649006863
:100E7000B0FBF1F000E0401E00900028FBD100F034
:100E8000DFFB054616E000BF00F0DAFB401B02283E
:100E900010D920688068C043C0070BD0A06A40F01A
:100EA0001000A062E06A40F00100E06284F8246073
:100EB0000120F8BD20688068C043C007E4D100204D
:100EC000F8BD00002400002040420F00FEE77047FC
:100ED00072B6FEE7F8B50024009490F82420254669
:100EE000012A12D0012280F824204A681F23072AF1
:100EF0000DD20668776B521E02EB820293409F432D
:100F00000B6893401F43776319E00220F8BD066821
:100F10000D2A0AD2376BD21F02EB820293409F4305
:100F20000B6893401F43376309E0F76A0D3A02EB01
:100F3000820293409F430B6893401F43F7620A6805
:100F4000072306680A2A0AD3F7680A3A02EB420224
:100F500093409F438B6893401F43F76008E03769D5
:100F600002EB420293409F438B6893401F433761DB
:100F70000A68102A01D0112A20D1124B02689A4225
:100F800017D193681B0219D4936843F4000393604C
:100F90000968102912D10C490C4A0968B1FBF2F119
:100FA00001EB8101490000E0491E00910029FBD1BD
:100FB00004E0816A41F020018162012480F824501C
:100FC0002046F8BD002401402400002040420F00CC
:100FD0000068C06C704700002DE9F0414FF0000739
:100FE00004003D467ED0A06A002628B9E66284F857
:100FF0002460204600F07EF82046FFF7FDFEA16A3F
:10100000C90600D420B1A06A40F01000A06269E0D7
:10101000A16A21F4885141F00201A1626268E1698C
:10102000237B0A4347EA43010A43A1684FF48077D0
:10103000B94209D0012907D05FF0000194F814C02B
:10104000BCF1010F02D00AE03946F7E7F3B1A36A19
:1010500043F02003A362E36A43F00103E3622368E1
:10106000D3F804C02CF4694C4CEA010CC3F804C05A
:1010700021688B68DFF870C003EA0C0313438B60B0
:10108000A168B9420BD0012909D00CE0DFF85CC09F
:10109000A3690CEB43330B4343F40061DFE7218A80
:1010A0000D05A5F580152168CB6A23F470032B4349
:1010B000CB62216889680E4B1940914208D1E662E3
:1010C000A16A21F0020141F00101A162BDE8F081B5
:1010D000A06A20F0020040F01000A062E06A40F038
:1010E0000100E0620120F1E7FDF7E1FF00E0FFFF12
:1010F000FE0E1FFF00B585B0002100910191029105
:10110000039100680E49884218D10E48816941F464
:1011100000718161816901F400710491816941F07C
:10112000040181618069694600F004000490462052
:10113000009003200190044800F088F905B000BD3C
:101140000024014000100240000801402DE9F8434E
:1011500000270D460446009700F072FA804620688A
:101160008168C90508D5A06A40F02000A06284F813
:1011700024700120BDE8F8834168C90503D4C06A22
:1011800010F4700F2AD0022000F0F8FA3B490968E9
:10119000B1FBF0F62068036939490B424FEA61015F
:1011A0004FEAA1121FD1C3684FEA611C13EA0C0F6A
:1011B00019D103690B4225D1C068104222D11420F5
:1011C00023E0681C0AD02DB100F03AFAA0EB080029
:1011D000A84203D920680068800725D520680068E8
:1011E0008007EED52DE003690B4202D1C1681142A0
:1011F00006D0026923490A4206D1C068084203D1D9
:10120000542002E0292000E0FC204643009816E02C
:10121000681C11D02DB100F013FAA0EB0800A84211
:101220000AD90098B04207D2A06A40F00400A06238
:1012300084F8247003209DE70098401C0090B04281
:10124000E6D321686FF012000860A06A40F40070D5
:10125000A06220688068C0F3424007280CD1207B40
:1012600050B9A06A20F48070A062A06AC00403D4C0
:10127000A06A40F00100A06200207BE7240000206B
:10128000244992244992240070B5044690F8240021
:1012900001280DD0012084F824002046FFF7D8FD56
:1012A00002004FF0000005D084F82400104670BD05
:1012B000022070BDA16A40F20123994341F480717C
:1012C000A1621F4D23681F49AB4218D10E6816F466
:1012D000702F14D0A66A46F48016A6620E687605B2
:1012E00005D5A66A26F4005646F48056A662A66A7C
:1012F000F6040AD5E66A26F00606E66206E0A66A65
:1013000026F48016A6625E68E9E7E06284F82400AD
:101310006FF00200186020688368C3F34243072B14
:1013200005D1A84208D1096811F4702F04D0816852
:1013300041F480118160B9E7816841F4A001F9E7C7
:10134000002801400424014010B590F8211000222B
:10135000022905D00421816380F82020012010BDDE
:1013600001680B6823F00E030B6001680B6823F023
:1013700001030B6090F84030C46B012101FA03F3C4
:10138000636080F8211080F82020104610BD000016
:1013900010B590F821100024022903D004218163A4
:1013A00001243DE001680A6822F00E020A6001682B
:1013B0000A6822F001020A601A4A0168914201D1CA
:1013C000012121E0174A1432914201D110211BE082
:1013D000144A2832914201D1891515E0114A3C3254
:1013E000914201D189140FE00E4A5032914202D14C
:1013F0004FF4803108E00B4A6432914202D14FF43D
:10140000801101E04FF08071064A083A51600121D5
:1014100080F82110002180F82010416B01B188472D
:10142000204610BD0800024070B5044600F008F9DF
:101430000546601C02D004480078044400F000F91E
:10144000401BA042FAD370BD180000202DE9F84FD0
:10145000DFF8B8910024A9F1040B23460F2709F106
:10146000040AABF1040EC9E00125A5402A40AA42B6
:101470007DD1674ED1F804C0ACEB0608B44532D03C
:1014800014DCBCF1030F3AD009DCBCF1000F2AD008
:10149000BCF1010F1CD0BCF1020F31D11DE0BCF139
:1014A000110F17D0BCF1120F2AD119E0B8F5881F1F
:1014B00019D006DCB8F5803F15D0B8F5801F1FD1D4
:1014C00011E0B8F5001F0ED0B8F5041F18D10AE0DE
:1014D000CB6815E0CB681B1D12E0CB6808330FE02A
:1014E000CB680C330CE08B682BB1012B4FF0080359
:1014F00003D0456104E0042302E0056100E000231D
:10150000FF2A01D8064601E000F104064FEA8405EF
:1015100001D9A5F12005D6F8008007FA05FC28EAD4
:101520000C0803FA05F548EA0508C6F800804D687E
:10153000ED0062D5374DAE6946F00106AE61AD698A
:1015400024F0030605F001050095334D06EB050C6C
:10155000DCF80850A607360F07FA06F825EA080552
:10156000DFF8B880404503D14FF0000817E044E0B1
:10157000DFF8AC80404502D14FF001080FE0DFF802
:10158000A480404502D14FF0020808E0DFF89880BF
:10159000404502D14FF0030801E04FF0040808FA7B
:1015A00006F848EA0508CCF808804D68D9F80060CC
:1015B000ED024D4601D5164300E096432E604D687E
:1015C000DAF80060AD02554601D5164300E09643B7
:1015D0002E604D68DBF80060AD035D4601D5164313
:1015E00000E096432E604D68DEF80060ED0375461E
:1015F00001D5164300E096432E60641C0D682A4610
:10160000E5407FF431AFBDE8F88F000008040140E9
:1016100000001110001002400000014000080140CD
:10162000000C014000100140001401408068084097
:1016300000D0012070470AB1016170470904FBE73F
:101640000148806870470000180000200248816847
:10165000027811448160704718000020074810B5D7
:10166000016841F010010160032000F075F80F20BF
:1016700000F006F800F024F8002010BD0020024021
:1016800070B50D4D04464FF47A712878B1FBF0F037
:101690000A490968B1FBF0F000F0A4FB48B9102C2E
:1016A00007D200222146501E00F036F800206C6060
:1016B00070BD012070BD0000180000202400002033
:1016C0000C4808B5816941F001018161816901F02F
:1016D00001010091C16941F08051C161C06900F010
:1016E000805000900448416821F0E06141F0806141
:1016F000416008BD0010024000000140002809DBE5
:1017000000F01F02012191404009800000F1E0201B
:10171000C0F8001170470000F0B40E4B1B680C4677
:10172000C3F30223C3F10705042D00D90425191DB5
:10173000072901D2002300E0DB1E012606FA05F18D
:10174000491E214099409E40761E16403143F0BC10
:1017500001F0C3BC0CED00E0064900F00702086888
:101760004FF6FF03184040EA0220034A1043086086
:10177000704700000CED00E00000FA0510B50146CE
:101780000020234C012922D0022939D010291DD153
:1017900061682268D20119D51E48C1F38342C9038A
:1017A000805C0AD561681B4AC1F34041921E515CBE
:1017B000194AB2FBF1F1484301E018494843616816
:1017C000490203D440000321B0FBF1F010BD226AAE
:1017D000C2F30121012903D1920701D5C80310BD2D
:1017E000022905D1626A920702D549F6404010BD30
:1017F0000329FCD121688903F9D54FF2244010BD9B
:1018000000F02AF96168C1F38131491C4900DBE726
:10181000001002404638000800127A0000093D001E
:101820002DE9F84305460078354CC00754D0E069EF
:101830000026C00008D4E06940F08050E061E06913
:10184000012600F0805000902E480168C90512D48E
:101850000168804641F480710160FFF7F1FE0746A0
:1018600005E000BFFFF7ECFEC01B642823D8D8F8C2
:101870000000C005F6D5206A10F4407021D0A98878
:1018800001F4407181421CD0206A1F49012220F4DA
:1018900040700A6000220A602062C00711D0FFF782
:1018A000CFFE074641F2883808E000BFFFF7C8FEC8
:1018B000C11B414502D90320BDE8F883206A800797
:1018C000F4D5206A696820F44070084320621EB194
:1018D000E06920F08050E0612878800705D56068D5
:1018E000A96820F44040084360602878C00605D508
:1018F0006068E96820F48000084360600020DBE74E
:101900000010024000700040400442422DE9F047C0
:101910000F46050061D0434E306800F00700B84222
:1019200009D2306820F0070038433060306800F09A
:101930000700B84251D128683B4C810712D54007B7
:1019400003D5606840F4E06060602878000703D544
:10195000606840F4605060606068A96820F0F00042
:10196000084360602878C00728D06868012810D034
:101970002168022810D0890700292EDA616821F039
:10198000030101436160FFF75BFE804641F2883945
:101990000DE021688903EFE78901EDE7FFF750FECD
:1019A000A0EB0801494502D90320BDE8F087606833
:1019B000696800F00C00B0EB810FEFD1306800F0E7
:1019C0000700B8420BD9306820F007003843306078
:1019D000306800F00700B84201D00120E5E7287820
:1019E000400705D56068E96820F4E060084360605E
:1019F0002878000706D56068296920F4605040EA1D
:101A0000C100606000F038F86168084AC1F3031152
:101A1000515CC8400649086006480068FFF730FE80
:101A20000020C2E7002002400010024056380008A3
:101A3000240000201C000020044805490068496873
:101A4000044AC1F30221515CC840704724000020C1
:101A500000100240663800080448054900684968DB
:101A6000044AC1F3C221515CC840704724000020E1
:101A700000100240663800080E4A51680E4801F016
:101A80000C03042B11D0082B0FD10C48C1F3834356
:101A9000C903C05C0AD55168084AC1F34041921E8F
:101AA000515C054A5043B0FBF1F07047044948438C
:101AB000704700000010024000127A00343800081D
:101AC00000093D002DE9F84F040070D02078C04D8A
:101AD000C00749D06868C0F38100012807D0686852
:101AE000C0F38100022809D16868C00306D52868C0
:101AF000800339D560680028E7D035E06068B0F52C
:101B0000803F0BD010B1B0F5A02F11D0286820F481
:101B100080302860286820F4802002E0286840F4A3
:101B200080302860606890B1FFF78AFD06460AE0C1
:101B3000286840F480202860F0E700BFFFF780FDB0
:101B4000801B642873D828688003F7D50CE0FFF762
:101B500077FD064605E000BFFFF772FD801B642895
:101B6000F0D828688003F7D420789A4E80074FF089
:101B700001094FF0000839D5686810F00C0F07D044
:101B80006868C0F38100022809D16868C00306D4E0
:101B90002868800714D52069012808D110E0206941
:101BA000B0B1C6F80090FFF74BFD074605E00AE12B
:101BB000FFF746FDC01B0228C4D828688007F7D568
:101BC0002868616920F0F80040EAC10028600DE053
:101BD000C6F80080FFF734FD074604E0FFF730FD4C
:101BE000C01B022823D828688007F7D42078000774
:101BF0002CD57948A169D9B1C0F80090FFF720FD34
:101C0000074604E0FFF71CFDC01B02280FD8686AD6
:101C10008007F7D571484FF4FA510068B0FBF1F036
:101C2000009000BF0098411E0091FAD20EE080E0C3
:101C3000C0F80080FFF704FD074604E0FFF700FD51
:101C4000C01B022875D8686A8007F7D4207840073F
:101C500060D5E8690027C00008D4E86940F08050EA
:101C6000E861E869012700F0805000905C48016855
:101C7000C90513D40168834641F480710160FFF700
:101C8000DFFC824606E000BFFFF7DAFCA0EB0A00AB
:101C900064284ED8DBF80000C005F5D5E0680128BF
:101CA0000AD008B1052813D0286A20F00100286264
:101CB000286A20F0040002E0286A40F0010028624F
:101CC000E06841F2883B98B1FFF7BAFC82460BE02E
:101CD000286A40F004002862EEE700BFFFF7B0FC7E
:101CE000A0EB0A0159455AD8286A8007F6D50CE0BE
:101CF000FFF7A6FC824605E0FFF7A2FCA0EB0A0175
:101D000059454CD8286A8007F6D41FB1E86920F0FD
:101D10008050E861E06988B36968C1F381010229F4
:101D200044D00228C6F8608004D0FFF789FC04463E
:101D300038E034E0FFF784FC074604E0FFF780FC5E
:101D4000C01B02282BD828688001F7D4206AB0F580
:101D5000803F05D16868A16820F4003008436860BE
:101D6000D4E908010843696821F4741108436860E4
:101D7000C6F86090FFF764FC044606E025E000BF6B
:101D8000FFF75EFC001B022809D828688001F7D500
:101D90001BE000BFFFF754FC001B022802D9032000
:101DA000BDE8F88F28688001F4D40EE00128F7D050
:101DB0006868226A00F48031914204D1616A00F4BB
:101DC0007010884201D00120EAE70020E8E7000017
:101DD00000100240000042428004424224000020E1
:101DE0000070004010B5401EB0F1807F01D301208B
:101DF00010BD4FF0E02460610F21601701F06DF914
:101E00000020A06107202061002010BD70B590F86F
:101E10003C20012A26D0012480F83C40022280F890
:101E20003D2003685A689D6822F070060A683243B4
:101E30005A600D4B02689A4208D0B2F1804F05D02B
:101E40000A4B9A4202D00A4B9A4204D1496825F0C3
:101E500080031943916080F83D40002180F83C10D8
:101E6000084670BD022070BD002C014000040040F7
:101E70000008004000B585B0002100910191029159
:101E800003910068B0F1804F11D10A48816941F097
:101E9000040181618069694600F00400049001201A
:101EA00000900220019003900348FFF7CFFA05B09D
:101EB00000BD0000001002400008014070B504465B
:101EC00090F83C0000260D4601280FD0012084F830
:101ED0003C006AB1042A1DD0082A2FD00C2A3FD01A
:101EE0000126002084F83C00304670BD022070BD01
:101EF000206800F009FF2068816941F008018161D4
:101F00002068816921F004018161206881692A6962
:101F1000114311E0206800F01FFF2068816941F43F
:101F2000006181612068816921F48061816120689C
:101F300081692A6941EA02218161D2E7206800F0C3
:101F400037FF2068C16941F00801C1612068C1699B
:101F500021F00401C1612068C1692A69114311E0BF
:101F6000206800F051FF2068C16941F40061C1613F
:101F70002068C16921F48061C1612068C1692A6952
:101F800041EA0221C161ACE710B5040003D094F826
:101F90003D0010B107E0012010BD002084F83C0096
:101FA000204600F01FF8022084F83D00211D206823
:101FB00000F060FE012084F8460084F83E0084F8BA
:101FC0003F0084F8400084F8410084F8420084F81F
:101FD000430084F8440084F8450084F83D00002064
:101FE00010BD000008B50068B0F1804F08D1054869
:101FF000C16941F00101C161C06900F001000090B8
:1020000008BD00000010024010B50446022249B18C
:1020100004290ED0082913D094F84100012816D0C5
:10202000012010BD94F83E000128F9D184F83E202B
:102030000FE094F83F000128F2D184F83F2008E037
:1020400094F840000128EBD184F8402001E084F8A6
:1020500041200122206800F049FE0F492068884293
:1020600003D1426C42F4004242642068884208D0A6
:10207000B0F1804F05D00949884202D00849884212
:1020800004D1816801F00701062903D0016841F0FD
:1020900001010160002010BD002C0140000400403F
:1020A0000008004030B504460D460068002200F0EC
:1020B0001DFE174B41F2111120688A10984209D178
:1020C000036A0B4206D1036A134203D1436C23F423
:1020D000004343642068036A0B4206D1016A11423F
:1020E00003D1016821F00101016001203DB1042DFF
:1020F00008D0082D09D084F84100002030BD84F8B4
:102100003E00FAE784F83F00F7E784F84000F4E780
:10211000002C014070477047F8B501680446086814
:10212000CA684B6910F00F0F4FF0000559D003F04B
:10213000010602F49077374365D0C10705D0D10579
:1021400003D5616C41F001016164410705D5D907F0
:1021500003D0616C41F002016164810705D5D907A4
:1021600003D0616C41F004016164010707D502F0FE
:102170002001314303D0616C41F008016164616C5E
:1021800000293AD0800604D5900602D5204600F0FA
:102190008CFE20684069616CC0F38010090700D490
:1021A00060B3204600F05AFE20684069400621D501
:1021B0002068143050E8001F21F0400140E8001270
:1021C000002AF5D1E06BA8B16D494163E06BFFF7E0
:1021D000DFF8002811D0E06B416B01B0BDE8F040A2
:1021E000084783060FD593060DD52046BDE8F84075
:1021F00000F05BBE2046FFF78EFFF8BD2046FFF7DC
:102200008AFF6564F8BD266B2023012E7CD1C606AB
:102210007AD5D60678D508684868009048694FF0A6
:102220000206400640D5E16B086840680004000CD7
:10223000E8D0A28D8242E5D9E085886920282DD09A
:1022400020680C3050E8001F21F4807140E8001233
:10225000002AF5D12068143050E8001F21F0010158
:1022600040E80012002AF5D12068143050E8001F21
:1022700021F0400140E80012002AF5D184F84230F4
:10228000256320680C3050E8001F21F0100140E861
:102290000012002AF5D1E06BFFF756F86663A08DB7
:1022A000E18D401A81B22AE0A08DE18D401A81B201
:1022B000E08D0028A6D00029A4D022680C3252E874
:1022C000000F20F4907042E80007002FF5D120683D
:1022D000143050E8002F22F0010240E80027002FC0
:1022E000F5D184F84230256320680C3050E8002F87
:1022F00022F0100240E80023002BF5D1666320464F
:10230000FFF708FFF8BDFFE705062BD5150629D511
:1023100094F841002128F5D1A068B0F5805F01D183
:102320002069B0B1206A411C2162216800784860B0
:10233000E08C401E0004000CE084E3D12068C168FA
:1023400021F08001C1602068C16841F04001C16096
:10235000D8E7206A0088C0F308004860206A801C23
:102360002062E5E74006CDD55006CBD5CA682046A9
:1023700022F04002CA6084F8413000F007F9C1E75A
:102380004D2E000870B5040004D094F841000025DB
:1023900010B106E0012070BD84F84050204600F0E6
:1023A00023F8242084F841002068C16821F40051FA
:1023B000C160204600F0DAFD2068016921F49041F7
:1023C00001612068416921F02A0141612068C168EA
:1023D00041F40051C1606564202084F8410084F814
:1023E00042006563002070BD30B585B000240094C4
:1023F0000194029403940068184988422CD118482B
:10240000816941F480418161816901F480410491D5
:10241000816941F0040181618069124D00F004007E
:1024200004904FF40070009002200190032003906C
:1024300069462846FFF70AF82815CDE900046946E1
:1024400028460294FFF702F8002211462520FFF7E4
:1024500063F92520FFF752F905B030BD003801407F
:10246000001002400008014090F84230202B01D0BB
:102470000220704721B11AB10023036300F0D2BDDE
:102480000120704770B500681449884225D1144C6A
:1024900014492246E079127A0D280ED00A280CD071
:1024A0000F2A02D28854521C2272BDE870400C4997
:1024B0000122C91D0C48FFF7D7BF002AF5D0607A6A
:1024C0000028F2D1885407490125657201F11000F6
:1024D000521CFEF73AF86573E7E770BD003801401B
:1024E0000000002028000020E40000202DE9F8432F
:1024F000044690F84100984616460D46202802D022
:102500000220BDE8F88385B17EB1002060642120FF
:1025100084F84100FFF794F8A6848146E684A06819
:102520002027B0F5805F02D003E00120E9E72069B1
:1025300010B12E4600250EE000260CE0802120463A
:1025400000F08BFDA8B9C6B116F8010B21684860F0
:10255000E08C401EE084E08C4B464FF00002CDF84A
:1025600000800028EAD14FF04001204600F075FDC0
:1025700040B184F841700320C3E735F8020BC0F383
:102580000800E3E784F841700020BAE77047FEE7EF
:1025900008B56420009001E000BF0846411E00918C
:1025A000FAD208BD70B5114E05460024280601D5A3
:1025B000012200E0002210213046FFF73CF86806B7
:1025C000050EFFF7E5FF012208213046FFF733F83B
:1025D000FFF7DEFF002208213046FFF72CF8FFF757
:1025E000D7FF641CE4B2082CE0D370BD00080140A2
:1025F00070B50E4D012210212846FFF71CF8FFF799
:10260000C7FF012208212846FFF715F8FFF7C0FF92
:1026100010212846FFF70AF8044600220821284620
:10262000FFF709F8FFF7B4FF204670BD000801402E
:102630003EB5002411480094019402940E49846030
:10264000016004730475012505614FF46021446045
:10265000C161FEF7C1FC08B1FEF73AFC0620CDE9E6
:102660000005694602940548FEF734FC002801D0B5
:10267000FEF72EFC3EBD0000002401406C0000204F
:10268000F0B585B000241F4800940194029403948F
:10269000816941F010018161816901F010010491AB
:1026A000816941F020018161816901F0200104917B
:1026B000816941F0040181618069134F00F00400D9
:1026C0000490012218213846FEF7B5FF00220621AA
:1026D0003846FEF7B0FF1820009001AA112001250E
:1026E000032682E8610069463846FEF7AFFE062001
:1026F000CDE90005CDE9024669463846FEF7A6FE5B
:1027000005B0F0BD001002400008014010B58AB0CD
:10271000002407941C2168460894FDF77DFF1648A5
:102720004FF08041016041F61F41C0E9011463216F
:10273000C0E903148461FFF727FC08B1FEF7C8FB6A
:10274000079407A90C480894FFF760FB08B1FEF74F
:10275000BFFB6020CDE900040294002269460648D0
:102760000494FFF7ABFB08B1FEF7B2FB0248FFF79A
:1027700081FB0AB010BD00009C0000200C4810B581
:102780000A4901604FF416514160002181600C221A
:10279000C160C0E904128161C161FFF7F3FD002847
:1027A00003D0BDE81040FEF793BB10BD00380140D8
:1027B000E4000020FEE700002DE9F0414D4C4E4DB5
:1027C0004E4F2079642678B1607968B100F0DAF96B
:1027D0002079A178884260D000295FD0E17899B350
:1027E000052932D9491F31E0E0784FF00008C0B127
:1027F000052801D9401F00E0002010F0FF00E07024
:1028000012D000BF00EB80004006000E207000EBED
:10281000401000EB4000B0FBF6F039684863BDE8BB
:10282000F081A0780028FAD0002202212846FEF785
:1028300002FF002204212846FEF7FDFE00F0B2F957
:10284000404684F802800DE00EE00021C8B240F25C
:10285000DE314143B1FBF6F1E0703A68516300EBC1
:10286000800040002070DAE7012802D0022807D05B
:1028700010E0012202212846FEF7DDFE002205E0DD
:10288000002202212846FEF7D6FE01220421284616
:10289000FEF7D1FE2079A070C1E7B9B9012802D0B6
:1028A000022807D010E0012202212846FEF7C3FECD
:1028B000002205E0002202212846FEF7BCFE01228C
:1028C00004212846FEF7B7FE2079A070E1786079F0
:1028D000814206D201F10501C9B2E170814206D8F8
:1028E00006E005D9491FC9B2E170814200D2E0700B
:1028F000E07887E700000020000801409C000020ED
:10290000FEE770B5002404F1B000C0B2002100F071
:10291000F3F80021084600F0EFF80021102000F045
:10292000EBF800250121002000F0E6F86D1CEDB267
:10293000802DF7D3641CE4B2082CE4D370BD10B52D
:102940006420FEF771FD0021AE2000F0D5F80021D3
:10295000202000F0D1F80021102000F0CDF8002157
:10296000B02000F0C9F80021C82000F0C5F800210F
:10297000084600F0C1F80021102000F0BDF8002149
:10298000402000F0B9F80021812000F0B5F80021C6
:10299000FF2000F0B1F80021A12000F0ADF80021E7
:1029A000A62000F0A9F80021A82000F0A5F8002139
:1029B0003F2000F0A1F80021A42000F09DF80021A4
:1029C000D32000F099F80021084600F095F8002186
:1029D000D52000F091F80021F02000F08DF80021C2
:1029E000D92000F089F80021222000F085F800218C
:1029F000DA2000F081F80021122000F07DF800219B
:102A0000DB2000F079F80021202000F075F800218B
:102A10008D2000F071F80021142000F06DF80021E5
:102A2000AF2000F069F8BDE81040FFF76ABF000072
:102A300070B5203AD5B27F2802D90020491CC9B20E
:102A40000446B031C8B2002100F056F804F00F007F
:102A5000002100F051F8102000EB1410002100F0CC
:102A60004BF8074905EB4500002401EB4005012127
:102A7000285D00F041F8641CE4B2062CF7D370BD69
:102A8000F83500082DE9FF41884605461E460FA18E
:102A900068460A9FFDF7A8FB6846FDF7ECFCC0B24C
:102AA0000024361A08E0202241462846FFF7C0FFDE
:102AB000AD1D641CEDB2E4B2A6423B46F3DC6A46AF
:102AC0004146284600F004F8BDE8FF81256C7500FA
:102AD0002DE9F0411E4614460F46054607E03346F1
:102AE00039462846FFF7A4FFAD1DEDB2641C2278DD
:102AF000002AF4D1BDE8F08170B5214C0D460646A0
:102B0000012210212046FEF796FD012208212046D1
:102B1000FEF791FDFFF73CFD002210212046FEF755
:102B20008AFDFFF735FD002208212046FEF783FDD0
:102B30007820FFF737FDFFF75BFD0DB1402000E087
:102B40000020FFF72FFDFFF753FD3046FFF72AFD6A
:102B5000FFF74EFD002210212046FEF76CFD0122FA
:102B600008212046FEF767FDFFF712FD0122102124
:102B70002046FEF760FDBDE87040FFF709BD00008C
:102B80000008014010B5054CA079002805D10021AE
:102B90000348FFF739FA0120A07110BD00000020A2
:102BA0009C00002070B5074CA079002808D006488A
:102BB00000250068456329460348FFF773FAA571AD
:102BC00070BD0000000000209C000020704770478E
:102BD00000B509488FB009A1827A6846FDF704FB69
:102BE0006846FDF748FC82B2642369460648FFF751
:102BF0007DFC0FB000BD0000000000205370656533
:102C0000643A25640D0A0000E4000020FEF71EBDB2
:102C100030B593B028216846FDF7FEFC14210AA8C0
:102C2000FDF7FAFC002401200F9410941194010484
:102C300012948DE8130004904FF4E010CDE90810D1
:102C4000022507956846FEF73DFF0F20CDE90A05EE
:102C50006802CDE90C4002210AA80E94FEF756FE48
:102C60004FF4404011900F950FA8FEF7D9FD13B017
:102C700030BD7047F0B50268194B1A4C1A4D4FF031
:102C80008047984205D0B84203D0A04201D0A84264
:102C900003D122F070064A683243984205D0B84208
:102CA00003D0A04201D0A84203D122F44074CA68E4
:102CB00022434C6922F08002224302608A68C26289
:102CC0000A688262984201D1096901630121416168
:102CD0000169C90703D0016921F001010161F0BD5B
:102CE000002C0140000400400008004010B501F035
:102CF0001F030121046A99408C430462016A9A40CF
:102D00001143016210BD000030B5036A026A22F06F
:102D1000010202624268846924F073050C682C4346
:102D200023F002058B682B430A4DA8420BD123F0F8
:102D30000805CB6822F440722B434D6923F004034D
:102D400015438A692A43426084614968416303628A
:102D500030BD0000002C014030B5026A036A23F048
:102D600010030362436884690D6824F4E64444EA6E
:102D700005248D6822F0200242EA05120B4DA8427C
:102D80000ED1CD6822F0800242EA05124D6923F48B
:102D9000406343EA85038D6922F0400243EA8503DC
:102DA0004360846149688163026230BD002C014048
:102DB00030B5036A026A22F4807202624268C46912
:102DC00023F4007324F073050C682C438D6843EAE8
:102DD00005230C4DA8420ED1CD6823F4006343EACD
:102DE00005234D6922F4405242EA05128D6923F40D
:102DF000806342EA05124260C4614968C1630362AC
:102E000030BD0000002C014030B5046A026A22F493
:102E1000805202624268C3690D6823F4E64343EAC4
:102E200005238D6824F4005444EA0534064DA84275
:102E300004D14D6922F4804242EA85124260C361A6
:102E400049680164046230BD002C014010B5406A3D
:102E50000021C185C184FFF75EF910BD01680C3106
:102E600051E8002F22F4907241E80023002BF5D1A5
:102E70000168143151E8002F22F0010241E80023DB
:102E8000002BF5D1016B012909D101680C3151E802
:102E9000002F22F0100241E80023002BF5D1202161
:102EA00080F8421000210163704708B590F8421085
:102EB000222901D0022008BD82684FF480539A4233
:102EC00001D1016921B1816A9A421BD04AB10AE05D
:102ED0000268816A5268C2F308020A80816A891C0A
:102EE00008E0026972B10268526802F07F020A705B
:102EF000816A491C8162C18D491E0904090CC18582
:102F000003D01BE002685268F1E70168CA6822F04A
:102F10002002CA600168CA6822F48072CA6001682F
:102F20004A6922F001024A61202180F84210002102
:102F30004163026B012A03D0FFF7A4FA002008BD09
:102F4000016301680C3151E8002F22F0100241E8C2
:102F50000023002BF5D101680A68D20602D50A6861
:102F600049680091818DFFF7D5F8E7E770B5044611
:102F700000680169E26821F440511143016121694F
:102F8000A0680843616908432168CA6841F20C637C
:102F90009A430243CA6020684169A26921F44071E2
:102FA000114341611E492068884202D1FEF754FD59
:102FB00001E0FEF741FD00EBC00101EB001260688B
:102FC00064218000B2FBF0F3B3FBF1F36FF018065D
:102FD0007343B2FBF0F5B2FBF0F605EB8305322349
:102FE00003EB0515B5FBF1F5B6FBF1F605F0F005C1
:102FF00005EB0615B2FBF0F6B2FBF0F0B0FBF1F01A
:103000006FF01802504306EB800003EB0010B0FB9A
:10301000F1F0216800F00F002844886070BD0000C6
:103020000038014081628285C285002141642221ED
:1030300080F84210016921B10168CA6842F48072C7
:10304000CA6001684A6942F001024A610068C168C9
:1030500041F02001C160002070472DE9F8439846F7
:1030600017460D460446089E24E0701C22D0FEF749
:10307000E7FAA0EB0800B0421AD8CEB12068C168C8
:10308000490717D5802D15D0402D13D00168C943AD
:1030900009070FD401680025406800902046FFF71B
:1030A000DDFE0820606484F840500120BDE8F8830C
:1030B0000320FBE72068006835EA000004D0002008
:1030C000B842D2D00020F1E70120F9E70148FFF72C
:1030D00023B80000E4000020FEE70907090E0028DD
:1030E00004DB00F1E02080F80014704700F00F00CE
:1030F00000F1E02080F8141D704700008EB0FEF74C
:10310000ADFAFFF785FDFFF7BBFAFFF791FAFFF77E
:10311000FDFAFFF733FB4FF00009C348CDF80490E8
:10312000CDF80890CDF80C90CDF8109081694D46FF
:1031300041F0040181618069BC4C00F00400009002
:103140004A4606212046FEF776FA06200190012025
:10315000CDE902050320049001A92046FEF776F987
:10316000FFF7EDFBB24C0122E11DA571B148FFF75D
:103170007BF900210823B0A20846FFF7A9FC082329
:10318000B0A202210020FFF7A3FC0823B1A2042172
:103190000020FFF79DFC0823B1A206210020FFF7C5
:1031A00097FC2571C8466571DFF8C0B26570474667
:1031B000464600BFFEF744FA0546607A002878D0FC
:1031C0000622ABA1A948FDF775F9002838D00322E3
:1031D000A9A1A648FDF76EF9002831D00622A7A1C3
:1031E000A248FDF767F958B30722A6A19F48FDF74B
:1031F00061F928B39BF80010462928D0662926D00B
:10320000522936D0722934D0A0A19848FDF72CFA63
:1032100000285DD09FA19548FDF726FA002857D0D9
:103220009EA19248FDF720FA00285BD09CA18F4810
:10323000FDF71AFA002855D06423112299A12FE036
:1032400084F808908BF8009084F809902BE00BF13B
:103250000100FDF703F90246401E092805D80120A8
:1032600060702071627194A111E06423112297A112
:1032700016E00BF10100FDF7F1F80246401E0928A7
:10328000F3D80120607002202071627194A105A81A
:10329000FCF7AAFF05A8FDF7EEF882B2642305A9A2
:1032A0006448FFF723F984F808908BF8009084F8BD
:1032B000099000F04FF9E81B192834D32F468D48A8
:1032C000FDF7E2FF0A218B48FDF740FF90B115E0C2
:1032D0000120607084F80490642384F805900A2229
:1032E00085A1DDE784F80190206964230E2285A181
:1032F0006061D5E77F48FDF76BFE2061607890B98B
:10330000206964214843C0F307300A21B0FBF1F083
:1033100060710A2801D9617100E010B101202071AB
:1033200001E084F80490A81B0F2808D32E46FFF76D
:1033300043FAE078A0722078E08184F80C90A5EB45
:1033400008006428FFF436AF0021A846082371A2C4
:103350000846FFF7BDFB607800285ED06EA2082308
:1033600000210C20FFF7B4FB08236DA200212420CC
:10337000FFF7AEFBA078012851D002284FF00803D8
:1033800050D02FA200213020FFF7A2FB082365A216
:1033900002210020FFF79CFB082502230095E2781C
:1033A00019460C20FFF76EFB08235FA202211820AC
:1033B000FFF78EFB00950323227802213C20FFF7C4
:1033C00061FB08235AA202214E20FFF781FB2078DF
:1033D00040F6B83148436421B0FBF1FA082355A206
:1033E00004210020FFF774FB0423524619461820DD
:1033F0000095FFF747FB082350A206210020FFF7A6
:1034000067FB00950423062118202269FFF73AFB89
:10341000FFF7DEFB84F80B90CCE64AA29FE7082377
:103420004AA2AFE74AA2ADE70010024000080140FF
:1034300000000020E40000204D3A41444320443A7B
:1034400053545000473A20302F313020533A202037
:103450003025000052504D3A20202030000000005E
:103460004144433A20202030000000002800002082
:1034700053706565643A00004F4B3A004572726FB5
:10348000723A0000556E6B6E6F776E0053544F505A
:103490000000000073746F7000000000414443009E
:1034A00061646300556E6B6E6F776E20436F6D6D58
:1034B000616E640D0A0000004F4B3A2046574420CD
:1034C000256420476561720D0A0000004572726F25
:1034D000723A204765617220312D31300D0A0000AB
:1034E0004F4B3A2052455620256420476561720DA6
:1034F0000A0000006C0000204F4B3A2053544F50FC
:103500000D0A00004F4B3A20414443204D6F646543
:103510000D0A00004D3A00005541525400000000D1
:10352000443A0000473A00002F313020533A00005F
:103530002500000052504D3A000000004144433A3B
:1035400000000000414443200000000046574400B2
:10355000524556003EB5164C607B002823D06A4683
:1035600014A11948FCF7ECFE0025012816D1684685
:10357000FCF774FF0A2811D8C2B202EB8201A272D2
:103580004900E181012178B1217162716170E172BC
:103590000D482173657210382572057065733221EC
:1035A0000948FDF717F83EBD25716571EEE700008B
:1035B000000000207B225370656564223A22255B5F
:1035C0005E225D227D0000003800002010B5002939
:1035D0000AD00878002807D005487844FDF744F859
:1035E000002801D0002010BD0248784410BD000022
:1035F000B6020000AE020000000000000000000063
:10360000002F000000000700070000147F147F1443
:1036100000242A7F2A1200231308646200364955C9
:10362000225000000503000000001C2241000000A1
:1036300041221C0000082A1C2A080008083E08082D
:103640000000503000000008080808080000606012
:103650000000002010080402003E5149453E0000D1
:10366000427F4000004261514946002141454B31B3
:10367000001814127F10002745454539003C4A497F
:1036800049300001710905030036494949360006F1
:103690004949291E00003636000000005636000059
:1036A00000000814224100141414141400412214C0
:1036B000080000020151090600324979413E007EAE
:1036C0001111117E007F49494936003E4141412296
:1036D000007F4141221C007F49494941007F09097F
:1036E0000101003E41415132007F0808087F00007F
:1036F000417F4100002040413F01007F08142241EA
:10370000007F40404040007F0204027F007F0408A9
:10371000107F003E4141413E007F09090906003EFD
:103720004151215E007F0919294600464949493126
:103730000001017F0101003F4040403F001F204049
:10374000201F007F2018207F0063140814630003EB
:10375000047804030061514945430000007F414162
:103760000002040810200041417F00000004020113
:1037700002040040404040400000010204000020DC
:1037800054545478007F484444380038444444201A
:1037900000384444487F00385454541800087E09C7
:1037A000010200081454543C007F0804047800000F
:1037B000447D4000002040443D0000007F1028442C
:1037C0000000417F4000007C04180478007C08045D
:1037D0000478003844444438007C14141408000869
:1037E0001414187C007C0804040800485454542025
:1037F00000043F444020003C4030403C001C20403E
:10380000201C003C4030403C004428102844000C60
:103810005050503C004464544C4400000836410071
:103820000000007F00000000413608000008040886
:103830001008010202030405060708090A0B0C0D13
:103840000E0F1010010202030405060708090A0BF7
:103850000C0D0E0F1010000000000000000001020F
:103860000304060708090000000001020304000029
:10387000A0390008000000202800000028010008EE
:10388000C83900082800002068070000440100082B
:103890001001000043000000F8FFFFFF004040401F
:1038A0004040404040404141414141404040404013
:1038B00040404040404040404040404040050202BF
:1038C000020202020202020202020202022020207E
:1038D00020202020202020020202020202029090DA
:1038E00090909090101010101010101010101010D8
:1038F000101010101010101002020202020288882C
:103900008888888808080808080808080808080837
:10391000080808080808080802020202400000001F
:103920000000000000000000000000000000000097
:103930000000000000000000000000000000000087
:103940000000000000000000000000000000000077
:103950000000000000000000000000000000000067
:103960000000000000000000000000000000000057
:103970000000000000000000000000000000000047
:103980000000000000000000000000000000000037
:103990000000000000000000000000000000000027
:1039A0000001000000000000000000000000000016
:1039B00000000000000000000100000010000000F6
:0839C0000000000000127A0073
:04000005080000ED02
:00000001FF
