:020000040800F2
:100000000807002099010008FF1B0008231A0008B8
:10001000FD1B0008070B00088D1F000800000000F2
:10002000000000000000000000000000191C000893
:10003000210B000800000000011C00081B1C000828
:10004000B3010008B3010008B3010008B3010008C0
:10005000B3010008B3010008ED0B0008F30B000822
:10006000F90B0008FF0B0008B3010008B3010008FA
:10007000B3010008B3010008B3010008B301000890
:10008000B3010008B3010008B3010008B301000880
:10009000B3010008B3010008B3010008050C000813
:1000A000B3010008B3010008B3010008B301000860
:1000B000B3010008B3010008B3010008B301000850
:1000C000B3010008B3010008B3010008B301000840
:1000D000B3010008011F0008B3010008B3010008C4
:1000E000B3010008B3010008B301000800F002F8F2
:1000F00000F043F80AA090E8000C82448344AAF17F
:100100000107DA4501D100F038F8AFF2090EBAE87C
:100110000F0013F0010F18BFFB1A43F0010318473B
:100120001C2000003C200000103A24BF78C878C191
:10013000FAD8520724BF30C830C144BF04680C60ED
:10014000704700000023002400250026103A28BF35
:1001500078C1FBD8520728BF30C148BF0B60704739
:100160001FB500F06DFC04000020002101F094FF99
:10017000401C60601FBD10B510BD00F03CFC114676
:10018000FFF7EEFF01F014FF00F06CFC03B4FFF783
:10019000F2FF03BC00F0B0FC094880470948004763
:1001A000FEE7FEE7FEE7FEE7FEE7FEE7FEE7FEE727
:1001B000FEE7FEE704480549054A064B7047000084
:1001C0007D1C0008ED000008080100200807002041
:1001D00008030020080300200FB400B58DB010A95B
:1001E000099000910B904FF0FF300A9000200C9086
:1001F000064878440690064878446A4607900F9966
:1002000009A800F03FF90DB05DF814FBAF02000043
:10021000C70200002DE9FF5F4FF000089946144621
:1002200046469169D2E901A7DDF838B001988847C0
:10023000054659EA0B0005D009E0A1690198761C32
:1002400088470546216A284688470028F5D1681C5A
:1002500003D05FEACA7005D015E04FF0FF3004B05C
:10026000BDE8F09F2068011D2160D0F800800AE001
:100270005FEACA7001D108F8015BA169761C019898
:100280007F1E88470546002F1ADD681C18D0B9F17B
:10029000000F0DD0E81705EBD060421120F01F00D1
:1002A00059F822102A1A012090400142E0D107E0BB
:1002B000BBF1000FDCD12846216A88470028D7D03F
:1002C000E16901988847BBF1000F07D1002E05DDD9
:1002D0005FEACA7002D1002188F80010A068B84215
:1002E00003DDBBF1000F03D017B16FF00100B6E7DB
:1002F0003046B4E770B5064600F0BAF80468054623
:1003000030460A22002100F0EDF82C6070BD10B5D7
:10031000431C02E010F8011B71B18107FAD14FF0C4
:10032000013202C88C1A8C4314EAC211F9D0C01AE7
:100330000A0603D0C01E10BDC01A10BD0A0401D0A9
:10034000801E10BD0902FCD0401E10BD032A40F2E1
:10035000308010F0030C00F0158011F8013BBCF167
:10036000020F624498BF11F801CB00F8013B38BF7F
:1003700011F8013BA2F1040298BF00F801CB38BF8D
:1003800000F8013B11F0030300F0E480083AC0F0EC
:10039000088051F8043B083A51F804CBA0E8081053
:1003A000F5E7121D5CBF51F8043B40F8043BAFF386
:1003B0000080D20724BF11F8013B11F801CB48BFE0
:1003C00011F8012B24BF00F8013B00F801CB48BF16
:1003D00000F8012B70474FF000020429C0F0128092
:1003E00010F0030C00F01B80CCF1040CBCF1020FE8
:1003F00018BF00F8012BA8BF20F8022BA1EB0C01BD
:1004000000F00DB85FEAC17C24BF00F8012B00F8B2
:10041000012B48BF00F8012B70474FF0000200B5D8
:10042000134694469646203922BFA0E80C50A0E817
:100430000C50B1F12001BFF4F7AF090728BFA0E8C5
:100440000C5048BF0CC05DF804EB890028BF40F891
:10045000042B08BF704748BF20F8022B11F0804FD3
:1004600018BF00F8012B70477047704770470000B5
:1004700000487047A800002002681144137801600A
:1004800018467047D160054979445161044979445F
:10049000116200211161114600F0A4B8EDFFFFFFC9
:1004A0003F010000426842B1016811F8013B23B1ED
:1004B000521EC0E90012184670470121C160881E13
:1004C000704742685AB1C368016843B983688B4278
:1004D00005D0491E521CC0E90012002070474FF0A1
:1004E000FF3070472DE9F04791460F46804604469D
:1004F000002614F8015B2DB100F062F80068405D41
:10050000C007F6D12B2D02D02D2D18D0641E4A46DF
:100510003946204600F020FA27B13968A14201D1BE
:10052000C7F800804FF0020471050BD54042002847
:1005300003DDFFF79DFF0460A007BDE8F08746F4E8
:100540008066E4E70028F8DAFFF792FF04606FF0B6
:100550000040F2E710B5203AC0F00B80B1E8185027
:10056000203AA0E81850B1E81850A0E81850BFF49D
:10057000F5AF5FEA027C24BFB1E81850A0E818503C
:1005800044BF18C918C0BDE810405FEA827C24BF90
:1005900051F8043B40F8043B08BF7047D20728BF1E
:1005A00031F8023B48BF11F8012B28BF20F8023B6D
:1005B00048BF00F8012B704700487047A800002092
:1005C00010B500F03DFA001D10BD00BFCD1A0000AF
:1005D00010B50446FFF7F4FF0068005D00F001006D
:1005E00010BD00002DE9F34F4FF0000A0C465646AF
:1005F0008DB001200C9001F10C000B9062690B98FA
:1006000001219047051E2DD0252D2CD0216A884729
:10061000C0B162690B9801219047216A8847002880
:10062000F7D16269411E0B98904700E0761CA169E2
:100630000D988847216A88470028F7D1E1690D980D
:100640008847DBE7A1690D988847A842074601D192
:10065000761CD3E7E1690D9888477F1C02D1BAF177
:10066000000F6FD06CE162690B9800273D46394658
:1006700090472A2804D162690B98012190470125EF
:10068000DFF8D08262690B9801219047A0F1300118
:100690000A290AD24745E5DC07EB870100EB410751
:1006A000303FDFD445F01005ECE7E90601D46FF0E8
:1006B00000476C280AD04C2814D0682815D06A2826
:1006C0000DD074281CD07A281AD01DE062690B98CE
:1006D000012190476C2802D045F0040514E045F054
:1006E00002050DE045F020050AE062690B98012142
:1006F0009047682802D045F0080505E045F40065FC
:1007000062690B9801219047C4E9015765283DD0E3
:1007100019DC58287AD00CDC452837D004DC252891
:1007200026D041289ED131E046282FD0472899D1A4
:100730002CE05B2877D0612828D063287CD06428FF
:1007400023D15AE0F7E06F2848D008DC66281DD096
:1007500067281BD0692821D06E2816D127E0702881
:1007600045D0732868D0752847D078280DD14DE042
:10077000A1690D988847252805463FF469AFE169CE
:100780000D9888476D1C3FF46AAFD9E00D99234658
:100790006A466FF00100AFF30080C6E045F040000C
:1007A00023464FF000026060A80736D43EE0E80719
:1007B0007FF447AF2068011D21600068290501D53D
:1007C00006701BE7290701D5068017E7A90703D59F
:1007D000F117C0E9006111E706600FE745F040003E
:1007E00023464FF008026060A80716D41EE040F6CA
:1007F0000E0125EA0100606016E045F04000234646
:100800004FF00A026060A80707D40FE045F04000EF
:100810006060A80708D5234610220D996FF00100EB
:10082000AFF3008081E007E0102223460D996FF0BE
:100830000100AFF3008078E04FF0000963284F46D5
:10084000C8464B46CB4602D05B2807D039E020791A
:10085000C00601D40120A060012732E06269D4F80B
:100860000CB00B98012190475E2807D14FF0010989
:1008700049466269D4F80CB00B989047216939B9A0
:1008800000210A4603AB43F82120491C0829FADB62
:10089000D8B3216949B308F1010862690B980121B5
:1008A00090475D28F4D1B9F1000F09D0002003A9C9
:1008B00051F82020D24341F82020401C0828F7DBC3
:1008C00003AB2069002820794FEA40701ED05B46B8
:1008D0002246CDF80080CDE901970D9900286FF0F0
:1008E000010020DAAFF300801FE0C11703AA00EB7C
:1008F000D1614B1121F01F0102EB8302411A1368F1
:100900000120884003431360C7E719E00D99224690
:1009100000286FF00100009702DAAFF3008004E0D6
:10092000FFF778FC01E0AFF3008000280ADA401CF2
:1009300006D10C9820B14FF0FF300FB0BDE8F08F1A
:100940005046FAE7E90701D10AF1010A06440020FE
:100950000C9053E6CCCCCC0C2DE9F05F82461546CA
:100960008B4600270AF10104B9460078302801D0EF
:100970009DB113E014F8010B0127782803D0582803
:1009800001D045B10AE00DB1102D07D1002714F8B0
:10099000010B102502E0082500E00A250026B046DC
:1009A0000EE005FB080005FB06F101271FFA80F8A1
:1009B00001EB1046B6F5803F00D3B94614F8010BA1
:1009C000294600F041F80028EBDABBF1000F05D012
:1009D0000FB1641E00E05446CBF80040B9F1000F9F
:1009E00006D0FFF745FD02210160C81EBDE8F09F5B
:1009F00048EA0640FAE77546FFF7DEFDAE46050019
:100A00006946534620F00700854618B020B5FFF729
:100A1000D1FBBDE820404FF000064FF000074FF03B
:100A200000084FF0000B21F00701AC46ACE8C0090C
:100A3000ACE8C009ACE8C009ACE8C0098D46704715
:100A400000487047C80000203A2800D2303820F013
:100A50002002412A01D3A2F13700884201D34FF08E
:100A6000FF30704710B50446AFF300802046BDE864
:100A70001040FFF78BBB00004FF0013C50F8042BF7
:100A800051F8043B9A4221D1A2EB0C03934313EAA1
:100A9000CC1317D150F8042B51F8043B9A4215D1CE
:100AA000A2EB0C03934313EACC130BD150F8042BA5
:100AB00051F8043B9A4209D1A2EB0C03934313EA89
:100AC000CC13DBD04FF00000704700BFD01A01BA42
:100AD000B1FA81F101F0180122FA01F0CB40C1F125
:100AE0002001DBB2C0B2C01A2CFA01F3D11A914333
:100AF00011EAC311E6D1704701491820ABBEFEE7E9
:100B0000260002007047FEE7002801DA002002E01C
:100B1000632800DD63200149087070470000002051
:100B20007047000010B586B000200290134881691C
:100B300041F0080181618069114C00F008000490C7
:100B4000FF2000900120019002200390694620467A
:100B500000F020F94FF4407000906946204600F004
:100B600019F90022A115204600F009FA00226115AA
:100B7000204600F004FA06B010BD0000001002404C
:100B8000000C01400A222DE9F041B0FBF2F3B0FB6A
:100B9000F2F1144D02FB1304685C01F033F80122FA
:100BA000114E17023946304600F0E9F9012000F0F5
:100BB0009DF800223946304600F0E1F9285D01F049
:100BC00021F8012254022146304600F0D8F90120D4
:100BD00000F08CF821463046BDE8F041002200F0DC
:100BE000CEB90000EE200008000C0140012000F00A
:100BF000C5B8022000F0C2B8042000F0BFB8082039
:100C000000F0BCB8402000F0B9B872B6FEE710B5ED
:100C100090F821100022022905D00421816380F878
:100C20002020012010BD01680B6823F00E030B602B
:100C300001680B6823F001030B6090F84030C46B2F
:100C4000012101FA03F3636080F8211080F820206D
:100C5000104610BD10B590F821100024022903D0D1
:100C60000421816301243DE001680A6822F00E023C
:100C70000A6001680A6822F001020A601A4A0168E3
:100C8000914201D1012121E0174A1432914201D150
:100C900010211BE0144A2832914201D1891515E038
:100CA000114A3C32914201D189140FE00E4A503270
:100CB000914202D14FF4803108E00B4A64329142F4
:100CC00002D14FF4801101E04FF08071064A083ADA
:100CD0005160012180F82110002180F82010416B23
:100CE00001B18847204610BD0800024070B5044697
:100CF00000F04AF90546601C02D00448007804441C
:100D000000F042F9401BA042FAD370BD040000205D
:100D100010B5044600F038F91649012C14D0402CC7
:100D200019D0022C21D0042C21D0082C0BD1022266
:100D3000114B53F82240041BC82C04D343F8220063
:100D4000521C0A70486010BDCA68821AC82AFAD3B9
:100D5000C860042005E00A69821AC82AF3D3086132
:100D60000520BDE8104001F0F9B80022E0E70122BB
:100D7000DEE70000140000209C000020044910B5AC
:100D80000A68024202D00860FFF7C2FF10BD0000EF
:100D9000140401402DE9F84FDFF8B8910024A9F1BF
:100DA000040B23460F2709F1040AABF1040EC9E036
:100DB0000125A5402A40AA427DD1674ED1F804C042
:100DC000ACEB0608B44532D014DCBCF1030F3AD0CA
:100DD00009DCBCF1000F2AD0BCF1010F1CD0BCF122
:100DE000020F31D11DE0BCF1110F17D0BCF1120F71
:100DF0002AD119E0B8F5881F19D006DCB8F5803F74
:100E000015D0B8F5801F1FD111E0B8F5001F0ED026
:100E1000B8F5041F18D10AE0CB6815E0CB681B1D9C
:100E200012E0CB6808330FE0CB680C330CE08B6822
:100E30002BB1012B4FF0080303D0456104E00423DC
:100E400002E0056100E00023FF2A01D8064601E028
:100E500000F104064FEA840501D9A5F12005D6F872
:100E6000008007FA05FC28EA0C0803FA05F548EAB1
:100E70000508C6F800804D68ED0062D5374DAE69B3
:100E800046F00106AE61AD6924F0030605F00105E8
:100E90000095334D06EB050CDCF80850A607360F1D
:100EA00007FA06F825EA0805DFF8B880404503D1BF
:100EB0004FF0000817E044E0DFF8AC80404502D175
:100EC0004FF001080FE0DFF8A480404502D14FF059
:100ED000020808E0DFF89880404502D14FF003088F
:100EE00001E04FF0040808FA06F848EA0508CCF8D3
:100EF00008804D68D9F80060ED024D4601D51643D3
:100F000000E096432E604D68DAF80060AD02554669
:100F100001D5164300E096432E604D68DBF8006073
:100F2000AD035D4601D5164300E096432E604D6843
:100F3000DEF80060ED03754601D5164300E09643E8
:100F40002E60641C0D682A46E5407FF431AFBDE891
:100F5000F88F00000804014000001110001002404A
:100F60000000014000080140000C01400010014059
:100F7000001401408068084000D0012070470AB189
:100F8000016170470904FBE7014880687047000071
:100F90000400002002488168027811448160704793
:100FA00004000020074810B5016841F010010160FD
:100FB000032000F075F80F2000F006F800F024F888
:100FC000002010BD0020024070B50D4D04464FF4C6
:100FD0007A712878B1FBF0F00A490968B1FBF0F0AA
:100FE00000F0DCFA48B9102C07D200222146501E2E
:100FF00000F036F800206C6070BD012070BD00006C
:1010000004000020100000200C4808B5816941F060
:1010100001018161816901F001010091C16941F023
:101020008051C161C06900F080500090044841685F
:1010300021F0E06141F08061416008BD0010024094
:1010400000000140002809DB00F01F02012191404F
:101050004009800000F1E020C0F800117047000056
:10106000F0B40E4B1B680C46C3F30223C3F1070513
:10107000042D00D90425191D072901D2002300E001
:10108000DB1E012606FA05F1491E214099409E40CB
:10109000761E16403143F0BC00F079BF0CED00E045
:1010A000064900F0070208684FF6FF03184040EABF
:1010B0000220034A10430860704700000CED00E076
:1010C0000000FA052DE9F0470F46050061D0434EB8
:1010D000306800F00700B84209D2306820F00700FD
:1010E00038433060306800F00700B84251D12868BA
:1010F0003B4C810712D5400703D5606840F4E0609F
:1011000060602878000703D5606840F46050606034
:101110006068A96820F0F000084360602878C00784
:1011200028D06868012810D02168022810D08907CB
:1011300000292EDA616821F0030101436160FFF7A5
:1011400023FF804641F288390DE021688903EFE7EB
:101150008901EDE7FFF718FFA0EB0801494502D927
:101160000320BDE8F0876068696800F00C00B0EB10
:10117000810FEFD1306800F00700B8420BD930681A
:1011800020F0070038433060306800F00700B842B4
:1011900001D00120E5E72878400705D56068E968B7
:1011A00020F4E060084360602878000706D5606896
:1011B000296920F4605040EAC100606000F038F80E
:1011C0006168084AC1F30311515CC84006490860D0
:1011D00006480068FFF7F8FE0020C2E70020024042
:1011E00000100240D6200008100000200800002057
:1011F0000448054900684968044AC1F30221515C6A
:10120000C84070471000002000100240E62000088F
:101210000448054900684968044AC1F3C221515C89
:10122000C84070471000002000100240E62000086F
:101230000E4A51680E4801F00C03042B11D0082B04
:101240000FD10C48C1F38343C903C05C0AD5516870
:10125000084AC1F34041921E515C054A5043B0FB1D
:10126000F1F0704704494843704700000010024005
:1012700000127A00C620000800093D002DE9F84F51
:10128000040070D02078C04DC00749D06868C0F312
:101290008100012807D06868C0F38100022809D1C5
:1012A0006868C00306D52868800339D560680028BF
:1012B000E7D035E06068B0F5803F0BD010B1B0F5F5
:1012C000A02F11D0286820F480302860286820F4EE
:1012D000802002E0286840F480302860606890B187
:1012E000FFF752FE06460AE0286840F48020286096
:1012F000F0E700BFFFF748FE801B642873D828681A
:101300008003F7D50CE0FFF73FFE064605E000BF7F
:10131000FFF73AFE801B6428F0D828688003F7D4D2
:1013200020789A4E80074FF001094FF0000839D518
:10133000686810F00C0F07D06868C0F381000228BD
:1013400009D16868C00306D42868800714D52069CD
:10135000012808D110E02069B0B1C6F80090FFF76D
:1013600013FE074605E00AE1FFF70EFEC01B022848
:10137000C4D828688007F7D52868616920F0F8008C
:1013800040EAC10028600DE0C6F80080FFF7FCFDD0
:10139000074604E0FFF7F8FDC01B022823D82868A1
:1013A0008007F7D4207800072CD57948A169D9B1F6
:1013B000C0F80090FFF7E8FD074604E0FFF7E4FD02
:1013C000C01B02280FD8686A8007F7D571484FF410
:1013D000FA510068B0FBF1F0009000BF0098411E88
:1013E0000091FAD20EE080E0C0F80080FFF7CCFD5B
:1013F000074604E0FFF7C8FDC01B022875D8686ADD
:101400008007F7D42078400760D5E8690027C0003E
:1014100008D4E86940F08050E861E869012700F0ED
:10142000805000905C480168C90513D40168834668
:1014300041F480710160FFF7A7FD824606E000BF1E
:10144000FFF7A2FDA0EB0A0064284ED8DBF80000ED
:10145000C005F5D5E06801280AD008B1052813D0E9
:10146000286A20F001002862286A20F0040002E0C7
:10147000286A40F001002862E06841F2883B98B198
:10148000FFF782FD82460BE0286A40F004002862E4
:10149000EEE700BFFFF778FDA0EB0A0159455AD8E7
:1014A000286A8007F6D50CE0FFF76EFD824605E05E
:1014B000FFF76AFDA0EB0A0159454CD8286A80075E
:1014C000F6D41FB1E86920F08050E861E06988B384
:1014D0006968C1F38101022944D00228C6F86080FE
:1014E00004D0FFF751FD044638E034E0FFF74CFD2F
:1014F000074604E0FFF748FDC01B02282BD82868E8
:101500008001F7D4206AB0F5803F05D16868A168F2
:1015100020F4003008436860D4E908010843696892
:1015200021F4741108436860C6F86090FFF72CFD41
:10153000044606E025E000BFFFF726FD001B022859
:1015400009D828688001F7D51BE000BFFFF71CFD14
:10155000001B022802D90320BDE8F88F286880010B
:10156000F4D40EE00128F7D06868226A00F48031D4
:10157000914204D1616A00F47010884201D00120C8
:10158000EAE70020E8E700000010024000004242C5
:1015900080044242100000200070004010B5401E40
:1015A000B0F1807F01D3012010BD4FF0E0246061D5
:1015B0000F21601700F0EBFC0020A06107202061E4
:1015C000002010BD70477047F8B5016804460868F0
:1015D000CA684B6910F00F0F4FF0000559D003F0A7
:1015E000010602F49077374365D0C10705D0D105D5
:1015F00003D5616C41F001016164410705D5D9074C
:1016000003D0616C41F002016164810705D5D907FF
:1016100003D0616C41F004016164010707D502F059
:101620002001314303D0616C41F008016164616CB9
:1016300000293AD0800604D5900602D5204600F055
:101640004DFB20684069616CC0F38010090700D42D
:1016500060B3204600F01BFB20684069400621D59E
:101660002068143050E8001F21F0400140E80012CB
:10167000002AF5D1E06BA8B16D494163E06BFFF73B
:10168000E9FA002811D0E06B416B01B0BDE8F040F1
:10169000084783060FD593060DD52046BDE8F840D0
:1016A00000F01CBB2046FFF78EFFF8BD2046FFF779
:1016B0008AFF6564F8BD266B2023012E7CD1C60607
:1016C0007AD5D60678D508684868009048694FF002
:1016D0000206400640D5E16B086840680004000C33
:1016E000E8D0A28D8242E5D9E085886920282DD0F6
:1016F00020680C3050E8001F21F4807140E800128F
:10170000002AF5D12068143050E8001F21F00101B3
:1017100040E80012002AF5D12068143050E8001F7C
:1017200021F0400140E80012002AF5D184F842304F
:10173000256320680C3050E8001F21F0100140E8BC
:101740000012002AF5D1E06BFFF761FA6663A08D05
:10175000E18D401A81B22AE0A08DE18D401A81B25C
:10176000E08D0028A6D00029A4D022680C3252E8CF
:10177000000F20F4907042E80007002FF5D1206898
:10178000143050E8002F22F0010240E80027002F1B
:10179000F5D184F84230256320680C3050E8002FE2
:1017A00022F0100240E80023002BF5D166632046AA
:1017B000FFF708FFF8BDFFE705062BD5150629D56D
:1017C00094F841002128F5D1A068B0F5805F01D1DF
:1017D0002069B0B1206A411C21622168007848600C
:1017E000E08C401E0004000CE084E3D12068C16856
:1017F00021F08001C1602068C16841F04001C160F2
:10180000D8E7206A0088C0F308004860206A801C7E
:101810002062E5E74006CDD55006CBD5CA68204604
:1018200022F04002CA6084F8413000F0F9F8C1E7C4
:101830007F1C000870B5040004D094F84100002516
:1018400010B106E0012070BD84F84050204600F041
:1018500023F8242084F841002068C16821F4005155
:10186000C160204600F09CFA2068016921F4904193
:1018700001612068416921F02A0141612068C16845
:1018800041F40051C1606564202084F8410084F86F
:1018900042006563002070BD30B585B0002400941F
:1018A0000194029403940068184988422CD1184886
:1018B000816941F480418161816901F48041049131
:1018C000816941F0040181618069124D00F00400DA
:1018D00004904FF4007000900220019003200390C8
:1018E00069462846FFF756FA2815CDE900046946EF
:1018F00028460294FFF74EFA002211462520FFF7F2
:10190000AFFB2520FFF79EFB05B030BD003801403E
:10191000001002400008014090F84230202B01D016
:101920000220704721B11AB10023036300F094BA7A
:101930000120704700680E49884218D10D4841784F
:101940001F2907D20C4AC3785354491CC9B24170AD
:1019500000235354C1780D2901D00A2901D1012156
:10196000817004490122C91C0448FFF7D5BF7047A4
:101970000038014000000020340000205400002006
:101980002DE9F843044690F84100984616460D4666
:10199000202802D00220BDE8F88385B17EB1002066
:1019A0006064212084F84100FFF7EEFAA6848146A6
:1019B000E684A0682027B0F5805F02D003E0012014
:1019C000E9E7206910B12E4600250EE000260CE064
:1019D0008021204600F05BFAA8B9C6B116F8010BC9
:1019E00021684860E08C401EE084E08C4B464FF05C
:1019F0000002CDF800800028EAD14FF040012046D7
:101A000000F045FA40B184F841700320C3E735F88F
:101A1000020BC0F30800E3E784F841700020BAE746
:101A20007047FEE770B5204C2078204E0025012835
:101A300004D102213046FFF79DFA78B120780228C0
:101A400004D104213046FFF795FA38B120780328F5
:101A500006D108213046FFF78DFA08B92570657068
:101A60002078002813D0FFF78FFA6168411AC8293F
:101A70000ED26178B1B901216170A060207801288F
:101A800005D0022803D003280CD12570657070BDE5
:101A9000A168411AC82905D3A06020780128F6D092
:101AA0000228F4D0002070BD14000020000801407E
:101AB0002DE9F04385B000243E480094019402943F
:101AC0000394816941F010018161816901F0100185
:101AD0000491816941F020018161816901F0200157
:101AE0000491816941F004018161816901F004017F
:101AF0000491816941F0080181618069DFF8B88053
:101B000000F008000490012230214046FFF737FA28
:101B1000DFF8A89040F2FF37002239464846FFF729
:101B20002EFA4F20009026480225CDE9010569468E
:101B30004046FFF72FF93020009011200126CDE913
:101B400001060320039069464046FFF723F9CDE9DB
:101B5000007669464846CDE90245FFF71BF90022A9
:101B600011460620FFF77CFA0620FFF76BFA0022E9
:101B700011460720FFF774FA0720FFF763FA0022E7
:101B800011460820FFF76CFA0820FFF75BFA0022E5
:101B900011460920FFF764FA0920FFF753FA0022E3
:101BA00011461720FFF75CFA1720FFF74BFA05B034
:101BB000BDE8F0830010024000080140000C014025
:101BC000000011100C4810B50A4901604FF416517D
:101BD0004160002181600C22C160C0E90412816172
:101BE000C161FFF727FE002803D0BDE81040FFF7D2
:101BF0000CB810BD0038014054000020FEE7FEE79D
:101C00007047000003490A6822F0FF0202430A609D
:101C1000704700000C0C01407047FFF7BBB930B5AE
:101C20008FB028216846FEF7F8FB14210AA8FEF7BA
:101C3000F4FB01210804CDE90010002402940225E0
:101C40000491CDE907504FF4E01009906846FFF782
:101C500015FB08B172B6FEE70F20CDE90A054FF477
:101C60008060CDE90C4002210AA80E94FFF72AFA01
:101C7000002801D072B6FEE70FB030BD704710B536
:101C8000406A0021C185C184FFF79DFC10BD016839
:101C90000C3151E8002F22F4907241E80023002B10
:101CA000F5D10168143151E8002F22F0010241E81A
:101CB0000023002BF5D1016B012909D101680C31FA
:101CC00051E8002F22F0100241E80023002BF5D14B
:101CD000202180F8421000210163704708B590F878
:101CE0004210222901D0022008BD82684FF480539F
:101CF0009A4201D1016921B1816A9A421BD04AB14D
:101D00000AE00268816A5268C2F308020A80816AA6
:101D1000891C08E0026972B10268526802F07F0211
:101D20000A70816A491C8162C18D491E0904090C2F
:101D3000C18503D01BE002685268F1E70168CA68F8
:101D400022F02002CA600168CA6822F48072CA6068
:101D500001684A6922F001024A61202180F842109C
:101D600000214163026B012A03D0FFF7E3FD00204D
:101D700008BD016301680C3151E8002F22F0100208
:101D800041E80023002BF5D101680A68D20602D58C
:101D90000A6849680091818DFFF714FCE7E70000AD
:101DA00070B5044600680169E26821F440511143AE
:101DB00001612169A0680843616908432168CA6814
:101DC00041F20C639A430243CA6020684169A269E8
:101DD00021F44071114341611E492068884202D1BB
:101DE000FFF716FA01E0FFF703FA00EBC00101EB81
:101DF0000012606864218000B2FBF0F3B3FBF1F3E2
:101E00006FF018067343B2FBF0F5B2FBF0F605EB8A
:101E10008305322303EB0515B5FBF1F5B6FBF1F6AF
:101E200005F0F00505EB0615B2FBF0F6B2FBF0F09D
:101E3000B0FBF1F06FF01802504306EB800003EBAB
:101E40000010B0FBF1F0216800F00F00284488601A
:101E500070BD00000038014081628285C28500218A
:101E60004164222180F84210016921B10168CA68E9
:101E700042F48072CA6001684A6942F001024A6114
:101E80000068C16841F02001C160002070472DE961
:101E9000F843984617460D460446089E24E0701CF9
:101EA00022D0FFF771F8A0EB0800B0421AD8CEB1EB
:101EB0002068C168490717D5802D15D0402D13D053
:101EC0000168C94309070FD40168002540680090E4
:101ED0002046FFF7DCFE0820606484F840500120B3
:101EE000BDE8F8830320FBE72068006835EA0000BE
:101EF00004D00020B842D2D00020F1E70120F9E759
:101F00000148FFF761BB0000540000202DE9F041BB
:101F10000F4D104EAC1E14E06078285C6178491CAF
:101F200001F007016170411E04290AD856F820709B
:101F30003846FEF7ECF982B2642339460648FFF7CB
:101F40001FFD607821788842E6D1BDE8F08100006D
:101F50002A000020F82000085400002030B5002896
:101F600010D0EFF3108172B6074A137854785B1CD7
:101F700003F00703A34203D01578941C6055137037
:101F800081F3108830BD000028000020FEE709071B
:101F9000090E002804DB00F1E02080F800147047EF
:101FA00000F00F0000F1E02080F8141D70470000E1
:101FB000FEF7F8FFFFF733FEFFF77AFDFFF702FEAB
:101FC000FEF7B0FD012216491648FFF7A5FC144C98
:101FD000E41E16E002280AD0032810D11BE0207866
:101FE00063280CD2401CFEF78FFD012005E020780D
:101FF00028B1401EFEF788FD0220FFF7AFFFFFF774
:1020000085FF2078FEF7BEFD00F00EF8FFF70AFD11
:102010000128E4D0DEE70020FEF776FD0320ECE7A0
:10202000030000205400002030B5134D8BB0A87879
:1020300000281ED0EFF3108472B620220F496846A4
:10204000FEF784F900208DF81F00A8706870202129
:102050000A48FEF7C0F984F3108808AA08A1684668
:10206000FEF7BAF8012804D108A8FEF743F9FEF7F5
:102070004BFD0BB030BD00000000002034000020FC
:102080007B22476F6F64734E756D626572223A22D0
:10209000255B5E225D227D0010B500290AD00878FC
:1020A000002807D005487844FEF7E6FC002801D058
:1020B000002010BD0248784410BD0000B6000000AA
:1020C000AE000000010202030405060708090A0B1E
:1020D0000C0D0E0F101000000000000000000102A7
:1020E0000304060708090000000001020304C0F908
:1020F000A4B0999282F88090382100081821000835
:1021000010210008202100082821000830210008A3
:102110005355420D0A0000004144440D0A000000DE
:102120005A45524F0D0A00004553544F500D0A00B6
:1021300052455345540D0A00000000006C2200086F
:10214000000000203400000028010008A022000840
:1021500034000020D40600004401000810010000F3
:1021600043000000F8FFFFFF004040404040404077
:10217000404041414141414040404040404040405A
:1021800040404040404040404005020202020202FE
:10219000020202020202020202202020202020204D
:1021A0002020200202020202020290909090909061
:1021B000101010101010101010101010101010101F
:1021C0001010101002020202020288888888888893
:1021D000080808080808080808080808080808087F
:1021E0000808080802020202400000000000000087
:1021F00000000000000000000000000000000000DF
:1022000000000000000000000000000000000000CE
:1022100000000000000000000000000000000000BE
:1022200000000000000000000000000000000000AE
:10223000000000000000000000000000000000009E
:10224000000000000000000000000000000000008E
:10225000000000000000000000000000000000007E
:10226000000000000000000000000000000000006E
:1022700001000000100000000000000000127A00C1
:10228000000000000000000000000000000000004E
:10229000000000000000000000000000000000003E
:04000005080000ED02
:00000001FF
