:020000040800F2
:100000000007002099010008871A0008C718000897
:10001000851A0008970900080D1E0008000000005E
:10002000000000000000000000000000A11A00080D
:100030009909000800000000891A00081D1B00082B
:10004000B3010008B3010008B3010008B3010008C0
:10005000B3010008B3010008650A00086B0A000834
:10006000710A0008770A0008B3010008B30100080C
:10007000B3010008B3010008B3010008B301000890
:10008000B3010008B3010008B3010008B301000880
:10009000B3010008B3010008B30100087D0A00089D
:1000A000B3010008B3010008B3010008B301000860
:1000B000B3010008B3010008B3010008B301000850
:1000C000B3010008B3010008B3010008B301000840
:1000D000B3010008011E0008B3010008B3010008C5
:1000E000B3010008B3010008B301000800F002F8F2
:1000F00000F043F80AA090E8000C82448344AAF17F
:100100000107DA4501D100F038F8AFF2090EBAE87C
:100110000F0013F0010F18BFFB1A43F0010318473B
:10012000C81E0000E81E0000103A24BF78C878C13D
:10013000FAD8520724BF30C830C144BF04680C60ED
:10014000704700000023002400250026103A28BF35
:1001500078C1FBD8520728BF30C148BF0B60704739
:100160001FB500F0B5FB04000020002101F00CFFDA
:10017000401C60601FBD10B510BD00F084FB11462F
:10018000FFF7EEFF01F054FE00F0B4FB03B4FFF7FD
:10019000F2FF03BC00F0F8FB09488047094800471C
:1001A000FEE7FEE7FEE7FEE7FEE7FEE7FEE7FEE727
:1001B000FEE7FEE704480549054A064B7047000084
:1001C0007F1B0008ED000008000100200007002050
:1001D00000030020000300200FB400B58DB010A96B
:1001E000099000910B904FF0FF300A9000200C9086
:1001F000064878440690064878446A4607900F9966
:1002000009A800F0B9F80DB05DF814FBA3010000D7
:10021000BB0100002DE9FF5F4FF00008994614462E
:1002200046469169D2E901A7DDF838B001988847C0
:10023000054659EA0B0005D009E0A1690198761C32
:1002400088470546216A284688470028F5D1681C5A
:1002500003D05FEACA7005D015E04FF0FF3004B05C
:10026000BDE8F09F2068011D2160D0F800800AE001
:100270005FEACA7001D108F8015BA169761C019898
:100280007F1E88470546002F1ADD681C18D0B9F17B
:10029000000F0DD0E81705EBD060421120F01F00D1
:1002A00059F822102A1A012090400142E0D107E0BB
:1002B000BBF1000FDCD12846216A88470028D7D03F
:1002C000E16901988847BBF1000F07D1002E05DDD9
:1002D0005FEACA7002D1002188F80010A068B84215
:1002E00003DDBBF1000F03D017B16FF00100B6E7DB
:1002F0003046B4E770B5064600F034F804680546A9
:1003000030460A22002100F067F82C6070BD4FF0E3
:10031000000200B5134694469646203922BFA0E855
:100320000C50A0E80C50B1F12001BFF4F7AF090761
:1003300028BFA0E80C5048BF0CC05DF804EB890052
:1003400028BF40F8042B08BF704748BF20F8022B95
:1003500011F0804F18BF00F8012B704770477047AD
:1003600070470000004870479C000020026811445C
:100370001378016018467047D1600549794451618E
:1003800004497944116200211161114600F072B8EC
:10039000EDFFFFFFDB000000426842B1016811F889
:1003A000013B23B1521EC0E90012184670470121DB
:1003B000C160881E704742685AB1C368016843B97A
:1003C00083688B4205D0491E521CC0E900120020F0
:1003D00070474FF0FF3070472DE9F04791460F46C8
:1003E00080460446002614F8015B2DB100F030F879
:1003F0000068405DC007F6D12B2D02D02D2D18D0FE
:10040000641E4A463946204600F0EEF927B13968A5
:10041000A14201D1C7F800804FF0020471050BD54D
:100420004042002803DDFFF79DFF0460A007BDE800
:10043000F08746F48066E4E70028F8DAFFF792FFD9
:1004400004606FF00040F2E7004870479C00002015
:1004500010B500F03DFA001D10BD00BF2D1B0000BF
:1004600010B50446FFF7F4FF0068005D00F00100DE
:1004700010BD00002DE9F34F4FF0000A0C46564620
:100480008DB001200C9001F10C000B9062690B986B
:1004900001219047051E2DD0252D2CD0216A88479B
:1004A000C0B162690B9801219047216A88470028F2
:1004B000F7D16269411E0B98904700E0761CA16954
:1004C0000D988847216A88470028F7D1E1690D987F
:1004D0008847DBE7A1690D988847A842074601D104
:1004E000761CD3E7E1690D9888477F1C02D1BAF1E9
:1004F000000F6FD06CE162690B9800273D463946CA
:1005000090472A2804D162690B9801219047012560
:10051000DFF8D08262690B9801219047A0F1300189
:100520000A290AD24745E5DC07EB870100EB4107C2
:10053000303FDFD445F01005ECE7E90601D46FF059
:1005400000476C280AD04C2814D0682815D06A2897
:100550000DD074281CD07A281AD01DE062690B983F
:10056000012190476C2802D045F0040514E045F0C5
:1005700002050DE045F020050AE062690B980121B3
:100580009047682802D045F0080505E045F400656D
:1005900062690B9801219047C4E9015765283DD055
:1005A00019DC58287AD00CDC452837D004DC252803
:1005B00026D041289ED131E046282FD0472899D116
:1005C0002CE05B2877D0612828D063287CD0642871
:1005D00023D15AE0F7E06F2848D008DC66281DD008
:1005E00067281BD0692821D06E2816D127E07028F3
:1005F00045D0732868D0752847D078280DD14DE0B4
:10060000A1690D988847252805463FF469AFE1693F
:100610000D9888476D1C3FF46AAFD9E00D992346C9
:100620006A466FF00100AFF30080C6E045F040007D
:1006300023464FF000026060A80736D43EE0E8078A
:100640007FF447AF2068011D21600068290501D5AE
:1006500006701BE7290701D5068017E7A90703D510
:10066000F117C0E9006111E706600FE745F04000AF
:1006700023464FF008026060A80716D41EE040F63B
:100680000E0125EA0100606016E045F040002346B7
:100690004FF00A026060A80707D40FE045F0400061
:1006A0006060A80708D5234610220D996FF001005D
:1006B000AFF3008081E007E0102223460D996FF030
:1006C0000100AFF3008078E04FF0000963284F4647
:1006D000C8464B46CB4602D05B2807D039E020798C
:1006E000C00601D40120A060012732E06269D4F87D
:1006F0000CB00B98012190475E2807D14FF00109FB
:1007000049466269D4F80CB00B989047216939B911
:1007100000210A4603AB43F82120491C0829FADBD3
:10072000D8B3216949B308F1010862690B98012126
:1007300090475D28F4D1B9F1000F09D0002003A93A
:1007400051F82020D24341F82020401C0828F7DB34
:1007500003AB2069002820794FEA40701ED05B4629
:100760002246CDF80080CDE901970D9900286FF061
:10077000010020DAAFF300801FE0C11703AA00EBED
:10078000D1614B1121F01F0102EB8302411A136862
:100790000120884003431360C7E719E00D99224602
:1007A00000286FF00100009702DAAFF3008004E048
:1007B000FFF730FD01E0AFF3008000280ADA401CAB
:1007C00006D10C9820B14FF0FF300FB0BDE8F08F8C
:1007D0005046FAE7E90701D10AF1010A0644002070
:1007E0000C9053E6CCCCCC0C2DE9F05F824615463C
:1007F0008B4600270AF10104B9460078302801D061
:100800009DB113E014F8010B0127782803D0582874
:1008100001D045B10AE00DB1102D07D1002714F821
:10082000010B102502E0082500E00A250026B0464D
:100830000EE005FB080005FB06F101271FFA80F812
:1008400001EB1046B6F5803F00D3B94614F8010B12
:10085000294600F041F80028EBDABBF1000F05D083
:100860000FB1641E00E05446CBF80040B9F1000F10
:1008700006D0FFF777FD02210160C81EBDE8F09F9A
:1008800048EA0640FAE77546FFF7DEFDAE4605008A
:100890006946534620F00700854618B020B5FFF79B
:1008A00089FCBDE820404FF000064FF000074FF0F4
:1008B00000084FF0000B21F00701AC46ACE8C0097E
:1008C000ACE8C009ACE8C009ACE8C0098D46704787
:1008D00000487047BC0000203A2800D2303820F091
:1008E0002002412A01D3A2F13700884201D34FF000
:1008F000FF30704710B50446AFF300802046BDE8D6
:100900001040FFF743BC00004FF0013C50F8042BAF
:1009100051F8043B9A4221D1A2EB0C03934313EA12
:10092000CC1317D150F8042B51F8043B9A4215D13F
:10093000A2EB0C03934313EACC130BD150F8042B16
:1009400051F8043B9A4209D1A2EB0C03934313EAFA
:10095000CC13DBD04FF00000704700BFD01A01BAB3
:10096000B1FA81F101F0180122FA01F0CB40C1F196
:100970002001DBB2C0B2C01A2CFA01F3D11A9143A4
:1009800011EAC311E6D1704701491820ABBEFEE75A
:10099000260002007047FEE77047000010B586B0E1
:1009A000002002901348816941F00801816180694B
:1009B000114C00F008000490FF20009001200190ED
:1009C000022003906946204600F032F94FF440704F
:1009D00000906946204600F02BF90022A115204620
:1009E00000F01BFA00226115204600F016FA06B04E
:1009F00010BD000000100240000C01400A222DE949
:100A0000F041B0FBF2F3B0FBF2F1144D02FB130422
:100A1000685C01F03BF80122114E1702394630465E
:100A200000F0FBF9012000F09DF800223946304625
:100A300000F0F3F9285D01F029F801225402214663
:100A4000304600F0EAF9012000F08CF821463046EB
:100A5000BDE8F041002200F0E0B90000DE1F000810
:100A6000000C0140012000F0D7B8022000F0D4B8FB
:100A7000042000F0D1B8082000F0CEB8402000F0EB
:100A8000CBB872B6FEE710B590F82110002202290B
:100A900005D00421816380F82020012010BD016869
:100AA0000B6823F00E030B6001680B6823F0010351
:100AB0000B6090F84030C46B012101FA03F36360CE
:100AC00080F8211080F82020104610BD10B590F855
:100AD00021100024022903D00421816301243DE078
:100AE00001680A6822F00E020A6001680A6822F0B2
:100AF00001020A601A4A0168914201D1012121E0F4
:100B0000174A1432914201D110211BE0144A2832B5
:100B1000914201D1891515E0114A3C32914201D12F
:100B200089140FE00E4A5032914202D14FF48031C5
:100B300008E00B4A6432914202D14FF4801101E087
:100B40004FF08071064A083A5160012180F8211067
:100B5000002180F82010416B01B18847204610BD6C
:100B60000800024070B5044600F05CF90546601CC0
:100B700002D004480078044400F054F9401BA0421D
:100B8000FAD370BD1800002010B5044600F04AF9F1
:100B90001F49012C1CD0402C23D0022C2AD0042C1D
:100BA0002AD0082C32D102221A4B53F82240041BBF
:100BB000C82C2BD343F82200531CCB708860EAB1B9
:100BC000012A1FD0022A21D1BDE8104000F09ABFAF
:100BD000CA68821AC82A19D3C860BDE8104000F05C
:100BE0006DBF0A69821AC82A10D30861BDE8104097
:100BF00000F070BF0022D7E70122D5E7BDE8104022
:100C000000F050BFBDE8104000F070BF10BD000004
:100C10000000002028000020044910B50A680242A4
:100C200002D00860FFF7B0FF10BD000014040140BF
:100C30002DE9F84FDFF8B8910024A9F1040B234601
:100C40000F2709F1040AABF1040EC9E00125A54004
:100C50002A40AA427DD1674ED1F804C0ACEB060809
:100C6000B44532D014DCBCF1030F3AD009DCBCF13E
:100C7000000F2AD0BCF1010F1CD0BCF1020F31D102
:100C80001DE0BCF1110F17D0BCF1120F2AD119E0F1
:100C9000B8F5881F19D006DCB8F5803F15D0B8F537
:100CA000801F1FD111E0B8F5001F0ED0B8F5041F4A
:100CB00018D10AE0CB6815E0CB681B1D12E0CB68A9
:100CC00008330FE0CB680C330CE08B682BB1012BA1
:100CD0004FF0080303D0456104E0042302E00561FE
:100CE00000E00023FF2A01D8064601E000F10406D7
:100CF0004FEA840501D9A5F12005D6F8008007FA4E
:100D000005FC28EA0C0803FA05F548EA0508C6F8C8
:100D100000804D68ED0062D5374DAE6946F00106A2
:100D2000AE61AD6924F0030605F001050095334D71
:100D300006EB050CDCF80850A607360F07FA06F894
:100D400025EA0805DFF8B880404503D14FF00008D8
:100D500017E044E0DFF8AC80404502D14FF00108D5
:100D60000FE0DFF8A480404502D14FF0020808E010
:100D7000DFF89880404502D14FF0030801E04FF0C2
:100D8000040808FA06F848EA0508CCF808804D6817
:100D9000D9F80060ED024D4601D5164300E09643B8
:100DA0002E604D68DAF80060AD02554601D5164355
:100DB00000E096432E604D68DBF80060AD035D46B1
:100DC00001D5164300E096432E604D68DEF80060C2
:100DD000ED03754601D5164300E096432E60641C72
:100DE0000D682A46E5407FF431AFBDE8F88F00007A
:100DF00008040140000011100010024000000140F2
:100E000000080140000C01400010014000140140A6
:100E10008068084000D0012070470AB10161704726
:100E20000904FBE7014880687047000018000020B3
:100E300002488168027811448160704718000020E0
:100E4000074810B5016841F010010160032000F06F
:100E500075F80F2000F006F800F024F8002010BD0F
:100E60000020024070B50D4D04464FF47A71287889
:100E7000B1FBF0F00A490968B1FBF0F000F0DCFAD0
:100E800048B9102C07D200222146501E00F036F837
:100E900000206C6070BD012070BD000018000020B3
:100EA000240000200C4808B5816941F001018161EE
:100EB000816901F001010091C16941F08051C16176
:100EC000C06900F0805000900448416821F0E06162
:100ED00041F08061416008BD001002400000014007
:100EE000002809DB00F01F02012191404009800029
:100EF00000F1E020C0F8001170470000F0B40E4B84
:100F00001B680C46C3F30223C3F10705042D00D967
:100F10000425191D072901D2002300E0DB1E01264C
:100F200006FA05F1491E214099409E40761E164062
:100F30003143F0BC00F06BBF0CED00E0064900F05F
:100F4000070208684FF6FF03184040EA0220034AF0
:100F500010430860704700000CED00E00000FA0547
:100F60002DE9F0470F46050061D0434E306800F090
:100F70000700B84209D2306820F0070038433060DB
:100F8000306800F00700B84251D128683B4C810717
:100F900012D5400703D5606840F4E06060602878AF
:100FA000000703D5606840F4605060606068A9681D
:100FB00020F0F000084360602878C00728D06868F7
:100FC000012810D02168022810D0890700292EDAC4
:100FD000616821F0030101436160FFF723FF804650
:100FE00041F288390DE021688903EFE78901EDE7D7
:100FF000FFF718FFA0EB0801494502D90320BDE81F
:10100000F0876068696800F00C00B0EB810FEFD1E9
:10101000306800F00700B8420BD9306820F00700B4
:1010200038433060306800F00700B84201D001203A
:10103000E5E72878400705D56068E96820F4E060B6
:10104000084360602878000706D56068296920F4A5
:10105000605040EAC100606000F038F86168084AFA
:10106000C1F30311515CC840064908600648006896
:10107000FFF7F8FE0020C2E7002002400010024007
:10108000C61F0008240000201C0000200448054959
:1010900000684968044AC1F30221515CC8407047A6
:1010A0002400002000100240D61F00080448054913
:1010B00000684968044AC1F3C221515CC8407047C6
:1010C0002400002000100240D61F00080E4A51687C
:1010D0000E4801F00C03042B11D0082B0FD10C4843
:1010E000C1F38343C903C05C0AD55168084AC1F300
:1010F0004041921E515C054A5043B0FBF1F07047ED
:1011000004494843704700000010024000127A0072
:10111000B61F000800093D002DE9F84F040070D00B
:101120002078C04DC00749D06868C0F3810001280D
:1011300007D06868C0F38100022809D16868C0033D
:1011400006D52868800339D560680028E7D035E0E7
:101150006068B0F5803F0BD010B1B0F5A02F11D072
:10116000286820F480302860286820F4802002E07D
:10117000286840F480302860606890B1FFF752FE24
:1011800006460AE0286840F480202860F0E700BFA7
:10119000FFF748FE801B642873D828688003F7D5C2
:1011A0000CE0FFF73FFE064605E000BFFFF73AFE02
:1011B000801B6428F0D828688003F7D420789A4EE2
:1011C00080074FF001094FF0000839D5686810F02A
:1011D0000C0F07D06868C0F38100022809D1686845
:1011E000C00306D42868800714D52069012808D1D7
:1011F00010E02069B0B1C6F80090FFF713FE074673
:1012000005E00AE1FFF70EFEC01B0228C4D82868DB
:101210008007F7D52868616920F0F80040EAC1002E
:1012200028600DE0C6F80080FFF7FCFD074604E0EB
:10123000FFF7F8FDC01B022823D828688007F7D4E1
:10124000207800072CD57948A169D9B1C0F8009061
:10125000FFF7E8FD074604E0FFF7E4FDC01B0228A6
:101260000FD8686A8007F7D571484FF4FA510068C3
:10127000B0FBF1F0009000BF0098411E0091FAD23F
:101280000EE080E0C0F80080FFF7CCFD074604E0E8
:10129000FFF7C8FDC01B022875D8686A8007F7D41D
:1012A0002078400760D5E8690027C00008D4E869C5
:1012B00040F08050E861E869012700F0805000901C
:1012C0005C480168C90513D40168834641F4807104
:1012D0000160FFF7A7FD824606E000BFFFF7A2FD11
:1012E000A0EB0A0064284ED8DBF80000C005F5D555
:1012F000E06801280AD008B1052813D0286A20F038
:1013000001002862286A20F0040002E0286A40F008
:1013100001002862E06841F2883B98B1FFF782FD46
:1013200082460BE0286A40F004002862EEE700BF26
:10133000FFF778FDA0EB0A0159455AD8286A8007C3
:10134000F6D50CE0FFF76EFD824605E0FFF76AFD7B
:10135000A0EB0A0159454CD8286A8007F6D41FB182
:10136000E86920F08050E861E06988B36968C1F3FA
:101370008101022944D00228C6F8608004D0FFF71A
:1013800051FD044638E034E0FFF74CFD074604E029
:10139000FFF748FDC01B02282BD828688001F7D42E
:1013A000206AB0F5803F05D16868A16820F400305C
:1013B00008436860D4E908010843696821F474119E
:1013C00008436860C6F86090FFF72CFD044606E00D
:1013D00025E000BFFFF726FD001B022809D828687A
:1013E0008001F7D51BE000BFFFF71CFD001B0228A2
:1013F00002D90320BDE8F88F28688001F4D40EE0FC
:101400000128F7D06868226A00F48031914204D143
:10141000616A00F47010884201D00120EAE70020E0
:10142000E8E700000010024000004242800442420F
:10143000240000200070004010B5401EB0F1807FF5
:1014400001D3012010BD4FF0E02460610F2160172F
:1014500000F0DDFC0020A06107202061002010BD0D
:1014600070477047F8B5016804460868CA684B6958
:1014700010F00F0F4FF0000559D003F0010602F4F1
:101480009077374365D0C10705D0D10503D5616C8E
:1014900041F001016164410705D5D90703D0616CB2
:1014A00041F002016164810705D5D90703D0616C61
:1014B00041F004016164010707D502F020013143C6
:1014C00003D0616C41F008016164616C00293AD07D
:1014D000800604D5900602D5204600F080FB2068E7
:1014E0004069616CC0F38010090700D460B32046E6
:1014F00000F04EFB20684069400621D5206814307A
:1015000050E8001F21F0400140E80012002AF5D108
:10151000E06BA8B16D494163E06BFFF7D7FA002893
:1015200011D0E06B416B01B0BDE8F0400847830685
:101530000FD593060DD52046BDE8F84000F04FBB0F
:101540002046FFF78EFFF8BD2046FFF78AFF65644F
:10155000F8BD266B2023012E7CD1C6067AD5D6068F
:1015600078D508684868009048694FF00206400640
:1015700040D5E16B086840680004000CE8D0A28DFB
:101580008242E5D9E085886920282DD020680C307A
:1015900050E8001F21F4807140E80012002AF5D1C4
:1015A0002068143050E8001F21F0010140E80012CB
:1015B000002AF5D12068143050E8001F21F04001C6
:1015C00040E80012002AF5D184F8423025632068F3
:1015D0000C3050E8001F21F0100140E80012002AF2
:1015E000F5D1E06BFFF74FFA6663A08DE18D401AED
:1015F00081B22AE0A08DE18D401A81B2E08D0028F1
:10160000A6D00029A4D022680C3252E8000F20F4A2
:10161000907042E80007002FF5D12068143050E8A0
:10162000002F22F0010240E80027002FF5D184F8B6
:101630004230256320680C3050E8002F22F0100261
:1016400040E80023002BF5D166632046FFF708FF32
:10165000F8BDFFE705062BD5150629D594F84100FE
:101660002128F5D1A068B0F5805F01D12069B0B123
:10167000206A411C2162216800784860E08C401E8D
:101680000004000CE084E3D12068C16821F08001EF
:10169000C1602068C16841F04001C160D8E7206A9C
:1016A0000088C0F308004860206A801C2062E5E7DB
:1016B0004006CDD55006CBD5CA68204622F0400260
:1016C000CA6084F8413000F0FDF8C1E7811B0008D2
:1016D00070B5040004D094F84100002510B106E074
:1016E000012070BD84F84050204600F023F82420EB
:1016F00084F841002068C16821F40051C16020468F
:1017000000F0CEFA2068016921F49041016120685F
:10171000416921F02A0141612068C16841F400510A
:10172000C1606564202084F8410084F8420065634C
:10173000002070BD30B585B000240094019402945F
:1017400003940068184988422CD11848816941F4F3
:1017500080418161816901F480410491816941F096
:10176000040181618069124D00F0040004904FF47F
:1017700000700090022001900320039069462846E3
:10178000FFF756FA2815CDE9000469462846029469
:10179000FFF74EFA002211462520FFF7AFFB252068
:1017A000FFF79EFB05B030BD00380140001002403D
:1017B0000008014090F84230202B01D002207047F1
:1017C00021B11AB10023036300F0C6BA01207047AB
:1017D00030B400680F49884219D10F480146427859
:1017E00049791F2A06D20D4B9954521CD2B242702D
:1017F00000249C540D2901D00A2901D101218170B6
:101800000549012230BC491D0548FFF7D3BF30BC54
:101810007047000000380140000000203400002024
:10182000540000202DE9F843044690F84100984602
:1018300016460D46202802D00220BDE8F88385B167
:101840007EB100206064212084F84100FFF7EAFAAD
:10185000A6848146E684A0682027B0F5805F02D088
:1018600003E00120E9E7206910B12E4600250EE0D3
:1018700000260CE08021204600F089FAA8B9C6B104
:1018800016F8010B21684860E08C401EE084E08C73
:101890004B464FF00002CDF800800028EAD14FF00F
:1018A0004001204600F073FA40B184F841700320F3
:1018B000C3E735F8020BC0F30800E3E784F8417092
:1018C0000020BAE77047FEE700B585B0002003901E
:1018D0001648816941F0040181618069694600F020
:1018E000040004900E200090114801900220029004
:1018F0001048FFF79DF9002211460720FFF7FEFA76
:101900000720FFF7EDFA002211460820FFF7F6FA4C
:101910000820FFF7E5FA002211460920FFF7EEFA4A
:101920000920FFF7DDFA05B000BD000000100240FD
:1019300000001110000801402DE9F04385B000249B
:101940003E480094019402940394816941F010018F
:101950008161816901F010010491816941F02001E8
:101960008161816901F020010491816941F00401E4
:101970008161816901F004010491816941F00801EC
:1019800081618069DFF8B88000F0080004900122CE
:1019900030214046FFF741FADFF8A89040F2FF37C8
:1019A000002239464846FFF738FA4F200090264873
:1019B0000225CDE9010569464046FFF739F9302097
:1019C000009011200126CDE901060320039069460D
:1019D0004046FFF72DF9CDE9007669464846CDE946
:1019E0000245FFF725F9002211460620FFF786FA87
:1019F0000620FFF775FA002211460720FFF77EFA4E
:101A00000720FFF76DFA002211460820FFF776FA4B
:101A10000820FFF765FA002211460920FFF76EFA49
:101A20000920FFF75DFA002211461720FFF766FA3A
:101A30001720FFF755FA05B0BDE8F083001002400B
:101A400000080140000C0140000011100C4810B5C6
:101A50000A4901604FF416514160002181600C2257
:101A6000C160C0E904128161C161FFF731FE002845
:101A700003D0BDE81040FFF704B810BD00380140A6
:101A800054000020FEE7FEE77047000003490A68A3
:101A900022F0FF0202430A60704700000C0C014074
:101AA000704700006423052201A10348FFF7BABE76
:101AB0004144440D0A000000540000206423072222
:101AC00001A10348FFF7AEBE4553544F500D0A0025
:101AD000540000206423072201A10348FFF7A2BE9F
:101AE00052455345540D0A0054000020642305223A
:101AF00001A10348FFF796BE5355420D0A000000AE
:101B0000540000206423062201A10348FFF78ABE87
:101B10005A45524F0D0A000054000020FFF788B9C3
:101B200030B58FB028216846FEF7F1FB14210AA8D2
:101B3000FEF7EDFB01210804CDE90010002402941A
:101B400002250491CDE907504FF4E0100990684652
:101B5000FFF7E2FA08B172B6FEE70F20CDE90A05F9
:101B60004FF48060CDE90C4002210AA80E94FFF7E3
:101B7000F7F9002801D072B6FEE70FB030BD70470C
:101B800010B5406A0021C185C184FFF76AFC10BD11
:101B900001680C3151E8002F22F4907241E80023D3
:101BA000002BF5D10168143151E8002F22F0010219
:101BB00041E80023002BF5D1016B012909D101680F
:101BC0000C3151E8002F22F0100241E80023002BD5
:101BD000F5D1202180F8421000210163704708B53B
:101BE00090F84210222901D0022008BD82684FF4EB
:101BF00080539A4201D1016921B1816A9A421BD076
:101C00004AB10AE00268816A5268C2F308020A8097
:101C1000816A891C08E0026972B10268526802F0A8
:101C20007F020A70816A491C8162C18D491E0904C4
:101C3000090CC18503D01BE002685268F1E7016816
:101C4000CA6822F02002CA600168CA6822F4807261
:101C5000CA6001684A6922F001024A61202180F8C5
:101C6000421000214163026B012A03D0FFF7B0FD4F
:101C7000002008BD016301680C3151E8002F22F0FB
:101C8000100241E80023002BF5D101680A68D20652
:101C900002D50A6849680091818DFFF7E1FBE7E70B
:101CA00070B5044600680169E26821F440511143AF
:101CB00001612169A0680843616908432168CA6815
:101CC00041F20C639A430243CA6020684169A269E9
:101CD00021F44071114341611E492068884202D1BC
:101CE000FFF7E4F901E0FFF7D1F900EBC00101EBE8
:101CF0000012606864218000B2FBF0F3B3FBF1F3E3
:101D00006FF018067343B2FBF0F5B2FBF0F605EB8B
:101D10008305322303EB0515B5FBF1F5B6FBF1F6B0
:101D200005F0F00505EB0615B2FBF0F6B2FBF0F09E
:101D3000B0FBF1F06FF01802504306EB800003EBAC
:101D40000010B0FBF1F0216800F00F00284488601B
:101D500070BD00000038014081628285C28500218B
:101D60004164222180F84210016921B10168CA68EA
:101D700042F48072CA6001684A6942F001024A6115
:101D80000068C16841F02001C160002070472DE962
:101D9000F843984617460D460446089E24E0701CFA
:101DA00022D0FFF73FF8A0EB0800B0421AD8CEB11E
:101DB0002068C168490717D5802D15D0402D13D054
:101DC0000168C94309070FD40168002540680090E5
:101DD0002046FFF7DDFE0820606484F840500120B3
:101DE000BDE8F8830320FBE72068006835EA0000BF
:101DF00004D00020B842D2D00020F1E70120F9E75A
:101E00000148FFF72FBB000054000020FEE7090740
:101E1000090E002804DB00F1E02080F80014704770
:101E200000F00F0000F1E02080F8141D7047000062
:101E3000FFF706F8FFF774FEFFF77EFDFFF706FEDB
:101E4000FFF742FDFEF7AAFD012234493448FFF7AF
:101E5000B1FC324C334F0025641FE078012804D1D7
:101E600002213846FEF7D4FF18B1E078022803D0EB
:101E700008E0E57025710EE004213846FEF7C8FF42
:101E80000028F6D0E078032805D108213846FEF76F
:101E9000BFFF0028EDD000F047F8E07890B3FEF7E0
:101EA000C1FF0646A068301AC82819D2207948BB5D
:101EB000E078012804D0022807D003280DD109E0DA
:101EC0002078632809D2401C02E0207828B1401E07
:101ED000207002E02570E57025710120207118E066
:101EE0006069301AC82815D3E078012802D002288A
:101EF0000FD108E0207863280BD2401C2070FFF738
:101F0000D1FD06E006E0207818B1401E2070FFF7F2
:101F1000EDFD66612078FEF771FD9EE7050000206B
:101F200054000020000801403EB50F4CA078002866
:101F300019D06A460DA11348FEF74EF901280BD1BE
:101F40006846FEF7D7F9C0B22070632801D9632034
:101F50002070C0B2FEF752FD0020A07060702021FA
:101F60000848FEF7D4F93EBD000000207B22476FF1
:101F70006F64734E756D626572223A22255B5E2234
:101F80005D227D003400002010B500290AD00878B9
:101F9000002807D005487844FEF7B6FC002801D099
:101FA000002010BD0248784410BD000072000000FF
:101FB0006A000000010202030405060708090A0B73
:101FC0000C0D0E0F101000000000000000000102B8
:101FD0000304060708090000000001020304C0F919
:101FE000A4B0999282F88090182100080000002087
:101FF00028000000280100084021000828000020D7
:10200000D806000044010008100100004300000051
:10201000F8FFFFFF00404040404040404040414109
:1020200041414140404040404040404040404040AD
:102030004040404040050202020202020202020247
:102040000202020202202020202020202020200244
:1020500002020202020290909090909010101010D4
:102060001010101010101010101010101010101070
:102070000202020202028888888888880808080804
:1020800008080808080808080808080808080808D0
:1020900002020202400000000000000000000000F8
:1020A0000000000000000000000000000000000030
:1020B0000000000000000000000000000000000020
:1020C0000000000000000000000000000000000010
:1020D0000000000000000000000000000000000000
:1020E00000000000000000000000000000000000F0
:1020F00000000000000000000000000000000000E0
:1021000000000000000000000000000000000000CF
:1021100000000000000000000000000000000000BF
:1021200000000000000000000000000000000000AF
:1021300001000000100000000000000000127A0002
:04000005080000ED02
:00000001FF
